{
  "contractName": "GuarantorManager",
  "abi": [
    {
      "inputs": [],
      "payable": false,
      "stateMutability": "nonpayable",
      "type": "constructor"
    },
    {
      "anonymous": false,
      "inputs": [
        {
          "indexed": true,
          "internalType": "address",
          "name": "_guarantorAddress",
          "type": "address"
        }
      ],
      "name": "GuarantorAdded",
      "type": "event"
    },
    {
      "anonymous": false,
      "inputs": [
        {
          "indexed": true,
          "internalType": "address",
          "name": "_guarantorAddress",
          "type": "address"
        }
      ],
      "name": "GuarantorDeleted",
      "type": "event"
    },
    {
      "constant": true,
      "inputs": [],
      "name": "administrator",
      "outputs": [
        {
          "internalType": "address payable",
          "name": "",
          "type": "address"
        }
      ],
      "payable": false,
      "stateMutability": "view",
      "type": "function"
    },
    {
      "constant": true,
      "inputs": [
        {
          "internalType": "address",
          "name": "",
          "type": "address"
        }
      ],
      "name": "isGuarantor",
      "outputs": [
        {
          "internalType": "bool",
          "name": "",
          "type": "bool"
        }
      ],
      "payable": false,
      "stateMutability": "view",
      "type": "function"
    },
    {
      "constant": false,
      "inputs": [],
      "name": "destroyContract",
      "outputs": [],
      "payable": false,
      "stateMutability": "nonpayable",
      "type": "function"
    },
    {
      "constant": false,
      "inputs": [
        {
          "internalType": "address",
          "name": "_guarantor",
          "type": "address"
        }
      ],
      "name": "addGuarantor",
      "outputs": [],
      "payable": false,
      "stateMutability": "nonpayable",
      "type": "function"
    },
    {
      "constant": false,
      "inputs": [
        {
          "internalType": "address",
          "name": "_guarantor",
          "type": "address"
        }
      ],
      "name": "removeGuarantor",
      "outputs": [],
      "payable": false,
      "stateMutability": "nonpayable",
      "type": "function"
    },
    {
      "constant": true,
      "inputs": [],
      "name": "getGuarantors",
      "outputs": [
        {
          "internalType": "address[]",
          "name": "",
          "type": "address[]"
        }
      ],
      "payable": false,
      "stateMutability": "view",
      "type": "function"
    }
  ],
  "bytecode": "0x608060405234801561001057600080fd5b50336000806101000a81548173ffffffffffffffffffffffffffffffffffffffff021916908373ffffffffffffffffffffffffffffffffffffffff16021790555061095f806100606000396000f3fe608060405234801561001057600080fd5b50600436106100625760003560e01c806305c7b2f514610067578063092a5cce146100c6578063a1686c17146100d0578063a20ed2961461012c578063b7c1e57114610170578063f53d0a8e146101b4575b600080fd5b61006f6101fe565b6040518080602001828103825283818151815260200191508051906020019060200280838360005b838110156100b2578082015181840152602081019050610097565b505050509050019250505060405180910390f35b6100ce61028c565b005b610112600480360360208110156100e657600080fd5b81019080803573ffffffffffffffffffffffffffffffffffffffff16906020019092919050505061036b565b604051808215151515815260200191505060405180910390f35b61016e6004803603602081101561014257600080fd5b81019080803573ffffffffffffffffffffffffffffffffffffffff16906020019092919050505061038b565b005b6101b26004803603602081101561018657600080fd5b81019080803573ffffffffffffffffffffffffffffffffffffffff1690602001909291905050506105fa565b005b6101bc6108d4565b604051808273ffffffffffffffffffffffffffffffffffffffff1673ffffffffffffffffffffffffffffffffffffffff16815260200191505060405180910390f35b6060600180548060200260200160405190810160405280929190818152602001828054801561028257602002820191906000526020600020905b8160009054906101000a900473ffffffffffffffffffffffffffffffffffffffff1673ffffffffffffffffffffffffffffffffffffffff1681526020019060010190808311610238575b5050505050905090565b3373ffffffffffffffffffffffffffffffffffffffff166000809054906101000a900473ffffffffffffffffffffffffffffffffffffffff1673ffffffffffffffffffffffffffffffffffffffff1614610331576040517f08c379a00000000000000000000000000000000000000000000000000000000081526004018080602001828103825260318152602001806108fa6031913960400191505060405180910390fd5b6000809054906101000a900473ffffffffffffffffffffffffffffffffffffffff1673ffffffffffffffffffffffffffffffffffffffff16ff5b60026020528060005260406000206000915054906101000a900460ff1681565b3373ffffffffffffffffffffffffffffffffffffffff166000809054906101000a900473ffffffffffffffffffffffffffffffffffffffff1673ffffffffffffffffffffffffffffffffffffffff1614610430576040517f08c379a00000000000000000000000000000000000000000000000000000000081526004018080602001828103825260318152602001806108fa6031913960400191505060405180910390fd5b60001515600260008373ffffffffffffffffffffffffffffffffffffffff1673ffffffffffffffffffffffffffffffffffffffff16815260200190815260200160002060009054906101000a900460ff161515146104f6576040517f08c379a000000000000000000000000000000000000000000000000000000000815260040180806020018281038252601e8152602001807f4164647265737320697320616c726561647920612067756172616e746f72000081525060200191505060405180910390fd5b6001600260008373ffffffffffffffffffffffffffffffffffffffff1673ffffffffffffffffffffffffffffffffffffffff16815260200190815260200160002060006101000a81548160ff02191690831515021790555060018190806001815401808255809150509060018203906000526020600020016000909192909190916101000a81548173ffffffffffffffffffffffffffffffffffffffff021916908373ffffffffffffffffffffffffffffffffffffffff160217905550508073ffffffffffffffffffffffffffffffffffffffff167fcb07cfa5405b6ca28b7ccf615e21e8f0c8ec47dad2e8278c9653c914da60bf3b60405160405180910390a250565b3373ffffffffffffffffffffffffffffffffffffffff166000809054906101000a900473ffffffffffffffffffffffffffffffffffffffff1673ffffffffffffffffffffffffffffffffffffffff161461069f576040517f08c379a00000000000000000000000000000000000000000000000000000000081526004018080602001828103825260318152602001806108fa6031913960400191505060405180910390fd5b60011515600260008373ffffffffffffffffffffffffffffffffffffffff1673ffffffffffffffffffffffffffffffffffffffff16815260200190815260200160002060009054906101000a900460ff16151514610765576040517f08c379a000000000000000000000000000000000000000000000000000000000815260040180806020018281038252601a8152602001807f41646472657373206973206e6f7420612067756172616e746f7200000000000081525060200191505060405180910390fd5b6000600260008373ffffffffffffffffffffffffffffffffffffffff1673ffffffffffffffffffffffffffffffffffffffff16815260200190815260200160002060006101000a81548160ff0219169083151502179055506000600180549050905060008090505b8181101561088c578273ffffffffffffffffffffffffffffffffffffffff16600182815481106107f957fe5b9060005260206000200160009054906101000a900473ffffffffffffffffffffffffffffffffffffffff1673ffffffffffffffffffffffffffffffffffffffff16141561087f576001818154811061084d57fe5b9060005260206000200160006101000a81549073ffffffffffffffffffffffffffffffffffffffff021916905561088c565b80806001019150506107cd565b508173ffffffffffffffffffffffffffffffffffffffff167fb293e76d6024b381aaad334f4a1563759118a18c16d57646def925c265f9c55260405160405180910390a25050565b6000809054906101000a900473ffffffffffffffffffffffffffffffffffffffff168156fe4f6e6c792041646d696e6973747261746f7273204172652041626c6520546f2052756e20546869732046756e6374696f6ea265627a7a7231582094427e840a3621b1092c2d6ea83dfe654a85448572328161087d39fb98fd8c5964736f6c634300050c0032",
  "source": "pragma solidity ^0.5.11;\r\n\r\ncontract GuarantorManager{\r\n\r\n    // Contract properties\r\n    address payable public administrator;\r\n    address[] private guarantors;\r\n\r\n    // Mappings\r\n    mapping(address => bool) public isGuarantor;\r\n\r\n    // Events\r\n    event GuarantorAdded(\r\n        address indexed _guarantorAddress\r\n    );\r\n    event GuarantorDeleted(\r\n        address indexed _guarantorAddress\r\n    );\r\n\r\n    // Contract constructor\r\n    constructor() public{\r\n        administrator = msg.sender;\r\n    }\r\n\r\n    // Self destruction\r\n    function destroyContract() public IsAdministrator{\r\n        selfdestruct(administrator);\r\n    }\r\n\r\n    // Function to add a new guarantor\r\n    function addGuarantor(address _guarantor) public IsAdministrator {\r\n\r\n        // Make sure address passed is not already a manager\r\n        require(isGuarantor[_guarantor] == false, \"Address is already a guarantor\");\r\n\r\n        isGuarantor[_guarantor] = true;\r\n        guarantors.push(_guarantor);\r\n        emit GuarantorAdded(_guarantor);\r\n    }\r\n\r\n    // Function to remove a guarantor\r\n    function removeGuarantor(address _guarantor) public IsAdministrator {\r\n\r\n        // Make sure address passed is actually a guarantor\r\n        require(isGuarantor[_guarantor] == true, \"Address is not a guarantor\");\r\n\r\n        isGuarantor[_guarantor] = false;\r\n\r\n        // Delete guarantor from array of all guarantors\r\n        uint guarantorCount = guarantors.length;\r\n        for(uint i = 0; i < guarantorCount; i++){\r\n            if(guarantors[i] == _guarantor){\r\n                delete guarantors[i];\r\n                break;\r\n            }\r\n        }\r\n\r\n        emit GuarantorDeleted(_guarantor);\r\n    }\r\n\r\n    function getGuarantors() public view returns(address[] memory) {\r\n        return guarantors;\r\n    }\r\n\r\n    // Function to check of message sender is the administrator\r\n    modifier IsAdministrator(){\r\n        require((administrator == msg.sender), \"Only Administrators Are Able To Run This Function\");\r\n        _;\r\n    }\r\n}",
  "sourcePath": "C:\\Users\\music\\OneDrive\\University\\Masters\\DLT5401 - Smart Contract and dAppProgramming\\Assignment\\Part 1\\loandapp\\Application\\contracts\\GuarantorManager.sol",
  "compiler": {
    "name": "solc",
    "version": "0.5.12+commit.7709ece9.Emscripten.clang"
  },
  "schemaVersion": "3.0.19",
  "updatedAt": "2020-01-15T19:31:27.233Z",
  "networkType": "ethereum",
  "devdoc": {
    "methods": {}
  },
  "userdoc": {
    "methods": {}
  }
}