{
  "contractName": "LoanManager",
  "abi": [
    {
      "inputs": [
        {
          "internalType": "contract ContractRegistry",
          "name": "_registry",
          "type": "address"
        }
      ],
      "payable": false,
      "stateMutability": "nonpayable",
      "type": "constructor"
    },
    {
      "anonymous": false,
      "inputs": [],
      "name": "GuaranteeAccepted",
      "type": "event"
    },
    {
      "anonymous": false,
      "inputs": [],
      "name": "GuaranteeDeclined",
      "type": "event"
    },
    {
      "anonymous": false,
      "inputs": [
        {
          "indexed": true,
          "internalType": "bytes32",
          "name": "_guaranteeId",
          "type": "bytes32"
        }
      ],
      "name": "GuaranteeSubmitted",
      "type": "event"
    },
    {
      "anonymous": false,
      "inputs": [],
      "name": "GuaranteeWithdrawn",
      "type": "event"
    },
    {
      "anonymous": false,
      "inputs": [],
      "name": "LoanRepaid",
      "type": "event"
    },
    {
      "anonymous": false,
      "inputs": [
        {
          "indexed": true,
          "internalType": "bytes32",
          "name": "_loanId",
          "type": "bytes32"
        }
      ],
      "name": "LoanSubmitted",
      "type": "event"
    },
    {
      "anonymous": false,
      "inputs": [
        {
          "indexed": true,
          "internalType": "bytes32",
          "name": "_requestId",
          "type": "bytes32"
        }
      ],
      "name": "RequestSubmitted",
      "type": "event"
    },
    {
      "payable": false,
      "stateMutability": "nonpayable",
      "type": "fallback"
    },
    {
      "constant": true,
      "inputs": [],
      "name": "administrator",
      "outputs": [
        {
          "internalType": "address",
          "name": "",
          "type": "address"
        }
      ],
      "payable": false,
      "stateMutability": "view",
      "type": "function"
    },
    {
      "constant": true,
      "inputs": [],
      "name": "registry",
      "outputs": [
        {
          "internalType": "contract ContractRegistry",
          "name": "",
          "type": "address"
        }
      ],
      "payable": false,
      "stateMutability": "view",
      "type": "function"
    },
    {
      "constant": false,
      "inputs": [
        {
          "internalType": "uint256",
          "name": "_amount",
          "type": "uint256"
        },
        {
          "internalType": "uint256",
          "name": "_payUntil",
          "type": "uint256"
        },
        {
          "internalType": "uint256",
          "name": "_interest",
          "type": "uint256"
        }
      ],
      "name": "submitRequest",
      "outputs": [],
      "payable": false,
      "stateMutability": "nonpayable",
      "type": "function"
    },
    {
      "constant": true,
      "inputs": [],
      "name": "getRequests",
      "outputs": [
        {
          "internalType": "bytes32[]",
          "name": "",
          "type": "bytes32[]"
        }
      ],
      "payable": false,
      "stateMutability": "view",
      "type": "function"
    },
    {
      "constant": true,
      "inputs": [
        {
          "internalType": "bytes32",
          "name": "_requestId",
          "type": "bytes32"
        }
      ],
      "name": "getRequest",
      "outputs": [
        {
          "internalType": "bytes32",
          "name": "",
          "type": "bytes32"
        },
        {
          "internalType": "address",
          "name": "",
          "type": "address"
        },
        {
          "internalType": "uint256",
          "name": "",
          "type": "uint256"
        },
        {
          "internalType": "uint256",
          "name": "",
          "type": "uint256"
        },
        {
          "internalType": "uint256",
          "name": "",
          "type": "uint256"
        },
        {
          "internalType": "enum LoanManager.States",
          "name": "",
          "type": "uint8"
        }
      ],
      "payable": false,
      "stateMutability": "view",
      "type": "function"
    },
    {
      "constant": true,
      "inputs": [
        {
          "internalType": "address",
          "name": "_borrower",
          "type": "address"
        }
      ],
      "name": "getBorrowerRequests",
      "outputs": [
        {
          "internalType": "bytes32[]",
          "name": "",
          "type": "bytes32[]"
        }
      ],
      "payable": false,
      "stateMutability": "view",
      "type": "function"
    },
    {
      "constant": true,
      "inputs": [
        {
          "internalType": "bytes32",
          "name": "_requestId",
          "type": "bytes32"
        }
      ],
      "name": "getRequestLoan",
      "outputs": [
        {
          "internalType": "bytes32",
          "name": "",
          "type": "bytes32"
        }
      ],
      "payable": false,
      "stateMutability": "view",
      "type": "function"
    },
    {
      "constant": false,
      "inputs": [
        {
          "internalType": "bytes32",
          "name": "_requestId",
          "type": "bytes32"
        },
        {
          "internalType": "uint256",
          "name": "_interestRequest",
          "type": "uint256"
        }
      ],
      "name": "submitGuarantee",
      "outputs": [],
      "payable": false,
      "stateMutability": "nonpayable",
      "type": "function"
    },
    {
      "constant": true,
      "inputs": [
        {
          "internalType": "bytes32",
          "name": "_requestId",
          "type": "bytes32"
        }
      ],
      "name": "getRequestGuarantee",
      "outputs": [
        {
          "internalType": "bytes32",
          "name": "",
          "type": "bytes32"
        },
        {
          "internalType": "address",
          "name": "",
          "type": "address"
        },
        {
          "internalType": "uint256",
          "name": "",
          "type": "uint256"
        },
        {
          "internalType": "enum LoanManager.States",
          "name": "",
          "type": "uint8"
        }
      ],
      "payable": false,
      "stateMutability": "view",
      "type": "function"
    },
    {
      "constant": true,
      "inputs": [],
      "name": "getGuarantees",
      "outputs": [
        {
          "internalType": "bytes32[]",
          "name": "",
          "type": "bytes32[]"
        }
      ],
      "payable": false,
      "stateMutability": "view",
      "type": "function"
    },
    {
      "constant": true,
      "inputs": [
        {
          "internalType": "bytes32",
          "name": "_guaranteeId",
          "type": "bytes32"
        }
      ],
      "name": "getGuarantee",
      "outputs": [
        {
          "internalType": "bytes32",
          "name": "",
          "type": "bytes32"
        },
        {
          "internalType": "address",
          "name": "",
          "type": "address"
        },
        {
          "internalType": "uint256",
          "name": "",
          "type": "uint256"
        },
        {
          "internalType": "enum LoanManager.States",
          "name": "",
          "type": "uint8"
        }
      ],
      "payable": false,
      "stateMutability": "view",
      "type": "function"
    },
    {
      "constant": true,
      "inputs": [
        {
          "internalType": "address",
          "name": "_guarantor",
          "type": "address"
        }
      ],
      "name": "getGuarantorGuarantees",
      "outputs": [
        {
          "internalType": "bytes32[]",
          "name": "",
          "type": "bytes32[]"
        }
      ],
      "payable": false,
      "stateMutability": "view",
      "type": "function"
    },
    {
      "constant": false,
      "inputs": [
        {
          "internalType": "bytes32",
          "name": "_requestId",
          "type": "bytes32"
        }
      ],
      "name": "acceptGuarantee",
      "outputs": [],
      "payable": false,
      "stateMutability": "nonpayable",
      "type": "function"
    },
    {
      "constant": false,
      "inputs": [
        {
          "internalType": "bytes32",
          "name": "_requestId",
          "type": "bytes32"
        }
      ],
      "name": "declineGuarantee",
      "outputs": [],
      "payable": true,
      "stateMutability": "payable",
      "type": "function"
    },
    {
      "constant": false,
      "inputs": [
        {
          "internalType": "bytes32",
          "name": "_requestId",
          "type": "bytes32"
        }
      ],
      "name": "submitLoan",
      "outputs": [],
      "payable": true,
      "stateMutability": "payable",
      "type": "function"
    },
    {
      "constant": true,
      "inputs": [
        {
          "internalType": "bytes32",
          "name": "_loanId",
          "type": "bytes32"
        }
      ],
      "name": "getLoanRequest",
      "outputs": [
        {
          "internalType": "bytes32",
          "name": "",
          "type": "bytes32"
        },
        {
          "internalType": "address",
          "name": "",
          "type": "address"
        },
        {
          "internalType": "uint256",
          "name": "",
          "type": "uint256"
        },
        {
          "internalType": "uint256",
          "name": "",
          "type": "uint256"
        },
        {
          "internalType": "uint256",
          "name": "",
          "type": "uint256"
        },
        {
          "internalType": "enum LoanManager.States",
          "name": "",
          "type": "uint8"
        }
      ],
      "payable": false,
      "stateMutability": "view",
      "type": "function"
    },
    {
      "constant": true,
      "inputs": [],
      "name": "getLoans",
      "outputs": [
        {
          "internalType": "bytes32[]",
          "name": "",
          "type": "bytes32[]"
        }
      ],
      "payable": false,
      "stateMutability": "view",
      "type": "function"
    },
    {
      "constant": true,
      "inputs": [
        {
          "internalType": "bytes32",
          "name": "_loanId",
          "type": "bytes32"
        }
      ],
      "name": "getLoan",
      "outputs": [
        {
          "internalType": "bytes32",
          "name": "",
          "type": "bytes32"
        },
        {
          "internalType": "address",
          "name": "",
          "type": "address"
        },
        {
          "internalType": "uint256",
          "name": "",
          "type": "uint256"
        },
        {
          "internalType": "enum LoanManager.States",
          "name": "",
          "type": "uint8"
        }
      ],
      "payable": false,
      "stateMutability": "view",
      "type": "function"
    },
    {
      "constant": true,
      "inputs": [
        {
          "internalType": "address",
          "name": "_lender",
          "type": "address"
        }
      ],
      "name": "getLenderLoans",
      "outputs": [
        {
          "internalType": "bytes32[]",
          "name": "",
          "type": "bytes32[]"
        }
      ],
      "payable": false,
      "stateMutability": "view",
      "type": "function"
    },
    {
      "constant": false,
      "inputs": [
        {
          "internalType": "bytes32",
          "name": "_loanId",
          "type": "bytes32"
        }
      ],
      "name": "repayLoan",
      "outputs": [],
      "payable": true,
      "stateMutability": "payable",
      "type": "function"
    },
    {
      "constant": false,
      "inputs": [
        {
          "internalType": "bytes32",
          "name": "_loanId",
          "type": "bytes32"
        }
      ],
      "name": "withdrawGuarantee",
      "outputs": [],
      "payable": true,
      "stateMutability": "payable",
      "type": "function"
    }
  ],
  "bytecode": "0x608060405234801561001057600080fd5b506040516200464a3803806200464a8339818101604052602081101561003557600080fd5b8101908080519060200190929190505050336000806101000a81548173ffffffffffffffffffffffffffffffffffffffff021916908373ffffffffffffffffffffffffffffffffffffffff16021790555080600160006101000a81548173ffffffffffffffffffffffffffffffffffffffff021916908373ffffffffffffffffffffffffffffffffffffffff1602179055505061457280620000d86000396000f3fe60806040526004361061012a5760003560e01c80638932f5f7116100ab578063d75f3e801161006f578063d75f3e80146107c9578063e9e60dba1461086f578063eeeb0c171461089d578063f53d0a8e14610943578063fb1e61ca1461099a578063fbe3b3fe14610a465761012a565b80638932f5f7146105935780639896ae7114610631578063aa4a8711146106dd578063c3be5e8b14610749578063cffa647c146107845761012a565b80635e46bc8c116100f25780635e46bc8c146103905780636108b57a146103be5780637b1039991461042a5780637fecc9a1146104815780638813ce12146105275761012a565b806305820ec1146101885780631455b136146102265780633c19eb0a146102755780633f84210f14610313578063516ebadf14610341575b34801561013657600080fd5b506040517f08c379a00000000000000000000000000000000000000000000000000000000081526004018080602001828103825260248152602001806144756024913960400191505060405180910390fd5b34801561019457600080fd5b506101c1600480360360208110156101ab57600080fd5b8101908080359060200190929190505050610a74565b604051808581526020018473ffffffffffffffffffffffffffffffffffffffff1673ffffffffffffffffffffffffffffffffffffffff16815260200183815260200182600781111561020f57fe5b60ff16815260200194505050505060405180910390f35b34801561023257600080fd5b506102736004803603606081101561024957600080fd5b81019080803590602001909291908035906020019092919080359060200190929190505050610b73565b005b34801561028157600080fd5b506102ae6004803603602081101561029857600080fd5b8101908080359060200190929190505050610e6f565b604051808581526020018473ffffffffffffffffffffffffffffffffffffffff1673ffffffffffffffffffffffffffffffffffffffff1681526020018381526020018260078111156102fc57fe5b60ff16815260200194505050505060405180910390f35b61033f6004803603602081101561032957600080fd5b8101908080359060200190929190505050610f5b565b005b34801561034d57600080fd5b5061037a6004803603602081101561036457600080fd5b8101908080359060200190929190505050611a6d565b6040518082815260200191505060405180910390f35b6103bc600480360360208110156103a657600080fd5b8101908080359060200190929190505050611a8a565b005b3480156103ca57600080fd5b506103d3612074565b6040518080602001828103825283818151815260200191508051906020019060200280838360005b838110156104165780820151818401526020810190506103fb565b505050509050019250505060405180910390f35b34801561043657600080fd5b5061043f6120cc565b604051808273ffffffffffffffffffffffffffffffffffffffff1673ffffffffffffffffffffffffffffffffffffffff16815260200191505060405180910390f35b34801561048d57600080fd5b506104d0600480360360208110156104a457600080fd5b81019080803573ffffffffffffffffffffffffffffffffffffffff1690602001909291905050506120f2565b6040518080602001828103825283818151815260200191508051906020019060200280838360005b838110156105135780820151818401526020810190506104f8565b505050509050019250505060405180910390f35b34801561053357600080fd5b5061053c612189565b6040518080602001828103825283818151815260200191508051906020019060200280838360005b8381101561057f578082015181840152602081019050610564565b505050509050019250505060405180910390f35b34801561059f57600080fd5b506105cc600480360360208110156105b657600080fd5b81019080803590602001909291905050506121e1565b604051808581526020018473ffffffffffffffffffffffffffffffffffffffff1673ffffffffffffffffffffffffffffffffffffffff16815260200183815260200182600781111561061a57fe5b60ff16815260200194505050505060405180910390f35b34801561063d57600080fd5b5061066a6004803603602081101561065457600080fd5b81019080803590602001909291905050506122cd565b604051808781526020018673ffffffffffffffffffffffffffffffffffffffff1673ffffffffffffffffffffffffffffffffffffffff1681526020018581526020018481526020018381526020018260078111156106c457fe5b60ff168152602001965050505050505060405180910390f35b3480156106e957600080fd5b506106f26123f3565b6040518080602001828103825283818151815260200191508051906020019060200280838360005b8381101561073557808201518184015260208101905061071a565b505050509050019250505060405180910390f35b34801561075557600080fd5b506107826004803603602081101561076c57600080fd5b810190808035906020019092919050505061244b565b005b34801561079057600080fd5b506107c7600480360360408110156107a757600080fd5b810190808035906020019092919080359060200190929190505050612657565b005b3480156107d557600080fd5b50610818600480360360208110156107ec57600080fd5b81019080803573ffffffffffffffffffffffffffffffffffffffff169060200190929190505050613083565b6040518080602001828103825283818151815260200191508051906020019060200280838360005b8381101561085b578082015181840152602081019050610840565b505050509050019250505060405180910390f35b61089b6004803603602081101561088557600080fd5b810190808035906020019092919050505061311a565b005b3480156108a957600080fd5b506108ec600480360360208110156108c057600080fd5b81019080803573ffffffffffffffffffffffffffffffffffffffff169060200190929190505050613937565b6040518080602001828103825283818151815260200191508051906020019060200280838360005b8381101561092f578082015181840152602081019050610914565b505050509050019250505060405180910390f35b34801561094f57600080fd5b506109586139ce565b604051808273ffffffffffffffffffffffffffffffffffffffff1673ffffffffffffffffffffffffffffffffffffffff16815260200191505060405180910390f35b3480156109a657600080fd5b506109d3600480360360208110156109bd57600080fd5b81019080803590602001909291905050506139f3565b604051808781526020018673ffffffffffffffffffffffffffffffffffffffff1673ffffffffffffffffffffffffffffffffffffffff168152602001858152602001848152602001838152602001826007811115610a2d57fe5b60ff168152602001965050505050505060405180910390f35b610a7260048036036020811015610a5c57600080fd5b8101908080359060200190929190505050613b06565b005b600080600080610a8261413b565b60096000600a6000898152602001908152602001600020548152602001908152602001600020604051806080016040529081600082015481526020016001820160009054906101000a900473ffffffffffffffffffffffffffffffffffffffff1673ffffffffffffffffffffffffffffffffffffffff1673ffffffffffffffffffffffffffffffffffffffff168152602001600282015481526020016003820160009054906101000a900460ff166007811115610b3b57fe5b6007811115610b4657fe5b81525050905080600001518160200151826040015183606001518292509450945094509450509193509193565b60008311610bcc576040517f08c379a00000000000000000000000000000000000000000000000000000000081526004018080602001828103825260248152602001806144236024913960400191505060405180910390fd5b438211610c24576040517f08c379a00000000000000000000000000000000000000000000000000000000081526004018080602001828103825260488152602001806144cd6048913960600191505060405180910390fd5b60003384848442604051602001808673ffffffffffffffffffffffffffffffffffffffff1673ffffffffffffffffffffffffffffffffffffffff1660601b815260140185815260200184815260200183815260200182815260200195505050505050604051602081830303815290604052805190602001209050610ca6614187565b6040518060c001604052808381526020013373ffffffffffffffffffffffffffffffffffffffff16815260200186815260200185815260200184815260200160006007811115610cf257fe5b815250905080600560008481526020019081526020016000206000820151816000015560208201518160010160006101000a81548173ffffffffffffffffffffffffffffffffffffffff021916908373ffffffffffffffffffffffffffffffffffffffff16021790555060408201518160020155606082015181600301556080820151816004015560a08201518160050160006101000a81548160ff02191690836007811115610d9e57fe5b0217905550905050600660003373ffffffffffffffffffffffffffffffffffffffff1673ffffffffffffffffffffffffffffffffffffffff1681526020019081526020016000208290806001815401808255809150509060018203906000526020600020016000909192909190915055506002829080600181540180825580915050906001820390600052602060002001600090919290919091505550817fcc32355f12fcebc315497d46481fdeb72167df0310c874b95828a27665ea38c160405160405180910390a25050505050565b600080600080610e7d61413b565b60096000878152602001908152602001600020604051806080016040529081600082015481526020016001820160009054906101000a900473ffffffffffffffffffffffffffffffffffffffff1673ffffffffffffffffffffffffffffffffffffffff1673ffffffffffffffffffffffffffffffffffffffff168152602001600282015481526020016003820160009054906101000a900460ff166007811115610f2357fe5b6007811115610f2e57fe5b81525050905080600001518160200151826040015183606001518292509450945094509450509193509193565b803373ffffffffffffffffffffffffffffffffffffffff1660056000600d600085815260200190815260200160002054815260200190815260200160002060010160009054906101000a900473ffffffffffffffffffffffffffffffffffffffff1673ffffffffffffffffffffffffffffffffffffffff1614611046576040517f08c379a000000000000000000000000000000000000000000000000000000000815260040180806020018281038252601d8152602001807f4c6f616e20626f72726f7765722073746174757320726571756972656400000081525060200191505060405180910390fd5b6000600160009054906101000a900473ffffffffffffffffffffffffffffffffffffffff1673ffffffffffffffffffffffffffffffffffffffff1663358177736040518163ffffffff1660e01b81526004018080602001828103825260098152602001807f4c6f616e546f6b656e000000000000000000000000000000000000000000000081525060200191505060206040518083038186803b1580156110ec57600080fd5b505afa158015611100573d6000803e3d6000fd5b505050506040513d602081101561111657600080fd5b81019080805190602001909291905050509050611131614187565b60056000600d60008781526020019081526020016000205481526020019081526020016000206040518060c0016040529081600082015481526020016001820160009054906101000a900473ffffffffffffffffffffffffffffffffffffffff1673ffffffffffffffffffffffffffffffffffffffff1673ffffffffffffffffffffffffffffffffffffffff1681526020016002820154815260200160038201548152602001600482015481526020016005820160009054906101000a900460ff1660078111156111fe57fe5b600781111561120957fe5b81525050905061121761413b565b60096000600a600085600001518152602001908152602001600020548152602001908152602001600020604051806080016040529081600082015481526020016001820160009054906101000a900473ffffffffffffffffffffffffffffffffffffffff1673ffffffffffffffffffffffffffffffffffffffff1673ffffffffffffffffffffffffffffffffffffffff168152602001600282015481526020016003820160009054906101000a900460ff1660078111156112d457fe5b60078111156112df57fe5b8152505090506112ed6141e1565b600c6000878152602001908152602001600020604051806080016040529081600082015481526020016001820160009054906101000a900473ffffffffffffffffffffffffffffffffffffffff1673ffffffffffffffffffffffffffffffffffffffff1673ffffffffffffffffffffffffffffffffffffffff168152602001600282015481526020016003820160009054906101000a900460ff16600781111561139357fe5b600781111561139e57fe5b815250509050600083608001518460400151019050600560078111156113c057fe5b826060015160078111156113d057fe5b14611443576040517f08c379a000000000000000000000000000000000000000000000000000000000815260040180806020018281038252601b8152602001807f4c6f616e20697320696e20616e20696e76616c6964207374617465000000000081525060200191505060405180910390fd5b808573ffffffffffffffffffffffffffffffffffffffff166370a08231336040518263ffffffff1660e01b8152600401808273ffffffffffffffffffffffffffffffffffffffff1673ffffffffffffffffffffffffffffffffffffffff16815260200191505060206040518083038186803b1580156114c157600080fd5b505afa1580156114d5573d6000803e3d6000fd5b505050506040513d60208110156114eb57600080fd5b81019080805190602001909291905050501015611553576040517f08c379a000000000000000000000000000000000000000000000000000000000815260040180806020018281038252602f81526020018061432a602f913960400191505060405180910390fd5b6115628460000151600461408a565b61156d8760046140c5565b61157c83600001516004614100565b6000836040015185604001510190506000836040015186604001510190508673ffffffffffffffffffffffffffffffffffffffff166323b872dd876020015130866040518463ffffffff1660e01b8152600401808473ffffffffffffffffffffffffffffffffffffffff1673ffffffffffffffffffffffffffffffffffffffff1681526020018373ffffffffffffffffffffffffffffffffffffffff1673ffffffffffffffffffffffffffffffffffffffff1681526020018281526020019350505050602060405180830381600087803b15801561165957600080fd5b505af115801561166d573d6000803e3d6000fd5b505050506040513d602081101561168357600080fd5b81019080805190602001909291905050506116e9576040517f08c379a000000000000000000000000000000000000000000000000000000000815260040180806020018281038252603a8152602001806142f0603a913960400191505060405180910390fd5b8673ffffffffffffffffffffffffffffffffffffffff1663095ea7b330856040518363ffffffff1660e01b8152600401808373ffffffffffffffffffffffffffffffffffffffff1673ffffffffffffffffffffffffffffffffffffffff16815260200182815260200192505050602060405180830381600087803b15801561177057600080fd5b505af1158015611784573d6000803e3d6000fd5b505050506040513d602081101561179a57600080fd5b8101908080519060200190929190505050611800576040517f08c379a000000000000000000000000000000000000000000000000000000000815260040180806020018281038252604a815260200180614262604a913960600191505060405180910390fd5b8673ffffffffffffffffffffffffffffffffffffffff1663a9059cbb8560200151836040518363ffffffff1660e01b8152600401808373ffffffffffffffffffffffffffffffffffffffff1673ffffffffffffffffffffffffffffffffffffffff16815260200182815260200192505050602060405180830381600087803b15801561188b57600080fd5b505af115801561189f573d6000803e3d6000fd5b505050506040513d60208110156118b557600080fd5b810190808051906020019092919050505061191b576040517f08c379a000000000000000000000000000000000000000000000000000000000815260040180806020018281038252602c8152602001806143f7602c913960400191505060405180910390fd5b8673ffffffffffffffffffffffffffffffffffffffff1663a9059cbb8660200151846040518363ffffffff1660e01b8152600401808373ffffffffffffffffffffffffffffffffffffffff1673ffffffffffffffffffffffffffffffffffffffff16815260200182815260200192505050602060405180830381600087803b1580156119a657600080fd5b505af11580156119ba573d6000803e3d6000fd5b505050506040513d60208110156119d057600080fd5b8101908080519060200190929190505050611a36576040517f08c379a00000000000000000000000000000000000000000000000000000000081526004018080602001828103825260348152602001806144996034913960400191505060405180910390fd5b7f1062e18f9d21decf38f145fc9b437cd2c70e09252a729f9830b75ffdaaf3789460405160405180910390a1505050505050505050565b600060076000838152602001908152602001600020549050919050565b803373ffffffffffffffffffffffffffffffffffffffff16600c600083815260200190815260200160002060010160009054906101000a900473ffffffffffffffffffffffffffffffffffffffff1673ffffffffffffffffffffffffffffffffffffffff1614611b62576040517f08c379a000000000000000000000000000000000000000000000000000000000815260040180806020018281038252601b8152602001807f4c6f616e206c656e64657220737461747573207265717569726564000000000081525060200191505060405180910390fd5b611b6a614187565b60056000600d60008681526020019081526020016000205481526020019081526020016000206040518060c0016040529081600082015481526020016001820160009054906101000a900473ffffffffffffffffffffffffffffffffffffffff1673ffffffffffffffffffffffffffffffffffffffff1673ffffffffffffffffffffffffffffffffffffffff1681526020016002820154815260200160038201548152602001600482015481526020016005820160009054906101000a900460ff166007811115611c3757fe5b6007811115611c4257fe5b815250509050611c506141e1565b600c6000858152602001908152602001600020604051806080016040529081600082015481526020016001820160009054906101000a900473ffffffffffffffffffffffffffffffffffffffff1673ffffffffffffffffffffffffffffffffffffffff1673ffffffffffffffffffffffffffffffffffffffff168152602001600282015481526020016003820160009054906101000a900460ff166007811115611cf657fe5b6007811115611d0157fe5b81525050905060056007811115611d1457fe5b81606001516007811115611d2457fe5b14611d97576040517f08c379a000000000000000000000000000000000000000000000000000000000815260040180806020018281038252601b8152602001807f4c6f616e20697320696e20616e20696e76616c6964207374617465000000000081525060200191505060405180910390fd5b43826060015110611df3576040517f08c379a000000000000000000000000000000000000000000000000000000000815260040180806020018281038252602e815260200180614447602e913960400191505060405180910390fd5b611e028260000151600761408a565b611e0d8460076140c5565b611e4560096000600a600086600001518152602001908152602001600020548152602001908152602001600020600001546006614100565b600160009054906101000a900473ffffffffffffffffffffffffffffffffffffffff1673ffffffffffffffffffffffffffffffffffffffff1663358177736040518163ffffffff1660e01b81526004018080602001828103825260098152602001807f4c6f616e546f6b656e000000000000000000000000000000000000000000000081525060200191505060206040518083038186803b158015611ee957600080fd5b505afa158015611efd573d6000803e3d6000fd5b505050506040513d6020811015611f1357600080fd5b810190808051906020019092919050505073ffffffffffffffffffffffffffffffffffffffff1663a9059cbb826020015184604001516040518363ffffffff1660e01b8152600401808373ffffffffffffffffffffffffffffffffffffffff1673ffffffffffffffffffffffffffffffffffffffff16815260200182815260200192505050602060405180830381600087803b158015611fb257600080fd5b505af1158015611fc6573d6000803e3d6000fd5b505050506040513d6020811015611fdc57600080fd5b8101908080519060200190929190505050612042576040517f08c379a00000000000000000000000000000000000000000000000000000000081526004018080602001828103825260338152602001806143926033913960400191505060405180910390fd5b7f32201d53463db138c2850d650e23284c15f4ad63a8574e3061ab18252adf622060405160405180910390a150505050565b606060038054806020026020016040519081016040528092919081815260200182805480156120c257602002820191906000526020600020905b8154815260200190600101908083116120ae575b5050505050905090565b600160009054906101000a900473ffffffffffffffffffffffffffffffffffffffff1681565b6060600b60008373ffffffffffffffffffffffffffffffffffffffff1673ffffffffffffffffffffffffffffffffffffffff16815260200190815260200160002080548060200260200160405190810160405280929190818152602001828054801561217d57602002820191906000526020600020905b815481526020019060010190808311612169575b50505050509050919050565b606060028054806020026020016040519081016040528092919081815260200182805480156121d757602002820191906000526020600020905b8154815260200190600101908083116121c3575b5050505050905090565b6000806000806121ef6141e1565b600c6000878152602001908152602001600020604051806080016040529081600082015481526020016001820160009054906101000a900473ffffffffffffffffffffffffffffffffffffffff1673ffffffffffffffffffffffffffffffffffffffff1673ffffffffffffffffffffffffffffffffffffffff168152602001600282015481526020016003820160009054906101000a900460ff16600781111561229557fe5b60078111156122a057fe5b81525050905080600001518160200151826040015183606001518292509450945094509450509193509193565b6000806000806000806122de614187565b60056000600d60008b81526020019081526020016000205481526020019081526020016000206040518060c0016040529081600082015481526020016001820160009054906101000a900473ffffffffffffffffffffffffffffffffffffffff1673ffffffffffffffffffffffffffffffffffffffff1673ffffffffffffffffffffffffffffffffffffffff1681526020016002820154815260200160038201548152602001600482015481526020016005820160009054906101000a900460ff1660078111156123ab57fe5b60078111156123b657fe5b815250509050806000015181602001518260400151836060015184608001518560a001518494509650965096509650965096505091939550919395565b6060600480548060200260200160405190810160405280929190818152602001828054801561244157602002820191906000526020600020905b81548152602001906001019080831161242d575b5050505050905090565b803373ffffffffffffffffffffffffffffffffffffffff166005600083815260200190815260200160002060010160009054906101000a900473ffffffffffffffffffffffffffffffffffffffff1673ffffffffffffffffffffffffffffffffffffffff1614612523576040517f08c379a00000000000000000000000000000000000000000000000000000000081526004018080602001828103825260208152602001807f5265717565737420626f72726f7765722073746174757320726571756972656481525060200191505060405180910390fd5b6001600781111561253057fe5b6005600084815260200190815260200160002060050160009054906101000a900460ff16600781111561255f57fe5b146125d2576040517f08c379a000000000000000000000000000000000000000000000000000000000815260040180806020018281038252601e8152602001807f5265717565737420697320696e20616e20696e76616c6964207374617465000081525060200191505060405180910390fd5b60016008600084815260200190815260200160002060006101000a81548160ff02191690831515021790555061260982600261408a565b612627600a6000848152602001908152602001600020546005614100565b7fa3a0394209f1dedfaaf7d898958a2c5c9c72846f285f0695bf592e822bb2495d60405160405180910390a15050565b60011515600160009054906101000a900473ffffffffffffffffffffffffffffffffffffffff1673ffffffffffffffffffffffffffffffffffffffff1663358177736040518163ffffffff1660e01b81526004018080602001828103825260108152602001807f47756172616e746f724d616e616765720000000000000000000000000000000081525060200191505060206040518083038186803b1580156126ff57600080fd5b505afa158015612713573d6000803e3d6000fd5b505050506040513d602081101561272957600080fd5b810190808051906020019092919050505073ffffffffffffffffffffffffffffffffffffffff1663a1686c17336040518263ffffffff1660e01b8152600401808273ffffffffffffffffffffffffffffffffffffffff1673ffffffffffffffffffffffffffffffffffffffff16815260200191505060206040518083038186803b1580156127b657600080fd5b505afa1580156127ca573d6000803e3d6000fd5b505050506040513d60208110156127e057600080fd5b8101908080519060200190929190505050151514612866576040517f08c379a00000000000000000000000000000000000000000000000000000000081526004018080602001828103825260198152602001807f47756172616e746f72207374617475732072657175697265640000000000000081525060200191505060405180910390fd5b61286e614187565b600560008481526020019081526020016000206040518060c0016040529081600082015481526020016001820160009054906101000a900473ffffffffffffffffffffffffffffffffffffffff1673ffffffffffffffffffffffffffffffffffffffff1673ffffffffffffffffffffffffffffffffffffffff1681526020016002820154815260200160038201548152602001600482015481526020016005820160009054906101000a900460ff16600781111561292857fe5b600781111561293357fe5b8152505090506000600781111561294657fe5b8160a00151600781111561295657fe5b146129c9576040517f08c379a000000000000000000000000000000000000000000000000000000000815260040180806020018281038252601e8152602001807f5265717565737420697320696e20616e20696e76616c6964207374617465000081525060200191505060405180910390fd5b8060800151821115612a26576040517f08c379a00000000000000000000000000000000000000000000000000000000081526004018080602001828103825260398152602001806143596039913960400191505060405180910390fd5b8060400151600160009054906101000a900473ffffffffffffffffffffffffffffffffffffffff1673ffffffffffffffffffffffffffffffffffffffff1663358177736040518163ffffffff1660e01b81526004018080602001828103825260098152602001807f4c6f616e546f6b656e000000000000000000000000000000000000000000000081525060200191505060206040518083038186803b158015612acf57600080fd5b505afa158015612ae3573d6000803e3d6000fd5b505050506040513d6020811015612af957600080fd5b810190808051906020019092919050505073ffffffffffffffffffffffffffffffffffffffff166370a08231336040518263ffffffff1660e01b8152600401808273ffffffffffffffffffffffffffffffffffffffff1673ffffffffffffffffffffffffffffffffffffffff16815260200191505060206040518083038186803b158015612b8657600080fd5b505afa158015612b9a573d6000803e3d6000fd5b505050506040513d6020811015612bb057600080fd5b81019080805190602001909291905050501015612c18576040517f08c379a000000000000000000000000000000000000000000000000000000000815260040180806020018281038252603481526020018061422e6034913960400191505060405180910390fd5b6000338342604051602001808473ffffffffffffffffffffffffffffffffffffffff1673ffffffffffffffffffffffffffffffffffffffff1660601b81526014018381526020018281526020019350505050604051602081830303815290604052805190602001209050612c8a61413b565b60405180608001604052808381526020013373ffffffffffffffffffffffffffffffffffffffff16815260200185815260200160016007811115612cca57fe5b8152509050612cda85600161408a565b600160009054906101000a900473ffffffffffffffffffffffffffffffffffffffff1673ffffffffffffffffffffffffffffffffffffffff1663358177736040518163ffffffff1660e01b81526004018080602001828103825260098152602001807f4c6f616e546f6b656e000000000000000000000000000000000000000000000081525060200191505060206040518083038186803b158015612d7e57600080fd5b505afa158015612d92573d6000803e3d6000fd5b505050506040513d6020811015612da857600080fd5b810190808051906020019092919050505073ffffffffffffffffffffffffffffffffffffffff166323b872dd333086604001516040518463ffffffff1660e01b8152600401808473ffffffffffffffffffffffffffffffffffffffff1673ffffffffffffffffffffffffffffffffffffffff1681526020018373ffffffffffffffffffffffffffffffffffffffff1673ffffffffffffffffffffffffffffffffffffffff1681526020018281526020019350505050602060405180830381600087803b158015612e7757600080fd5b505af1158015612e8b573d6000803e3d6000fd5b505050506040513d6020811015612ea157600080fd5b8101908080519060200190929190505050612f07576040517f08c379a000000000000000000000000000000000000000000000000000000000815260040180806020018281038252603a8152602001806142f0603a913960400191505060405180910390fd5b80600960008481526020019081526020016000206000820151816000015560208201518160010160006101000a81548173ffffffffffffffffffffffffffffffffffffffff021916908373ffffffffffffffffffffffffffffffffffffffff1602179055506040820151816002015560608201518160030160006101000a81548160ff02191690836007811115612f9a57fe5b0217905550905050600b60003373ffffffffffffffffffffffffffffffffffffffff1673ffffffffffffffffffffffffffffffffffffffff16815260200190815260200160002082908060018154018082558091505090600182039060005260206000200160009091929091909150555081600a6000878152602001908152602001600020819055506003829080600181540180825580915050906001820390600052602060002001600090919290919091505550817ffdf7e48822fdd4183cf5aec6e7720de81fe8a0a5173f24f8fbd58777bbcf277060405160405180910390a25050505050565b6060600660008373ffffffffffffffffffffffffffffffffffffffff1673ffffffffffffffffffffffffffffffffffffffff16815260200190815260200160002080548060200260200160405190810160405280929190818152602001828054801561310e57602002820191906000526020600020905b8154815260200190600101908083116130fa575b50505050509050919050565b803373ffffffffffffffffffffffffffffffffffffffff1660096000600a600085815260200190815260200160002054815260200190815260200160002060010160009054906101000a900473ffffffffffffffffffffffffffffffffffffffff1673ffffffffffffffffffffffffffffffffffffffff161415613206576040517f08c379a000000000000000000000000000000000000000000000000000000000815260040180806020018281038252601a8152602001807f4c656e6465722063616e6e6f742062652067756172616e746f7200000000000081525060200191505060405180910390fd5b61320e614187565b600560008481526020019081526020016000206040518060c0016040529081600082015481526020016001820160009054906101000a900473ffffffffffffffffffffffffffffffffffffffff1673ffffffffffffffffffffffffffffffffffffffff1673ffffffffffffffffffffffffffffffffffffffff1681526020016002820154815260200160038201548152602001600482015481526020016005820160009054906101000a900460ff1660078111156132c857fe5b60078111156132d357fe5b8152505090506000600160009054906101000a900473ffffffffffffffffffffffffffffffffffffffff1673ffffffffffffffffffffffffffffffffffffffff1663358177736040518163ffffffff1660e01b81526004018080602001828103825260098152602001807f4c6f616e546f6b656e000000000000000000000000000000000000000000000081525060200191505060206040518083038186803b15801561337f57600080fd5b505afa158015613393573d6000803e3d6000fd5b505050506040513d60208110156133a957600080fd5b81019080805190602001909291905050509050600260078111156133c957fe5b8260a0015160078111156133d957fe5b1461344c576040517f08c379a000000000000000000000000000000000000000000000000000000000815260040180806020018281038252601e8152602001807f5265717565737420697320696e20616e20696e76616c6964207374617465000081525060200191505060405180910390fd5b81604001518173ffffffffffffffffffffffffffffffffffffffff166370a08231336040518263ffffffff1660e01b8152600401808273ffffffffffffffffffffffffffffffffffffffff1673ffffffffffffffffffffffffffffffffffffffff16815260200191505060206040518083038186803b1580156134ce57600080fd5b505afa1580156134e2573d6000803e3d6000fd5b505050506040513d60208110156134f857600080fd5b81019080805190602001909291905050501015613560576040517f08c379a00000000000000000000000000000000000000000000000000000000081526004018080602001828103825260328152602001806143c56032913960400191505060405180910390fd5b61356b84600561408a565b8073ffffffffffffffffffffffffffffffffffffffff166323b872dd33846020015185604001516040518463ffffffff1660e01b8152600401808473ffffffffffffffffffffffffffffffffffffffff1673ffffffffffffffffffffffffffffffffffffffff1681526020018373ffffffffffffffffffffffffffffffffffffffff1673ffffffffffffffffffffffffffffffffffffffff1681526020018281526020019350505050602060405180830381600087803b15801561362e57600080fd5b505af1158015613642573d6000803e3d6000fd5b505050506040513d602081101561365857600080fd5b81019080805190602001909291905050506136be576040517f08c379a00000000000000000000000000000000000000000000000000000000081526004018080602001828103825260298152602001806145156029913960400191505060405180910390fd5b60003342604051602001808373ffffffffffffffffffffffffffffffffffffffff1673ffffffffffffffffffffffffffffffffffffffff1660601b815260140182815260200192505050604051602081830303815290604052805190602001209050600060096000600a600089815260200190815260200160002054815260200190815260200160002060020154846080015103905061375c6141e1565b60405180608001604052808481526020013373ffffffffffffffffffffffffffffffffffffffff1681526020018381526020016005600781111561379c57fe5b815250905080600c60008581526020019081526020016000206000820151816000015560208201518160010160006101000a81548173ffffffffffffffffffffffffffffffffffffffff021916908373ffffffffffffffffffffffffffffffffffffffff1602179055506040820151816002015560608201518160030160006101000a81548160ff0219169083600781111561383457fe5b0217905550905050600e60003373ffffffffffffffffffffffffffffffffffffffff1673ffffffffffffffffffffffffffffffffffffffff16815260200190815260200160002083908060018154018082558091505090600182039060005260206000200160009091929091909150555082600760008981526020019081526020016000208190555086600d6000858152602001908152602001600020819055506004839080600181540180825580915050906001820390600052602060002001600090919290919091505550827f3a3d21bc89e6f454f03053f56f01fa8518bee5cd9378f27170533f60dd4e305e60405160405180910390a250505050505050565b6060600e60008373ffffffffffffffffffffffffffffffffffffffff1673ffffffffffffffffffffffffffffffffffffffff1681526020019081526020016000208054806020026020016040519081016040528092919081815260200182805480156139c257602002820191906000526020600020905b8154815260200190600101908083116139ae575b50505050509050919050565b6000809054906101000a900473ffffffffffffffffffffffffffffffffffffffff1681565b600080600080600080613a04614187565b600560008981526020019081526020016000206040518060c0016040529081600082015481526020016001820160009054906101000a900473ffffffffffffffffffffffffffffffffffffffff1673ffffffffffffffffffffffffffffffffffffffff1673ffffffffffffffffffffffffffffffffffffffff1681526020016002820154815260200160038201548152602001600482015481526020016005820160009054906101000a900460ff166007811115613abe57fe5b6007811115613ac957fe5b815250509050806000015181602001518260400151836060015184608001518560a001518494509650965096509650965096505091939550919395565b803373ffffffffffffffffffffffffffffffffffffffff166005600083815260200190815260200160002060010160009054906101000a900473ffffffffffffffffffffffffffffffffffffffff1673ffffffffffffffffffffffffffffffffffffffff1614613bde576040517f08c379a00000000000000000000000000000000000000000000000000000000081526004018080602001828103825260208152602001807f5265717565737420626f72726f7765722073746174757320726571756972656481525060200191505060405180910390fd5b60016007811115613beb57fe5b6005600084815260200190815260200160002060050160009054906101000a900460ff166007811115613c1a57fe5b14613c8d576040517f08c379a000000000000000000000000000000000000000000000000000000000815260040180806020018281038252601e8152602001807f5265717565737420697320696e20616e20696e76616c6964207374617465000081525060200191505060405180910390fd5b613c95614187565b600560008481526020019081526020016000206040518060c0016040529081600082015481526020016001820160009054906101000a900473ffffffffffffffffffffffffffffffffffffffff1673ffffffffffffffffffffffffffffffffffffffff1673ffffffffffffffffffffffffffffffffffffffff1681526020016002820154815260200160038201548152602001600482015481526020016005820160009054906101000a900460ff166007811115613d4f57fe5b6007811115613d5a57fe5b815250509050613d6861413b565b60096000600a6000878152602001908152602001600020548152602001908152602001600020604051806080016040529081600082015481526020016001820160009054906101000a900473ffffffffffffffffffffffffffffffffffffffff1673ffffffffffffffffffffffffffffffffffffffff1673ffffffffffffffffffffffffffffffffffffffff168152602001600282015481526020016003820160009054906101000a900460ff166007811115613e2157fe5b6007811115613e2c57fe5b815250509050613e3d84600361408a565b613e5b600a6000868152602001908152602001600020546003614100565b600160009054906101000a900473ffffffffffffffffffffffffffffffffffffffff1673ffffffffffffffffffffffffffffffffffffffff1663358177736040518163ffffffff1660e01b81526004018080602001828103825260098152602001807f4c6f616e546f6b656e000000000000000000000000000000000000000000000081525060200191505060206040518083038186803b158015613eff57600080fd5b505afa158015613f13573d6000803e3d6000fd5b505050506040513d6020811015613f2957600080fd5b810190808051906020019092919050505073ffffffffffffffffffffffffffffffffffffffff1663a9059cbb826020015184604001516040518363ffffffff1660e01b8152600401808373ffffffffffffffffffffffffffffffffffffffff1673ffffffffffffffffffffffffffffffffffffffff16815260200182815260200192505050602060405180830381600087803b158015613fc857600080fd5b505af1158015613fdc573d6000803e3d6000fd5b505050506040513d6020811015613ff257600080fd5b8101908080519060200190929190505050614058576040517f08c379a00000000000000000000000000000000000000000000000000000000081526004018080602001828103825260448152602001806142ac6044913960600191505060405180910390fd5b7f9fb965c6d07b3561442d308d75466609321843ceaf3e97321b29167b9e7d222b60405160405180910390a150505050565b806005600084815260200190815260200160002060050160006101000a81548160ff021916908360078111156140bc57fe5b02179055505050565b80600c600084815260200190815260200160002060030160006101000a81548160ff021916908360078111156140f757fe5b02179055505050565b806009600084815260200190815260200160002060030160006101000a81548160ff0219169083600781111561413257fe5b02179055505050565b604051806080016040528060008019168152602001600073ffffffffffffffffffffffffffffffffffffffff168152602001600081526020016000600781111561418157fe5b81525090565b6040518060c0016040528060008019168152602001600073ffffffffffffffffffffffffffffffffffffffff168152602001600081526020016000815260200160008152602001600060078111156141db57fe5b81525090565b604051806080016040528060008019168152602001600073ffffffffffffffffffffffffffffffffffffffff168152602001600081526020016000600781111561422757fe5b8152509056fe596f7520646f206e6f74206861766520656e6f75676820746f6b656e7320746f2067756172616e7465652074686973206c6f616e4572726f72206f636375726564207768696c6520617070726f76696e6720616d6f756e7420746f206265207370656e7420627920636f6e74726163742066726f6d20626f72726f776572416e206572726f72206f636375726564207768696c65207472616e73666572696e6720746f6b656e732066726f6d20636f6e747261637420746f2067756172616e746f724572726f72206f636375726564207768696c65207769746864726177696e6720746f6b656e732066726f6d206d6573736167652073656e646572596f7520646f206e6f74206861766520656e6f75676820746f6b656e7320746f20726570617920746865206c6f616e496e7465726573742073686f756c64206265206c657373207468616e20696e746572657374206f66666572656420627920626f72726f7765724572726f72206f636375726564207768696c65207472616e73666572696e672067756172616e74656520746f206c656e646572596f7520646f206e6f74206861766520656e6f75676820746f6b656e7320746f2070726f766964652074686973206c6f616e4572726f72206f636375726564207768696c652073656e64696e6720746f6b656e7320746f206c656e6465724c6f616e20616d6f756e742073686f756c642062652067726561746572207468616e203054696d652073746970756c61746564206279206c6f616e207265717565737420686173206e6f7420706173736564506c65617365207573652074686520636f72726563742066756e6374696f6e206e616d654572726f72206f636375726564207768696c652073656e64696e6720746f6b656e73206261636b20746f2067756172616e746f7244617465206279207768696368206c6f616e2073686f756c642062652070616964206d7573742062652067726561746572207468616e207468652063757272656e7420626c6f636b416e206572726f72206f636375726564207768696c65207472616e73666572696e6720746f6b656e73a265627a7a7231582076108f77c08cf0cd625b5ca799f844094904f2aea42d81f0183c03b6b84e4dfd64736f6c634300050c0032",
  "source": "pragma solidity ^0.5.11;\r\n\r\nimport './ContractRegistry.sol';\r\nimport './LoanToken.sol';\r\nimport './GuarantorManager.sol';\r\n\r\ncontract LoanManager{\r\n\r\n    // Contract properties\r\n    address public administrator;\r\n    ContractRegistry public registry;\r\n    bytes32[] private requests;\r\n    bytes32[] private guarantees;\r\n    bytes32[] private loans;\r\n\r\n    // Mappings\r\n    mapping(bytes32 => Request) private requestsMappedToId;         // Id => Request\r\n    mapping(address => bytes32[]) private borrowerRequests;         // Borrower => Requests\r\n    mapping(bytes32 => bytes32) private loansMappedToRequests;      // Request => Loan\r\n    mapping(bytes32 => bool) private requestGuaranteeSubmitted;     // Request => bool\r\n\r\n    mapping(bytes32 => Guarantee) private guaranteesMappedToId;     // Id => Guarantee\r\n    mapping(bytes32 => bytes32) private guaranteesMappedToRequests; // Request => Guarantee\r\n    mapping(address => bytes32[]) private guarantorGuarantees;      // Guarantor => Guarantees\r\n\r\n    mapping(bytes32 => Loan) private loansMappedToId;               // Id => Loan\r\n    mapping(bytes32 => bytes32) private requestsMappedToLoans;      // Loan => Request\r\n    mapping(address => bytes32[]) private lenderLoans;              // Lender => Loans\r\n\r\n    // Events\r\n    event RequestSubmitted(\r\n        bytes32 indexed _requestId\r\n    );\r\n    event GuaranteeSubmitted(\r\n        bytes32 indexed _guaranteeId\r\n    );\r\n    event GuaranteeAccepted();\r\n    event GuaranteeDeclined();\r\n    event LoanSubmitted(\r\n        bytes32 indexed _loanId\r\n    );\r\n    event LoanRepaid();\r\n    event GuaranteeWithdrawn();\r\n\r\n    // Structures and enums\r\n    struct Request{\r\n        bytes32 id;\r\n        address payable borrower;\r\n        uint256 amount;\r\n        uint256 payUntil;\r\n        uint256 interest;\r\n        States state;\r\n    }\r\n    struct Guarantee{\r\n        bytes32 id;\r\n        address payable guarantor;\r\n        uint256 interest;\r\n        States state;\r\n    }\r\n    struct Loan{\r\n        bytes32 id;\r\n        address payable lender;\r\n        uint256 interest;\r\n        States state;\r\n    }\r\n    enum States{\r\n        AwaitingGuarantee,          // 0\r\n        AwaitingGuaranteeApproval,  // 1\r\n        AwaitingLoan,               // 2\r\n        Cancelled,                  // 3\r\n        Completed,                  // 4\r\n        AwaitingPayment,            // 5\r\n        GuaranteeWithdrawn,         // 6\r\n        Overdue                     // 7\r\n    }\r\n\r\n    // Contract constructor\r\n    constructor(ContractRegistry _registry) public {\r\n        administrator = msg.sender;\r\n        registry = _registry;\r\n    }\r\n\r\n    /* Function to submit a request for a loan\r\n    Parameters:\r\n        uint256 _amount - amount of tokens needed for the loan\r\n        uint256 _payUntil - unix timestamp of by when the loan is to be paid\r\n        uint256 _interest - interest that will be paid by the borrower\r\n    */\r\n    function submitRequest(uint256 _amount, uint256 _payUntil, uint256 _interest) public {\r\n        // Check request parameters - Loan amount should be more than 0 and date by which loan is to be paid should be greater than current timestamp\r\n        require(_amount > 0, 'Loan amount should be greater than 0');\r\n        require(_payUntil > block.number,\r\n            'Date by which loan should be paid must be greater than the current block');\r\n\r\n        // Create the request object\r\n        bytes32 id = keccak256(abi.encodePacked(msg.sender, _amount, _payUntil, _interest, now));\r\n        Request memory request = Request(id, msg.sender, _amount, _payUntil, _interest, States.AwaitingGuarantee);\r\n\r\n        // Store request\r\n        requestsMappedToId[id] = request;\r\n        borrowerRequests[msg.sender].push(id);\r\n        requests.push(id);\r\n\r\n        // Emit event\r\n        emit RequestSubmitted(id);\r\n    }\r\n\r\n    // Function to get all requests\r\n    function getRequests() public view returns(bytes32[] memory){\r\n        return requests;\r\n    }\r\n\r\n    /* Function to get a request\r\n    Parameters:\r\n        bytes32 _requestId - id of the request to be returned\r\n    */\r\n    function getRequest(bytes32 _requestId) public view returns(bytes32, address, uint256, uint256, uint256, States){\r\n        Request memory request = requestsMappedToId[_requestId];\r\n        return (request.id, request.borrower, request.amount, request.payUntil, request.interest, request.state);\r\n    }\r\n\r\n    /* Function to get a list of requests for a borrower address\r\n    Parameters:\r\n        address _borrower - the address of the borrower's requests that will be returned\r\n    */\r\n    function getBorrowerRequests(address _borrower) public view returns(bytes32[] memory){\r\n        return borrowerRequests[_borrower];\r\n    }\r\n\r\n    /* Function to get the loan of the passed request\r\n    Parameters:\r\n        bytes32 _requestId - id of the request whose loan is the be returned\r\n    */\r\n    function getRequestLoan(bytes32 _requestId) public view returns(bytes32){\r\n        return loansMappedToRequests[_requestId];\r\n    }\r\n\r\n    /* Function to place guarantee on a loan\r\n    Parameters:\r\n        bytes32 _requestId - id of the request that the guarantor wants to guarantee\r\n        uint256 _interestRequest - the amount of interest the guarantor is expecting\r\n    */\r\n    function submitGuarantee(bytes32 _requestId, uint256 _interestRequest) public RequireGuarantorStatus {\r\n        Request memory request = requestsMappedToId[_requestId];\r\n\r\n        // Check request parameters - Interest should be less than that specified in request and guarantor should have enough tokens\r\n        require(request.state == States.AwaitingGuarantee, 'Request is in an invalid state');\r\n        require(_interestRequest <= request.interest, 'Interest should be less than interest offered by borrower');\r\n        require(LoanToken(registry.getContract('LoanToken')).balanceOf(msg.sender) >= request.amount,\r\n            'You do not have enough tokens to guarantee this loan');\r\n\r\n\r\n        // Create the guarantee object\r\n        bytes32 id = keccak256(abi.encodePacked(msg.sender, _interestRequest, now));\r\n        Guarantee memory guarantee = Guarantee(id, msg.sender, _interestRequest, States.AwaitingGuaranteeApproval);\r\n\r\n        // Transfer tokens from guarantor to address of this contract\r\n        updateRequestState(_requestId, States.AwaitingGuaranteeApproval);\r\n        require(LoanToken(registry.getContract('LoanToken')).transferFrom(msg.sender, address(this), request.amount),\r\n            'Error occured while withdrawing tokens from message sender');\r\n\r\n        // Store guarantee\r\n        guaranteesMappedToId[id] = guarantee;\r\n        guarantorGuarantees[msg.sender].push(id);\r\n        guaranteesMappedToRequests[_requestId] = id;\r\n        guarantees.push(id);\r\n\r\n        // Emit event\r\n        emit GuaranteeSubmitted(id);\r\n    }\r\n\r\n    /* Function to get a request guarantee\r\n    Parameters:\r\n        bytes32 _requestId - id of the guarantee's request to be returned\r\n    */\r\n    function getRequestGuarantee(bytes32 _requestId) public view returns(bytes32, address, uint256, States){\r\n        Guarantee memory guarantee = guaranteesMappedToId[guaranteesMappedToRequests[_requestId]];\r\n        return (guarantee.id, guarantee.guarantor, guarantee.interest, guarantee.state);\r\n    }\r\n\r\n    // Function to get all guarantees\r\n    function getGuarantees() public view returns(bytes32[] memory){\r\n        return guarantees;\r\n    }\r\n\r\n    /* Function to get a guarantee\r\n    Parameters:\r\n        bytes32 _guaranteeId - id of the guarantee to be returned\r\n    */\r\n    function getGuarantee(bytes32 _guaranteeId) public view returns(bytes32, address, uint256, States){\r\n        Guarantee memory guarantee = guaranteesMappedToId[_guaranteeId];\r\n        return (guarantee.id, guarantee.guarantor, guarantee.interest, guarantee.state);\r\n    }\r\n\r\n    /* Function to get a list of guarantees for a guarantor address\r\n    Parameters:\r\n        address _guarantor - address of the guarantor whose guarantees need to be returned\r\n    */\r\n    function getGuarantorGuarantees(address _guarantor) public view returns(bytes32[] memory){\r\n        return guarantorGuarantees[_guarantor];\r\n    }\r\n\r\n    /* Function to accept guarantee\r\n    Parameters:\r\n        bytes32 _requestId - id of request whose guarantee needs to be accepted\r\n    */\r\n    function acceptGuarantee(bytes32 _requestId) public RequireRequestBorrowerStatus(_requestId) {\r\n        // Check request parameters - A guarantee needs to be provided for a request\r\n        require(requestsMappedToId[_requestId].state == States.AwaitingGuaranteeApproval, 'Request is in an invalid state');\r\n\r\n        // Update request and guarantee state\r\n        requestGuaranteeSubmitted[_requestId] = true;\r\n        updateRequestState(_requestId, States.AwaitingLoan);\r\n        updateGuaranteeState(guaranteesMappedToRequests[_requestId], States.AwaitingPayment);\r\n\r\n        // Emit event\r\n        emit GuaranteeAccepted();\r\n    }\r\n\r\n    /* Function to decline guarantee\r\n    Parameters:\r\n        bytes32 _requestId - id of request whose guarantee needs to be declined\r\n    */\r\n    function declineGuarantee(bytes32 _requestId) public RequireRequestBorrowerStatus(_requestId) payable{\r\n        // Check request parameters - A guarantee needs to be provided for a request\r\n        require(requestsMappedToId[_requestId].state == States.AwaitingGuaranteeApproval, 'Request is in an invalid state');\r\n\r\n        Request memory request = requestsMappedToId[_requestId];\r\n        Guarantee memory guarantee = guaranteesMappedToId[guaranteesMappedToRequests[_requestId]];\r\n\r\n        // Update request and guarantee state\r\n        updateRequestState(_requestId, States.Cancelled);\r\n        updateGuaranteeState(guaranteesMappedToRequests[_requestId], States.Cancelled);\r\n\r\n        // Send money back to guarantor\r\n        require(LoanToken(registry.getContract('LoanToken')).transfer(guarantee.guarantor, request.amount),\r\n            'An error occured while transfering tokens from contract to guarantor');\r\n\r\n        // Emit event\r\n        emit GuaranteeDeclined();\r\n    }\r\n\r\n    /* Function to accept loan request\r\n    Parameters:\r\n        bytes32 _requestId - The id of the request to approve\r\n    */\r\n    function submitLoan(bytes32 _requestId) public RequireLenderNotToBeGuarantor(_requestId) payable {\r\n        Request memory request = requestsMappedToId[_requestId];\r\n        LoanToken loanToken = LoanToken(registry.getContract('LoanToken'));\r\n\r\n        // Check request paramaters - guarantee needs to be accepted and lender needs to have enough tokens\r\n        require(request.state == States.AwaitingLoan, 'Request is in an invalid state');\r\n        require(loanToken.balanceOf(msg.sender) >= request.amount, 'You do not have enough tokens to provide this loan');\r\n\r\n        // Send tokens to borrower\r\n        updateRequestState(_requestId, States.AwaitingPayment);\r\n        require(loanToken.transferFrom(msg.sender, request.borrower, request.amount), 'An error occured while transfering tokens');\r\n\r\n        // Create the loan object\r\n        bytes32 id = keccak256(abi.encodePacked(msg.sender, now));\r\n        uint256 interest = request.interest - guaranteesMappedToId[guaranteesMappedToRequests[_requestId]].interest;\r\n        Loan memory loan = Loan(id, msg.sender, interest, States.AwaitingPayment);\r\n\r\n        // Store request\r\n        loansMappedToId[id] = loan;\r\n        lenderLoans[msg.sender].push(id);\r\n        loansMappedToRequests[_requestId] = id;\r\n        requestsMappedToLoans[id] = _requestId;\r\n        loans.push(id);\r\n\r\n        // Emit event\r\n        emit LoanSubmitted(id);\r\n    }\r\n\r\n    /* Function to get a request loan\r\n    Parameters:\r\n        bytes32 _loanId - id of the loan whose request is to be returned\r\n    */\r\n    function getLoanRequest(bytes32 _loanId) public view returns(bytes32, address, uint256, uint256, uint256, States){\r\n        Request memory request = requestsMappedToId[requestsMappedToLoans[_loanId]];\r\n        return (request.id, request.borrower, request.amount, request.payUntil, request.interest, request.state);\r\n    }\r\n\r\n    // Function to get all loans\r\n    function getLoans() public view returns(bytes32[] memory){\r\n        return loans;\r\n    }\r\n\r\n    /* Function to get a loan\r\n    Parameters:\r\n        bytes32 _loanId - id of the loan to be returned\r\n    */\r\n    function getLoan(bytes32 _loanId) public view returns(bytes32, address, uint256, States){\r\n        Loan memory loan = loansMappedToId[_loanId];\r\n        return (loan.id, loan.lender, loan.interest, loan.state);\r\n    }\r\n\r\n    /* Function to get a list of loans for a lender address\r\n    Parameters:\r\n        address _lender - address of the lender whose loans are to be returned\r\n    */\r\n    function getLenderLoans(address _lender) public view returns(bytes32[] memory){\r\n        return lenderLoans[_lender];\r\n    }\r\n\r\n    /* Function to repay loan\r\n    Parameters:\r\n        bytes32 _loanId - id of the loan the borrower is going to be paying back\r\n    */\r\n    function repayLoan(bytes32 _loanId) public RequireLoanBorrowerStatus(_loanId) payable {\r\n        LoanToken loanToken = LoanToken(registry.getContract('LoanToken'));\r\n        Request memory request = requestsMappedToId[requestsMappedToLoans[_loanId]];\r\n        Guarantee memory guarantee = guaranteesMappedToId[guaranteesMappedToRequests[request.id]];\r\n        Loan memory loan = loansMappedToId[_loanId];\r\n        uint256 totalAmount = request.amount + request.interest;\r\n\r\n        // Check request parameters - Loean needs to be provided for the request and borrower needs to have enough tokens to cover payment\r\n        require(loan.state == States.AwaitingPayment, 'Loan is in an invalid state');\r\n        require(loanToken.balanceOf(msg.sender) >= totalAmount, 'You do not have enough tokens to repay the loan');\r\n\r\n        // Update state\r\n        updateRequestState(request.id, States.Completed);\r\n        updateLoanState(_loanId, States.Completed);\r\n        updateGuaranteeState(guarantee.id, States.Completed);\r\n\r\n        // Send money back to Lender and guarantor\r\n        uint256 amountToGuarantor = request.amount + guarantee.interest;\r\n        uint256 amountToLender = request.amount + loan.interest;\r\n        require(loanToken.transferFrom(request.borrower, address(this), totalAmount),\r\n            'Error occured while withdrawing tokens from message sender');\r\n        require(loanToken.approve(address(this), totalAmount),\r\n            'Error occured while approving amount to be spent by contract from borrower');\r\n        require(loanToken.transfer(loan.lender, amountToLender), 'Error occured while sending tokens to lender');\r\n        require(loanToken.transfer(guarantee.guarantor, amountToGuarantor), 'Error occured while sending tokens back to guarantor');\r\n\r\n        // Emit event\r\n        emit LoanRepaid();\r\n    }\r\n\r\n    /* Function to withdraw guarantee\r\n    Paramaters:\r\n        bytes32 _loanId - id of the loan whose guarantee needs to be withdrawn\r\n    */\r\n    function withdrawGuarantee(bytes32 _loanId) public RequireLoanLenderStatus(_loanId) payable {\r\n        Request memory request = requestsMappedToId[requestsMappedToLoans[_loanId]];\r\n        Loan memory loan = loansMappedToId[_loanId];\r\n\r\n        // Check request parameters\r\n        require(loan.state == States.AwaitingPayment, 'Loan is in an invalid state');\r\n        require(request.payUntil < block.number, 'Time stipulated by loan request has not passed');\r\n\r\n        // Update state\r\n        updateRequestState(request.id, States.Overdue);\r\n        updateLoanState(_loanId, States.Overdue);\r\n        updateGuaranteeState(guaranteesMappedToId[guaranteesMappedToRequests[request.id]].id, States.GuaranteeWithdrawn);\r\n\r\n        // Withdraw guarantee\r\n        require(LoanToken(registry.getContract('LoanToken')).transfer(loan.lender, request.amount),\r\n            'Error occured while transfering guarantee to lender');\r\n\r\n        // Emit event\r\n        emit GuaranteeWithdrawn();\r\n    }\r\n\r\n    // Function to update request state\r\n    function updateRequestState(bytes32 _requestId, States _state) internal {\r\n        requestsMappedToId[_requestId].state = _state;\r\n    }\r\n\r\n    // Function to update guarantee state\r\n    function updateGuaranteeState(bytes32 _guaranteeId, States _state) internal {\r\n        guaranteesMappedToId[_guaranteeId].state = _state;\r\n    }\r\n\r\n    // Function to update loan state\r\n    function updateLoanState(bytes32 _loanId, States _state) internal {\r\n        loansMappedToId[_loanId].state = _state;\r\n    }\r\n\r\n    // Fallback function\r\n    function() external {\r\n        revert(\"Please use the correct function name\");\r\n    }\r\n\r\n    // Modifier to check if message sender is request borrower\r\n    modifier RequireRequestBorrowerStatus(bytes32 _requestId){\r\n        require(requestsMappedToId[_requestId].borrower == msg.sender, \"Request borrower status required\");\r\n        _;\r\n    }\r\n\r\n    // Modifier to check if message sender is loan borrower\r\n    modifier RequireLoanBorrowerStatus(bytes32 _loanId){\r\n        require(requestsMappedToId[requestsMappedToLoans[_loanId]].borrower == msg.sender, \"Loan borrower status required\");\r\n        _;\r\n    }\r\n\r\n    // Modifier to check if message sender is loan lender\r\n    modifier RequireLoanLenderStatus(bytes32 _loanId){\r\n        require(loansMappedToId[_loanId].lender == msg.sender, \"Loan lender status required\");\r\n        _;\r\n    }\r\n\r\n    // Modifier to check if message sneder is a guarantor\r\n    modifier RequireGuarantorStatus(){\r\n        require(GuarantorManager(registry.getContract('GuarantorManager')).isGuarantor(msg.sender) == true,\r\n            \"Guarantor status required\");\r\n        _;\r\n    }\r\n\r\n    // Modifier to check if loan approver is a guarantor\r\n    modifier RequireLenderNotToBeGuarantor(bytes32 _requestId){\r\n        require(guaranteesMappedToId[guaranteesMappedToRequests[_requestId]].guarantor != msg.sender, \"Lender cannot be guarantor\");\r\n        _;\r\n    }\r\n}",
  "sourcePath": "C:/Users/music/OneDrive/University/Masters/DLT5401 - Smart Contract and dAppProgramming/Assignment/Part 1/loandapp/Application/contracts/LoanManager.sol",
  "compiler": {
    "name": "solc",
    "version": "0.5.12+commit.7709ece9.Emscripten.clang"
  },
  "schemaVersion": "3.0.19",
  "updatedAt": "2020-01-22T15:34:10.995Z",
  "networkType": "ethereum",
  "devdoc": {
    "methods": {}
  },
  "userdoc": {
    "methods": {}
  }
}