{
  "contractName": "LoanTokenSale",
  "abi": [
    {
      "inputs": [
        {
          "internalType": "contract LoanToken",
          "name": "_loanToken",
          "type": "address"
        },
        {
          "internalType": "uint256",
          "name": "_tokenPrice",
          "type": "uint256"
        }
      ],
      "payable": false,
      "stateMutability": "nonpayable",
      "type": "constructor"
    },
    {
      "anonymous": false,
      "inputs": [
        {
          "indexed": true,
          "internalType": "address",
          "name": "_buyerAddress",
          "type": "address"
        },
        {
          "indexed": true,
          "internalType": "uint256",
          "name": "_amount",
          "type": "uint256"
        }
      ],
      "name": "TokensSold",
      "type": "event"
    },
    {
      "constant": true,
      "inputs": [],
      "name": "loanToken",
      "outputs": [
        {
          "internalType": "contract LoanToken",
          "name": "",
          "type": "address"
        }
      ],
      "payable": false,
      "stateMutability": "view",
      "type": "function"
    },
    {
      "constant": true,
      "inputs": [],
      "name": "tokenPrice",
      "outputs": [
        {
          "internalType": "uint256",
          "name": "",
          "type": "uint256"
        }
      ],
      "payable": false,
      "stateMutability": "view",
      "type": "function"
    },
    {
      "constant": true,
      "inputs": [],
      "name": "tokensSold",
      "outputs": [
        {
          "internalType": "uint256",
          "name": "",
          "type": "uint256"
        }
      ],
      "payable": false,
      "stateMutability": "view",
      "type": "function"
    },
    {
      "constant": false,
      "inputs": [
        {
          "internalType": "uint256",
          "name": "_amount",
          "type": "uint256"
        }
      ],
      "name": "buy",
      "outputs": [],
      "payable": true,
      "stateMutability": "payable",
      "type": "function"
    },
    {
      "constant": false,
      "inputs": [],
      "name": "DestroyContract",
      "outputs": [],
      "payable": false,
      "stateMutability": "nonpayable",
      "type": "function"
    }
  ],
  "bytecode": "0x608060405234801561001057600080fd5b50604051610a26380380610a268339818101604052604081101561003357600080fd5b810190808051906020019092919080519060200190929190505050336000806101000a81548173ffffffffffffffffffffffffffffffffffffffff021916908373ffffffffffffffffffffffffffffffffffffffff16021790555081600160006101000a81548173ffffffffffffffffffffffffffffffffffffffff021916908373ffffffffffffffffffffffffffffffffffffffff16021790555080600281905550505061093f806100e76000396000f3fe60806040526004361061004a5760003560e01c806306d378171461004f578063518ab2a8146100a65780637ff9b596146100d157806383075e3d146100fc578063d96a094a14610113575b600080fd5b34801561005b57600080fd5b50610064610141565b604051808273ffffffffffffffffffffffffffffffffffffffff1673ffffffffffffffffffffffffffffffffffffffff16815260200191505060405180910390f35b3480156100b257600080fd5b506100bb610167565b6040518082815260200191505060405180910390f35b3480156100dd57600080fd5b506100e661016d565b6040518082815260200191505060405180910390f35b34801561010857600080fd5b50610111610173565b005b61013f6004803603602081101561012957600080fd5b8101908080359060200190929190505050610485565b005b600160009054906101000a900473ffffffffffffffffffffffffffffffffffffffff1681565b60035481565b60025481565b3373ffffffffffffffffffffffffffffffffffffffff166000809054906101000a900473ffffffffffffffffffffffffffffffffffffffff1673ffffffffffffffffffffffffffffffffffffffff1614610218576040517f08c379a00000000000000000000000000000000000000000000000000000000081526004018080602001828103825260318152602001806108836031913960400191505060405180910390fd5b600160009054906101000a900473ffffffffffffffffffffffffffffffffffffffff1673ffffffffffffffffffffffffffffffffffffffff1663a9059cbb6000809054906101000a900473ffffffffffffffffffffffffffffffffffffffff16600160009054906101000a900473ffffffffffffffffffffffffffffffffffffffff1673ffffffffffffffffffffffffffffffffffffffff166370a08231306040518263ffffffff1660e01b8152600401808273ffffffffffffffffffffffffffffffffffffffff1673ffffffffffffffffffffffffffffffffffffffff16815260200191505060206040518083038186803b15801561031757600080fd5b505afa15801561032b573d6000803e3d6000fd5b505050506040513d602081101561034157600080fd5b81019080805190602001909291905050506040518363ffffffff1660e01b8152600401808373ffffffffffffffffffffffffffffffffffffffff1673ffffffffffffffffffffffffffffffffffffffff16815260200182815260200192505050602060405180830381600087803b1580156103bb57600080fd5b505af11580156103cf573d6000803e3d6000fd5b505050506040513d60208110156103e557600080fd5b810190808051906020019092919050505061044b576040517f08c379a000000000000000000000000000000000000000000000000000000000815260040180806020018281038252603881526020018061084b6038913960400191505060405180910390fd5b6000809054906101000a900473ffffffffffffffffffffffffffffffffffffffff1673ffffffffffffffffffffffffffffffffffffffff16ff5b610491600254826107aa565b34146104e8576040517f08c379a00000000000000000000000000000000000000000000000000000000081526004018080602001828103825260288152602001806108236028913960400191505060405180910390fd5b80600160009054906101000a900473ffffffffffffffffffffffffffffffffffffffff1673ffffffffffffffffffffffffffffffffffffffff166370a08231306040518263ffffffff1660e01b8152600401808273ffffffffffffffffffffffffffffffffffffffff1673ffffffffffffffffffffffffffffffffffffffff16815260200191505060206040518083038186803b15801561058857600080fd5b505afa15801561059c573d6000803e3d6000fd5b505050506040513d60208110156105b257600080fd5b8101908080519060200190929190505050101561061a576040517f08c379a00000000000000000000000000000000000000000000000000000000081526004018080602001828103825260298152602001806108e26029913960400191505060405180910390fd5b600160009054906101000a900473ffffffffffffffffffffffffffffffffffffffff1673ffffffffffffffffffffffffffffffffffffffff1663a9059cbb33836040518363ffffffff1660e01b8152600401808373ffffffffffffffffffffffffffffffffffffffff1673ffffffffffffffffffffffffffffffffffffffff16815260200182815260200192505050602060405180830381600087803b1580156106c357600080fd5b505af11580156106d7573d6000803e3d6000fd5b505050506040513d60208110156106ed57600080fd5b8101908080519060200190929190505050610753576040517f08c379a000000000000000000000000000000000000000000000000000000000815260040180806020018281038252603881526020018061084b6038913960400191505060405180910390fd5b80600360008282540192505081905550803373ffffffffffffffffffffffffffffffffffffffff167f57d61f3ccd4ccd25ec5d234d6049553a586fac134c85c98d0b0d9d5724f4e43e60405160405180910390a350565b6000808214806107c757508282838502925082816107c457fe5b04145b61081c576040517f08c379a000000000000000000000000000000000000000000000000000000000815260040180806020018281038252602e8152602001806108b4602e913960400191505060405180910390fd5b9291505056fe496e73756666696369656e74207765692076616c75652073656e742077697468206d6573736167654572726f72206f636375726564207768696c65206c6f616e207472616e736665722066756e6374696f6e2077617320657865637574696e674f6e6c792041646d696e6973747261746f7273204172652041626c6520546f2052756e20546869732046756e6374696f6e496e76616c696420706172616d65746572732070617373656420746f2066756e6374696f6e206d756c7469706c79496e73756666696369656e7420746f6b656e7320617661696c61626c6520696e20636f6e7472616374a265627a7a72315820435986a25d1df20f34a5c372ec7f1df9b37b30b18ca02f42c5292c6069738eed64736f6c634300050c0032",
  "source": "pragma solidity ^0.5.11;\r\n\r\nimport './LoanToken.sol';\r\n\r\ncontract LoanTokenSale {\r\n\r\n    // Contract properties\r\n    address payable administrator;\r\n    LoanToken public loanToken;\r\n    uint256 public tokenPrice;\r\n    uint256 public tokensSold;\r\n\r\n    // Events\r\n    event TokensSold(\r\n        address indexed _buyerAddress,\r\n        uint256 indexed _amount\r\n    );\r\n\r\n    /* Contract constructor\r\n    Params:\r\n        LoanToken _loanToken - address of LoanToken contract\r\n        uint256 _tokenPrice - Price in wei of 1 loan token\r\n    */\r\n    constructor (LoanToken _loanToken, uint256 _tokenPrice) public {\r\n        administrator = msg.sender;\r\n        loanToken = _loanToken;\r\n        tokenPrice = _tokenPrice;\r\n    }\r\n\r\n    /* Function to buy tokens\r\n    Params:\r\n        uint256 _amount - amount of tokens to buy\r\n    */\r\n    function buy(uint256 _amount) public payable {\r\n        require(msg.value == multiply(tokenPrice, _amount), 'Insufficient wei value sent with message');\r\n        require(loanToken.balanceOf(address(this)) >= _amount, 'Insufficient tokens available in contract');\r\n        require(loanToken.transfer(msg.sender, _amount), 'Error occured while loan transfer function was executing');\r\n\r\n        tokensSold += _amount;\r\n\r\n        emit TokensSold(msg.sender, _amount);\r\n    }\r\n\r\n    // Function to end the token sale\r\n    function DestroyContract() public IsAdministrator {\r\n        require(loanToken.transfer(administrator, loanToken.balanceOf(address(this))), 'Error occured while loan transfer function was executing');\r\n\r\n        selfdestruct(administrator);\r\n    }\r\n\r\n    // Function to check of message sender is the administrator\r\n    modifier IsAdministrator(){\r\n        require((administrator == msg.sender), \"Only Administrators Are Able To Run This Function\");\r\n        _;\r\n    }\r\n\r\n    function multiply(uint x, uint y) internal pure returns (uint z) {\r\n        require(y == 0 || (z = x * y) / y == x, 'Invalid parameters passed to function multiply');\r\n    }\r\n}",
  "sourcePath": "C:/Users/music/OneDrive/University/Masters/DLT5401 - Smart Contract and dAppProgramming/Assignment/Part 1/loandapp/Application/contracts/LoanTokenSale.sol",
  "compiler": {
    "name": "solc",
    "version": "0.5.12+commit.7709ece9.Emscripten.clang"
  },
  "schemaVersion": "3.0.19",
  "updatedAt": "2020-01-09T20:58:23.017Z",
  "networkType": "ethereum",
  "devdoc": {
    "methods": {}
  },
  "userdoc": {
    "methods": {}
  }
}