{
  "contractName": "LoanManager",
  "abi": [
    {
      "inputs": [
        {
          "internalType": "contract GuarantorManager",
          "name": "_guarantorManager",
          "type": "address"
        },
        {
          "internalType": "contract LoanToken",
          "name": "_loanToken",
          "type": "address"
        }
      ],
      "payable": false,
      "stateMutability": "nonpayable",
      "type": "constructor"
    },
    {
      "anonymous": false,
      "inputs": [],
      "name": "GuaranteeAccepted",
      "type": "event"
    },
    {
      "anonymous": false,
      "inputs": [],
      "name": "GuaranteeDeclined",
      "type": "event"
    },
    {
      "anonymous": false,
      "inputs": [
        {
          "indexed": true,
          "internalType": "bytes32",
          "name": "_guaranteeId",
          "type": "bytes32"
        }
      ],
      "name": "GuaranteeSubmitted",
      "type": "event"
    },
    {
      "anonymous": false,
      "inputs": [],
      "name": "GuaranteeWithdrawn",
      "type": "event"
    },
    {
      "anonymous": false,
      "inputs": [],
      "name": "LoanRepaid",
      "type": "event"
    },
    {
      "anonymous": false,
      "inputs": [
        {
          "indexed": true,
          "internalType": "bytes32",
          "name": "_loanId",
          "type": "bytes32"
        }
      ],
      "name": "LoanSubmitted",
      "type": "event"
    },
    {
      "anonymous": false,
      "inputs": [
        {
          "indexed": true,
          "internalType": "bytes32",
          "name": "_requestId",
          "type": "bytes32"
        }
      ],
      "name": "RequestSubmitted",
      "type": "event"
    },
    {
      "payable": false,
      "stateMutability": "nonpayable",
      "type": "fallback"
    },
    {
      "constant": true,
      "inputs": [],
      "name": "administrator",
      "outputs": [
        {
          "internalType": "address",
          "name": "",
          "type": "address"
        }
      ],
      "payable": false,
      "stateMutability": "view",
      "type": "function"
    },
    {
      "constant": true,
      "inputs": [],
      "name": "guarantorManager",
      "outputs": [
        {
          "internalType": "contract GuarantorManager",
          "name": "",
          "type": "address"
        }
      ],
      "payable": false,
      "stateMutability": "view",
      "type": "function"
    },
    {
      "constant": true,
      "inputs": [],
      "name": "loanToken",
      "outputs": [
        {
          "internalType": "contract LoanToken",
          "name": "",
          "type": "address"
        }
      ],
      "payable": false,
      "stateMutability": "view",
      "type": "function"
    },
    {
      "constant": false,
      "inputs": [
        {
          "internalType": "uint256",
          "name": "_amount",
          "type": "uint256"
        },
        {
          "internalType": "uint256",
          "name": "_payUntil",
          "type": "uint256"
        },
        {
          "internalType": "uint256",
          "name": "_interest",
          "type": "uint256"
        }
      ],
      "name": "submitRequest",
      "outputs": [],
      "payable": false,
      "stateMutability": "nonpayable",
      "type": "function"
    },
    {
      "constant": true,
      "inputs": [],
      "name": "getRequests",
      "outputs": [
        {
          "internalType": "bytes32[]",
          "name": "",
          "type": "bytes32[]"
        }
      ],
      "payable": false,
      "stateMutability": "view",
      "type": "function"
    },
    {
      "constant": true,
      "inputs": [
        {
          "internalType": "bytes32",
          "name": "_requestId",
          "type": "bytes32"
        }
      ],
      "name": "getRequest",
      "outputs": [
        {
          "internalType": "bytes32",
          "name": "",
          "type": "bytes32"
        },
        {
          "internalType": "address",
          "name": "",
          "type": "address"
        },
        {
          "internalType": "uint256",
          "name": "",
          "type": "uint256"
        },
        {
          "internalType": "uint256",
          "name": "",
          "type": "uint256"
        },
        {
          "internalType": "uint256",
          "name": "",
          "type": "uint256"
        },
        {
          "internalType": "enum LoanManager.States",
          "name": "",
          "type": "uint8"
        }
      ],
      "payable": false,
      "stateMutability": "view",
      "type": "function"
    },
    {
      "constant": true,
      "inputs": [
        {
          "internalType": "address",
          "name": "_borrower",
          "type": "address"
        }
      ],
      "name": "getBorrowerRequests",
      "outputs": [
        {
          "internalType": "bytes32[]",
          "name": "",
          "type": "bytes32[]"
        }
      ],
      "payable": false,
      "stateMutability": "view",
      "type": "function"
    },
    {
      "constant": false,
      "inputs": [
        {
          "internalType": "bytes32",
          "name": "_requestId",
          "type": "bytes32"
        },
        {
          "internalType": "uint256",
          "name": "_interestRequest",
          "type": "uint256"
        }
      ],
      "name": "submitGuarantee",
      "outputs": [],
      "payable": false,
      "stateMutability": "nonpayable",
      "type": "function"
    },
    {
      "constant": true,
      "inputs": [
        {
          "internalType": "bytes32",
          "name": "_requestId",
          "type": "bytes32"
        }
      ],
      "name": "getRequestGuarantee",
      "outputs": [
        {
          "internalType": "bytes32",
          "name": "",
          "type": "bytes32"
        },
        {
          "internalType": "address",
          "name": "",
          "type": "address"
        },
        {
          "internalType": "uint256",
          "name": "",
          "type": "uint256"
        },
        {
          "internalType": "enum LoanManager.States",
          "name": "",
          "type": "uint8"
        }
      ],
      "payable": false,
      "stateMutability": "view",
      "type": "function"
    },
    {
      "constant": true,
      "inputs": [],
      "name": "getGuarantees",
      "outputs": [
        {
          "internalType": "bytes32[]",
          "name": "",
          "type": "bytes32[]"
        }
      ],
      "payable": false,
      "stateMutability": "view",
      "type": "function"
    },
    {
      "constant": true,
      "inputs": [
        {
          "internalType": "bytes32",
          "name": "_guaranteeId",
          "type": "bytes32"
        }
      ],
      "name": "getGuarantee",
      "outputs": [
        {
          "internalType": "bytes32",
          "name": "",
          "type": "bytes32"
        },
        {
          "internalType": "address",
          "name": "",
          "type": "address"
        },
        {
          "internalType": "uint256",
          "name": "",
          "type": "uint256"
        },
        {
          "internalType": "enum LoanManager.States",
          "name": "",
          "type": "uint8"
        }
      ],
      "payable": false,
      "stateMutability": "view",
      "type": "function"
    },
    {
      "constant": true,
      "inputs": [
        {
          "internalType": "address",
          "name": "_guarantor",
          "type": "address"
        }
      ],
      "name": "getGuarantorGuarantees",
      "outputs": [
        {
          "internalType": "bytes32[]",
          "name": "",
          "type": "bytes32[]"
        }
      ],
      "payable": false,
      "stateMutability": "view",
      "type": "function"
    },
    {
      "constant": false,
      "inputs": [
        {
          "internalType": "bytes32",
          "name": "_requestId",
          "type": "bytes32"
        }
      ],
      "name": "acceptGuarantee",
      "outputs": [],
      "payable": false,
      "stateMutability": "nonpayable",
      "type": "function"
    },
    {
      "constant": false,
      "inputs": [
        {
          "internalType": "bytes32",
          "name": "_requestId",
          "type": "bytes32"
        }
      ],
      "name": "declineGuarantee",
      "outputs": [],
      "payable": true,
      "stateMutability": "payable",
      "type": "function"
    },
    {
      "constant": false,
      "inputs": [
        {
          "internalType": "bytes32",
          "name": "_requestId",
          "type": "bytes32"
        }
      ],
      "name": "submitLoan",
      "outputs": [],
      "payable": true,
      "stateMutability": "payable",
      "type": "function"
    },
    {
      "constant": true,
      "inputs": [
        {
          "internalType": "bytes32",
          "name": "_loanId",
          "type": "bytes32"
        }
      ],
      "name": "getLoanRequest",
      "outputs": [
        {
          "internalType": "bytes32",
          "name": "",
          "type": "bytes32"
        },
        {
          "internalType": "address",
          "name": "",
          "type": "address"
        },
        {
          "internalType": "uint256",
          "name": "",
          "type": "uint256"
        },
        {
          "internalType": "uint256",
          "name": "",
          "type": "uint256"
        },
        {
          "internalType": "uint256",
          "name": "",
          "type": "uint256"
        },
        {
          "internalType": "enum LoanManager.States",
          "name": "",
          "type": "uint8"
        }
      ],
      "payable": false,
      "stateMutability": "view",
      "type": "function"
    },
    {
      "constant": true,
      "inputs": [],
      "name": "getLoans",
      "outputs": [
        {
          "internalType": "bytes32[]",
          "name": "",
          "type": "bytes32[]"
        }
      ],
      "payable": false,
      "stateMutability": "view",
      "type": "function"
    },
    {
      "constant": true,
      "inputs": [
        {
          "internalType": "bytes32",
          "name": "_loanId",
          "type": "bytes32"
        }
      ],
      "name": "getLoan",
      "outputs": [
        {
          "internalType": "bytes32",
          "name": "",
          "type": "bytes32"
        },
        {
          "internalType": "address",
          "name": "",
          "type": "address"
        },
        {
          "internalType": "enum LoanManager.States",
          "name": "",
          "type": "uint8"
        }
      ],
      "payable": false,
      "stateMutability": "view",
      "type": "function"
    },
    {
      "constant": true,
      "inputs": [
        {
          "internalType": "address",
          "name": "_lender",
          "type": "address"
        }
      ],
      "name": "getLenderLoans",
      "outputs": [
        {
          "internalType": "bytes32[]",
          "name": "",
          "type": "bytes32[]"
        }
      ],
      "payable": false,
      "stateMutability": "view",
      "type": "function"
    },
    {
      "constant": false,
      "inputs": [
        {
          "internalType": "bytes32",
          "name": "_loanId",
          "type": "bytes32"
        }
      ],
      "name": "repayLoan",
      "outputs": [],
      "payable": true,
      "stateMutability": "payable",
      "type": "function"
    },
    {
      "constant": false,
      "inputs": [
        {
          "internalType": "bytes32",
          "name": "_loanId",
          "type": "bytes32"
        }
      ],
      "name": "withdrawGuarantee",
      "outputs": [],
      "payable": true,
      "stateMutability": "payable",
      "type": "function"
    }
  ],
  "bytecode": "0x608060405234801561001057600080fd5b50604051613ffe380380613ffe8339818101604052604081101561003357600080fd5b810190808051906020019092919080519060200190929190505050336000806101000a81548173ffffffffffffffffffffffffffffffffffffffff021916908373ffffffffffffffffffffffffffffffffffffffff16021790555081600160006101000a81548173ffffffffffffffffffffffffffffffffffffffff021916908373ffffffffffffffffffffffffffffffffffffffff16021790555080600260006101000a81548173ffffffffffffffffffffffffffffffffffffffff021916908373ffffffffffffffffffffffffffffffffffffffff1602179055505050613edd806101216000396000f3fe60806040526004361061012a5760003560e01c80638932f5f7116100ab578063d75f3e801161006f578063d75f3e80146107ca578063e9e60dba14610870578063eeeb0c171461089e578063f53d0a8e14610944578063fb1e61ca1461099b578063fbe3b3fe14610a475761012a565b80638932f5f71461059b5780639896ae7114610632578063aa4a8711146106de578063c3be5e8b1461074a578063cffa647c146107855761012a565b806341dcd028116100f257806341dcd028146103985780635e46bc8c146103ef5780636108b57a1461041d5780637fecc9a1146104895780638813ce121461052f5761012a565b806305820ec11461018857806306d37817146102265780631455b1361461027d5780633c19eb0a146102cc5780633f84210f1461036a575b34801561013657600080fd5b506040517f08c379a0000000000000000000000000000000000000000000000000000000008152600401808060200182810382526024815260200180613d876024913960400191505060405180910390fd5b34801561019457600080fd5b506101c1600480360360208110156101ab57600080fd5b8101908080359060200190929190505050610a75565b604051808581526020018473ffffffffffffffffffffffffffffffffffffffff1673ffffffffffffffffffffffffffffffffffffffff16815260200183815260200182600781111561020f57fe5b60ff16815260200194505050505060405180910390f35b34801561023257600080fd5b5061023b610b74565b604051808273ffffffffffffffffffffffffffffffffffffffff1673ffffffffffffffffffffffffffffffffffffffff16815260200191505060405180910390f35b34801561028957600080fd5b506102ca600480360360608110156102a057600080fd5b81019080803590602001909291908035906020019092919080359060200190929190505050610b9a565b005b3480156102d857600080fd5b50610305600480360360208110156102ef57600080fd5b8101908080359060200190929190505050610e96565b604051808581526020018473ffffffffffffffffffffffffffffffffffffffff1673ffffffffffffffffffffffffffffffffffffffff16815260200183815260200182600781111561035357fe5b60ff16815260200194505050505060405180910390f35b6103966004803603602081101561038057600080fd5b8101908080359060200190929190505050610f82565b005b3480156103a457600080fd5b506103ad611a2a565b604051808273ffffffffffffffffffffffffffffffffffffffff1673ffffffffffffffffffffffffffffffffffffffff16815260200191505060405180910390f35b61041b6004803603602081101561040557600080fd5b8101908080359060200190929190505050611a50565b005b34801561042957600080fd5b50610432611f48565b6040518080602001828103825283818151815260200191508051906020019060200280838360005b8381101561047557808201518184015260208101905061045a565b505050509050019250505060405180910390f35b34801561049557600080fd5b506104d8600480360360208110156104ac57600080fd5b81019080803573ffffffffffffffffffffffffffffffffffffffff169060200190929190505050611fa0565b6040518080602001828103825283818151815260200191508051906020019060200280838360005b8381101561051b578082015181840152602081019050610500565b505050509050019250505060405180910390f35b34801561053b57600080fd5b50610544612037565b6040518080602001828103825283818151815260200191508051906020019060200280838360005b8381101561058757808201518184015260208101905061056c565b505050509050019250505060405180910390f35b3480156105a757600080fd5b506105d4600480360360208110156105be57600080fd5b810190808035906020019092919050505061208f565b604051808481526020018373ffffffffffffffffffffffffffffffffffffffff1673ffffffffffffffffffffffffffffffffffffffff16815260200182600781111561061c57fe5b60ff168152602001935050505060405180910390f35b34801561063e57600080fd5b5061066b6004803603602081101561065557600080fd5b8101908080359060200190929190505050612169565b604051808781526020018673ffffffffffffffffffffffffffffffffffffffff1673ffffffffffffffffffffffffffffffffffffffff1681526020018581526020018481526020018381526020018260078111156106c557fe5b60ff168152602001965050505050505060405180910390f35b3480156106ea57600080fd5b506106f361228f565b6040518080602001828103825283818151815260200191508051906020019060200280838360005b8381101561073657808201518184015260208101905061071b565b505050509050019250505060405180910390f35b34801561075657600080fd5b506107836004803603602081101561076d57600080fd5b81019080803590602001909291905050506122e7565b005b34801561079157600080fd5b506107c8600480360360408110156107a857600080fd5b8101908080359060200190929190803590602001909291905050506124aa565b005b3480156107d657600080fd5b50610819600480360360208110156107ed57600080fd5b81019080803573ffffffffffffffffffffffffffffffffffffffff169060200190929190505050612b60565b6040518080602001828103825283818151815260200191508051906020019060200280838360005b8381101561085c578082015181840152602081019050610841565b505050509050019250505060405180910390f35b61089c6004803603602081101561088657600080fd5b8101908080359060200190929190505050612bf7565b005b3480156108aa57600080fd5b506108ed600480360360208110156108c157600080fd5b81019080803573ffffffffffffffffffffffffffffffffffffffff1690602001909291905050506132fa565b6040518080602001828103825283818151815260200191508051906020019060200280838360005b83811015610930578082015181840152602081019050610915565b505050509050019250505060405180910390f35b34801561095057600080fd5b50610959613391565b604051808273ffffffffffffffffffffffffffffffffffffffff1673ffffffffffffffffffffffffffffffffffffffff16815260200191505060405180910390f35b3480156109a757600080fd5b506109d4600480360360208110156109be57600080fd5b81019080803590602001909291905050506133b6565b604051808781526020018673ffffffffffffffffffffffffffffffffffffffff1673ffffffffffffffffffffffffffffffffffffffff168152602001858152602001848152602001838152602001826007811115610a2e57fe5b60ff168152602001965050505050505060405180910390f35b610a7360048036036020811015610a5d57600080fd5b81019080803590602001909291905050506134c9565b005b600080600080610a83613a25565b6008600060096000898152602001908152602001600020548152602001908152602001600020604051806080016040529081600082015481526020016001820160009054906101000a900473ffffffffffffffffffffffffffffffffffffffff1673ffffffffffffffffffffffffffffffffffffffff1673ffffffffffffffffffffffffffffffffffffffff168152602001600282015481526020016003820160009054906101000a900460ff166007811115610b3c57fe5b6007811115610b4757fe5b81525050905080600001518160200151826040015183606001518292509450945094509450509193509193565b600260009054906101000a900473ffffffffffffffffffffffffffffffffffffffff1681565b60008311610bf3576040517f08c379a0000000000000000000000000000000000000000000000000000000008152600401808060200182810382526024815260200180613d356024913960400191505060405180910390fd5b438211610c4b576040517f08c379a0000000000000000000000000000000000000000000000000000000008152600401808060200182810382526048815260200180613ddf6048913960600191505060405180910390fd5b60003384848442604051602001808673ffffffffffffffffffffffffffffffffffffffff1673ffffffffffffffffffffffffffffffffffffffff1660601b815260140185815260200184815260200183815260200182815260200195505050505050604051602081830303815290604052805190602001209050610ccd613a71565b6040518060c001604052808381526020013373ffffffffffffffffffffffffffffffffffffffff16815260200186815260200185815260200184815260200160006007811115610d1957fe5b815250905080600660008481526020019081526020016000206000820151816000015560208201518160010160006101000a81548173ffffffffffffffffffffffffffffffffffffffff021916908373ffffffffffffffffffffffffffffffffffffffff16021790555060408201518160020155606082015181600301556080820151816004015560a08201518160050160006101000a81548160ff02191690836007811115610dc557fe5b0217905550905050600760003373ffffffffffffffffffffffffffffffffffffffff1673ffffffffffffffffffffffffffffffffffffffff1681526020019081526020016000208290806001815401808255809150509060018203906000526020600020016000909192909190915055506003829080600181540180825580915050906001820390600052602060002001600090919290919091505550817fcc32355f12fcebc315497d46481fdeb72167df0310c874b95828a27665ea38c160405160405180910390a25050505050565b600080600080610ea4613a25565b60086000878152602001908152602001600020604051806080016040529081600082015481526020016001820160009054906101000a900473ffffffffffffffffffffffffffffffffffffffff1673ffffffffffffffffffffffffffffffffffffffff1673ffffffffffffffffffffffffffffffffffffffff168152602001600282015481526020016003820160009054906101000a900460ff166007811115610f4a57fe5b6007811115610f5557fe5b81525050905080600001518160200151826040015183606001518292509450945094509450509193509193565b803373ffffffffffffffffffffffffffffffffffffffff1660066000600c600085815260200190815260200160002054815260200190815260200160002060010160009054906101000a900473ffffffffffffffffffffffffffffffffffffffff1673ffffffffffffffffffffffffffffffffffffffff161461106d576040517f08c379a000000000000000000000000000000000000000000000000000000000815260040180806020018281038252601d8152602001807f4c6f616e20626f72726f7765722073746174757320726571756972656400000081525060200191505060405180910390fd5b611075613a71565b60066000600c60008681526020019081526020016000205481526020019081526020016000206040518060c0016040529081600082015481526020016001820160009054906101000a900473ffffffffffffffffffffffffffffffffffffffff1673ffffffffffffffffffffffffffffffffffffffff1673ffffffffffffffffffffffffffffffffffffffff1681526020016002820154815260200160038201548152602001600482015481526020016005820160009054906101000a900460ff16600781111561114257fe5b600781111561114d57fe5b81525050905061115b613a25565b600860006009600085600001518152602001908152602001600020548152602001908152602001600020604051806080016040529081600082015481526020016001820160009054906101000a900473ffffffffffffffffffffffffffffffffffffffff1673ffffffffffffffffffffffffffffffffffffffff1673ffffffffffffffffffffffffffffffffffffffff168152602001600282015481526020016003820160009054906101000a900460ff16600781111561121857fe5b600781111561122357fe5b815250509050611231613acb565b600b6000868152602001908152602001600020604051806060016040529081600082015481526020016001820160009054906101000a900473ffffffffffffffffffffffffffffffffffffffff1673ffffffffffffffffffffffffffffffffffffffff1673ffffffffffffffffffffffffffffffffffffffff1681526020016001820160149054906101000a900460ff1660078111156112cd57fe5b60078111156112d857fe5b815250509050600083608001518460400151019050600560078111156112fa57fe5b8260400151600781111561130a57fe5b14611360576040517f08c379a000000000000000000000000000000000000000000000000000000000815260040180806020018281038252602a815260200180613e50602a913960400191505060405180910390fd5b80600260009054906101000a900473ffffffffffffffffffffffffffffffffffffffff1673ffffffffffffffffffffffffffffffffffffffff166370a08231336040518263ffffffff1660e01b8152600401808273ffffffffffffffffffffffffffffffffffffffff1673ffffffffffffffffffffffffffffffffffffffff16815260200191505060206040518083038186803b15801561140057600080fd5b505afa158015611414573d6000803e3d6000fd5b505050506040513d602081101561142a57600080fd5b81019080805190602001909291905050501015611492576040517f08c379a000000000000000000000000000000000000000000000000000000000815260040180806020018281038252602f815260200180613c3c602f913960400191505060405180910390fd5b600083604001518560400151019050600084604001518660800151038660400151019050600260009054906101000a900473ffffffffffffffffffffffffffffffffffffffff1673ffffffffffffffffffffffffffffffffffffffff166323b872dd876020015130866040518463ffffffff1660e01b8152600401808473ffffffffffffffffffffffffffffffffffffffff1673ffffffffffffffffffffffffffffffffffffffff1681526020018373ffffffffffffffffffffffffffffffffffffffff1673ffffffffffffffffffffffffffffffffffffffff1681526020018281526020019350505050602060405180830381600087803b15801561159757600080fd5b505af11580156115ab573d6000803e3d6000fd5b505050506040513d60208110156115c157600080fd5b8101908080519060200190929190505050611627576040517f08c379a000000000000000000000000000000000000000000000000000000000815260040180806020018281038252603a815260200180613c02603a913960400191505060405180910390fd5b600260009054906101000a900473ffffffffffffffffffffffffffffffffffffffff1673ffffffffffffffffffffffffffffffffffffffff1663095ea7b330856040518363ffffffff1660e01b8152600401808373ffffffffffffffffffffffffffffffffffffffff1673ffffffffffffffffffffffffffffffffffffffff16815260200182815260200192505050602060405180830381600087803b1580156116d057600080fd5b505af11580156116e4573d6000803e3d6000fd5b505050506040513d60208110156116fa57600080fd5b8101908080519060200190929190505050611760576040517f08c379a000000000000000000000000000000000000000000000000000000000815260040180806020018281038252604a815260200180613b45604a913960600191505060405180910390fd5b600260009054906101000a900473ffffffffffffffffffffffffffffffffffffffff1673ffffffffffffffffffffffffffffffffffffffff1663a9059cbb8560200151836040518363ffffffff1660e01b8152600401808373ffffffffffffffffffffffffffffffffffffffff1673ffffffffffffffffffffffffffffffffffffffff16815260200182815260200192505050602060405180830381600087803b15801561180d57600080fd5b505af1158015611821573d6000803e3d6000fd5b505050506040513d602081101561183757600080fd5b810190808051906020019092919050505061189d576040517f08c379a000000000000000000000000000000000000000000000000000000000815260040180806020018281038252602c815260200180613d09602c913960400191505060405180910390fd5b600260009054906101000a900473ffffffffffffffffffffffffffffffffffffffff1673ffffffffffffffffffffffffffffffffffffffff1663a9059cbb8660200151846040518363ffffffff1660e01b8152600401808373ffffffffffffffffffffffffffffffffffffffff1673ffffffffffffffffffffffffffffffffffffffff16815260200182815260200192505050602060405180830381600087803b15801561194a57600080fd5b505af115801561195e573d6000803e3d6000fd5b505050506040513d602081101561197457600080fd5b81019080805190602001909291905050506119da576040517f08c379a0000000000000000000000000000000000000000000000000000000008152600401808060200182810382526034815260200180613dab6034913960400191505060405180910390fd5b6119e5886004613974565b6119f4856000015160046139af565b7f1062e18f9d21decf38f145fc9b437cd2c70e09252a729f9830b75ffdaaf3789460405160405180910390a15050505050505050565b600160009054906101000a900473ffffffffffffffffffffffffffffffffffffffff1681565b803373ffffffffffffffffffffffffffffffffffffffff16600b600083815260200190815260200160002060010160009054906101000a900473ffffffffffffffffffffffffffffffffffffffff1673ffffffffffffffffffffffffffffffffffffffff1614611b28576040517f08c379a000000000000000000000000000000000000000000000000000000000815260040180806020018281038252601b8152602001807f4c6f616e206c656e64657220737461747573207265717569726564000000000081525060200191505060405180910390fd5b611b30613a71565b60066000600c60008681526020019081526020016000205481526020019081526020016000206040518060c0016040529081600082015481526020016001820160009054906101000a900473ffffffffffffffffffffffffffffffffffffffff1673ffffffffffffffffffffffffffffffffffffffff1673ffffffffffffffffffffffffffffffffffffffff1681526020016002820154815260200160038201548152602001600482015481526020016005820160009054906101000a900460ff166007811115611bfd57fe5b6007811115611c0857fe5b815250509050611c16613acb565b600b6000858152602001908152602001600020604051806060016040529081600082015481526020016001820160009054906101000a900473ffffffffffffffffffffffffffffffffffffffff1673ffffffffffffffffffffffffffffffffffffffff1673ffffffffffffffffffffffffffffffffffffffff1681526020016001820160149054906101000a900460ff166007811115611cb257fe5b6007811115611cbd57fe5b81525050905060056007811115611cd057fe5b81604001516007811115611ce057fe5b14611d36576040517f08c379a000000000000000000000000000000000000000000000000000000000815260040180806020018281038252602a815260200180613e50602a913960400191505060405180910390fd5b43826060015110611d92576040517f08c379a000000000000000000000000000000000000000000000000000000000815260040180806020018281038252602e815260200180613d59602e913960400191505060405180910390fd5b600260009054906101000a900473ffffffffffffffffffffffffffffffffffffffff1673ffffffffffffffffffffffffffffffffffffffff1663a9059cbb826020015184604001516040518363ffffffff1660e01b8152600401808373ffffffffffffffffffffffffffffffffffffffff1673ffffffffffffffffffffffffffffffffffffffff16815260200182815260200192505050602060405180830381600087803b158015611e4357600080fd5b505af1158015611e57573d6000803e3d6000fd5b505050506040513d6020811015611e6d57600080fd5b8101908080519060200190929190505050611ed3576040517f08c379a0000000000000000000000000000000000000000000000000000000008152600401808060200182810382526033815260200180613ca46033913960400191505060405180910390fd5b611ede846003613974565b611f166008600060096000866000015181526020019081526020016000205481526020019081526020016000206000015460036139af565b7f32201d53463db138c2850d650e23284c15f4ad63a8574e3061ab18252adf622060405160405180910390a150505050565b60606004805480602002602001604051908101604052809291908181526020018280548015611f9657602002820191906000526020600020905b815481526020019060010190808311611f82575b5050505050905090565b6060600a60008373ffffffffffffffffffffffffffffffffffffffff1673ffffffffffffffffffffffffffffffffffffffff16815260200190815260200160002080548060200260200160405190810160405280929190818152602001828054801561202b57602002820191906000526020600020905b815481526020019060010190808311612017575b50505050509050919050565b6060600380548060200260200160405190810160405280929190818152602001828054801561208557602002820191906000526020600020905b815481526020019060010190808311612071575b5050505050905090565b600080600061209c613acb565b600b6000868152602001908152602001600020604051806060016040529081600082015481526020016001820160009054906101000a900473ffffffffffffffffffffffffffffffffffffffff1673ffffffffffffffffffffffffffffffffffffffff1673ffffffffffffffffffffffffffffffffffffffff1681526020016001820160149054906101000a900460ff16600781111561213857fe5b600781111561214357fe5b815250509050806000015181602001518260400151819150935093509350509193909250565b60008060008060008061217a613a71565b60066000600c60008b81526020019081526020016000205481526020019081526020016000206040518060c0016040529081600082015481526020016001820160009054906101000a900473ffffffffffffffffffffffffffffffffffffffff1673ffffffffffffffffffffffffffffffffffffffff1673ffffffffffffffffffffffffffffffffffffffff1681526020016002820154815260200160038201548152602001600482015481526020016005820160009054906101000a900460ff16600781111561224757fe5b600781111561225257fe5b815250509050806000015181602001518260400151836060015184608001518560a001518494509650965096509650965096505091939550919395565b606060058054806020026020016040519081016040528092919081815260200182805480156122dd57602002820191906000526020600020905b8154815260200190600101908083116122c9575b5050505050905090565b803373ffffffffffffffffffffffffffffffffffffffff166006600083815260200190815260200160002060010160009054906101000a900473ffffffffffffffffffffffffffffffffffffffff1673ffffffffffffffffffffffffffffffffffffffff16146123bf576040517f08c379a00000000000000000000000000000000000000000000000000000000081526004018080602001828103825260208152602001807f5265717565737420626f72726f7765722073746174757320726571756972656481525060200191505060405180910390fd5b600160078111156123cc57fe5b6006600084815260200190815260200160002060050160009054906101000a900460ff1660078111156123fb57fe5b14612451576040517f08c379a000000000000000000000000000000000000000000000000000000000815260040180806020018281038252602f815260200180613e7a602f913960400191505060405180910390fd5b61245c8260026139ea565b61247a600960008481526020019081526020016000205460056139af565b7fa3a0394209f1dedfaaf7d898958a2c5c9c72846f285f0695bf592e822bb2495d60405160405180910390a15050565b3373ffffffffffffffffffffffffffffffffffffffff163373ffffffffffffffffffffffffffffffffffffffff161461254b576040517f08c379a00000000000000000000000000000000000000000000000000000000081526004018080602001828103825260198152602001807f47756172616e746f72207374617475732072657175697265640000000000000081525060200191505060405180910390fd5b612553613a71565b600660008481526020019081526020016000206040518060c0016040529081600082015481526020016001820160009054906101000a900473ffffffffffffffffffffffffffffffffffffffff1673ffffffffffffffffffffffffffffffffffffffff1673ffffffffffffffffffffffffffffffffffffffff1681526020016002820154815260200160038201548152602001600482015481526020016005820160009054906101000a900460ff16600781111561260d57fe5b600781111561261857fe5b815250509050806080015182111561267b576040517f08c379a0000000000000000000000000000000000000000000000000000000008152600401808060200182810382526039815260200180613c6b6039913960400191505060405180910390fd5b8060400151600260009054906101000a900473ffffffffffffffffffffffffffffffffffffffff1673ffffffffffffffffffffffffffffffffffffffff166370a08231336040518263ffffffff1660e01b8152600401808273ffffffffffffffffffffffffffffffffffffffff1673ffffffffffffffffffffffffffffffffffffffff16815260200191505060206040518083038186803b15801561271f57600080fd5b505afa158015612733573d6000803e3d6000fd5b505050506040513d602081101561274957600080fd5b810190808051906020019092919050505010156127b1576040517f08c379a0000000000000000000000000000000000000000000000000000000008152600401808060200182810382526034815260200180613b116034913960400191505060405180910390fd5b6000338342604051602001808473ffffffffffffffffffffffffffffffffffffffff1673ffffffffffffffffffffffffffffffffffffffff1660601b81526014018381526020018281526020019350505050604051602081830303815290604052805190602001209050612823613a25565b60405180608001604052808381526020013373ffffffffffffffffffffffffffffffffffffffff1681526020018581526020016001600781111561286357fe5b8152509050600260009054906101000a900473ffffffffffffffffffffffffffffffffffffffff1673ffffffffffffffffffffffffffffffffffffffff166323b872dd333086604001516040518463ffffffff1660e01b8152600401808473ffffffffffffffffffffffffffffffffffffffff1673ffffffffffffffffffffffffffffffffffffffff1681526020018373ffffffffffffffffffffffffffffffffffffffff1673ffffffffffffffffffffffffffffffffffffffff1681526020018281526020019350505050602060405180830381600087803b15801561294957600080fd5b505af115801561295d573d6000803e3d6000fd5b505050506040513d602081101561297357600080fd5b81019080805190602001909291905050506129d9576040517f08c379a000000000000000000000000000000000000000000000000000000000815260040180806020018281038252603a815260200180613c02603a913960400191505060405180910390fd5b80600860008481526020019081526020016000206000820151816000015560208201518160010160006101000a81548173ffffffffffffffffffffffffffffffffffffffff021916908373ffffffffffffffffffffffffffffffffffffffff1602179055506040820151816002015560608201518160030160006101000a81548160ff02191690836007811115612a6c57fe5b0217905550905050600a60003373ffffffffffffffffffffffffffffffffffffffff1673ffffffffffffffffffffffffffffffffffffffff1681526020019081526020016000208290806001815401808255809150509060018203906000526020600020016000909192909190915055508160096000878152602001908152602001600020819055506004829080600181540180825580915050906001820390600052602060002001600090919290919091505550612b2c8560016139ea565b817ffdf7e48822fdd4183cf5aec6e7720de81fe8a0a5173f24f8fbd58777bbcf277060405160405180910390a25050505050565b6060600760008373ffffffffffffffffffffffffffffffffffffffff1673ffffffffffffffffffffffffffffffffffffffff168152602001908152602001600020805480602002602001604051908101604052809291908181526020018280548015612beb57602002820191906000526020600020905b815481526020019060010190808311612bd7575b50505050509050919050565b803373ffffffffffffffffffffffffffffffffffffffff16600860006009600085815260200190815260200160002054815260200190815260200160002060010160009054906101000a900473ffffffffffffffffffffffffffffffffffffffff1673ffffffffffffffffffffffffffffffffffffffff161415612ce3576040517f08c379a000000000000000000000000000000000000000000000000000000000815260040180806020018281038252601a8152602001807f4c656e6465722063616e6e6f742062652067756172616e746f7200000000000081525060200191505060405180910390fd5b612ceb613a71565b600660008481526020019081526020016000206040518060c0016040529081600082015481526020016001820160009054906101000a900473ffffffffffffffffffffffffffffffffffffffff1673ffffffffffffffffffffffffffffffffffffffff1673ffffffffffffffffffffffffffffffffffffffff1681526020016002820154815260200160038201548152602001600482015481526020016005820160009054906101000a900460ff166007811115612da557fe5b6007811115612db057fe5b81525050905060026007811115612dc357fe5b8160a001516007811115612dd357fe5b14612e29576040517f08c379a000000000000000000000000000000000000000000000000000000000815260040180806020018281038252602f815260200180613b8f602f913960400191505060405180910390fd5b8060400151600260009054906101000a900473ffffffffffffffffffffffffffffffffffffffff1673ffffffffffffffffffffffffffffffffffffffff166370a08231336040518263ffffffff1660e01b8152600401808273ffffffffffffffffffffffffffffffffffffffff1673ffffffffffffffffffffffffffffffffffffffff16815260200191505060206040518083038186803b158015612ecd57600080fd5b505afa158015612ee1573d6000803e3d6000fd5b505050506040513d6020811015612ef757600080fd5b81019080805190602001909291905050501015612f5f576040517f08c379a0000000000000000000000000000000000000000000000000000000008152600401808060200182810382526032815260200180613cd76032913960400191505060405180910390fd5b600260009054906101000a900473ffffffffffffffffffffffffffffffffffffffff1673ffffffffffffffffffffffffffffffffffffffff166323b872dd33836020015184604001516040518463ffffffff1660e01b8152600401808473ffffffffffffffffffffffffffffffffffffffff1673ffffffffffffffffffffffffffffffffffffffff1681526020018373ffffffffffffffffffffffffffffffffffffffff1673ffffffffffffffffffffffffffffffffffffffff1681526020018281526020019350505050602060405180830381600087803b15801561304457600080fd5b505af1158015613058573d6000803e3d6000fd5b505050506040513d602081101561306e57600080fd5b81019080805190602001909291905050506130d4576040517f08c379a0000000000000000000000000000000000000000000000000000000008152600401808060200182810382526029815260200180613e276029913960400191505060405180910390fd5b6130df8360046139ea565b60003342604051602001808373ffffffffffffffffffffffffffffffffffffffff1673ffffffffffffffffffffffffffffffffffffffff1660601b815260140182815260200192505050604051602081830303815290604052805190602001209050613149613acb565b60405180606001604052808381526020013373ffffffffffffffffffffffffffffffffffffffff1681526020016005600781111561318357fe5b815250905080600b60008481526020019081526020016000206000820151816000015560208201518160010160006101000a81548173ffffffffffffffffffffffffffffffffffffffff021916908373ffffffffffffffffffffffffffffffffffffffff16021790555060408201518160010160146101000a81548160ff0219169083600781111561321157fe5b0217905550905050600d60003373ffffffffffffffffffffffffffffffffffffffff1673ffffffffffffffffffffffffffffffffffffffff16815260200190815260200160002082908060018154018082558091505090600182039060005260206000200160009091929091909150555084600c6000848152602001908152602001600020819055506005829080600181540180825580915050906001820390600052602060002001600090919290919091505550817f3a3d21bc89e6f454f03053f56f01fa8518bee5cd9378f27170533f60dd4e305e60405160405180910390a25050505050565b6060600d60008373ffffffffffffffffffffffffffffffffffffffff1673ffffffffffffffffffffffffffffffffffffffff16815260200190815260200160002080548060200260200160405190810160405280929190818152602001828054801561338557602002820191906000526020600020905b815481526020019060010190808311613371575b50505050509050919050565b6000809054906101000a900473ffffffffffffffffffffffffffffffffffffffff1681565b6000806000806000806133c7613a71565b600660008981526020019081526020016000206040518060c0016040529081600082015481526020016001820160009054906101000a900473ffffffffffffffffffffffffffffffffffffffff1673ffffffffffffffffffffffffffffffffffffffff1673ffffffffffffffffffffffffffffffffffffffff1681526020016002820154815260200160038201548152602001600482015481526020016005820160009054906101000a900460ff16600781111561348157fe5b600781111561348c57fe5b815250509050806000015181602001518260400151836060015184608001518560a001518494509650965096509650965096505091939550919395565b803373ffffffffffffffffffffffffffffffffffffffff166006600083815260200190815260200160002060010160009054906101000a900473ffffffffffffffffffffffffffffffffffffffff1673ffffffffffffffffffffffffffffffffffffffff16146135a1576040517f08c379a00000000000000000000000000000000000000000000000000000000081526004018080602001828103825260208152602001807f5265717565737420626f72726f7765722073746174757320726571756972656481525060200191505060405180910390fd5b600160078111156135ae57fe5b6006600084815260200190815260200160002060050160009054906101000a900460ff1660078111156135dd57fe5b14613633576040517f08c379a000000000000000000000000000000000000000000000000000000000815260040180806020018281038252602f815260200180613e7a602f913960400191505060405180910390fd5b61363b613a71565b600660008481526020019081526020016000206040518060c0016040529081600082015481526020016001820160009054906101000a900473ffffffffffffffffffffffffffffffffffffffff1673ffffffffffffffffffffffffffffffffffffffff1673ffffffffffffffffffffffffffffffffffffffff1681526020016002820154815260200160038201548152602001600482015481526020016005820160009054906101000a900460ff1660078111156136f557fe5b600781111561370057fe5b81525050905061370e613a25565b6008600060096000878152602001908152602001600020548152602001908152602001600020604051806080016040529081600082015481526020016001820160009054906101000a900473ffffffffffffffffffffffffffffffffffffffff1673ffffffffffffffffffffffffffffffffffffffff1673ffffffffffffffffffffffffffffffffffffffff168152602001600282015481526020016003820160009054906101000a900460ff1660078111156137c757fe5b60078111156137d257fe5b815250509050600260009054906101000a900473ffffffffffffffffffffffffffffffffffffffff1673ffffffffffffffffffffffffffffffffffffffff1663a9059cbb826020015184604001516040518363ffffffff1660e01b8152600401808373ffffffffffffffffffffffffffffffffffffffff1673ffffffffffffffffffffffffffffffffffffffff16815260200182815260200192505050602060405180830381600087803b15801561388957600080fd5b505af115801561389d573d6000803e3d6000fd5b505050506040513d60208110156138b357600080fd5b8101908080519060200190929190505050613919576040517f08c379a0000000000000000000000000000000000000000000000000000000008152600401808060200182810382526044815260200180613bbe6044913960600191505060405180910390fd5b6139248460036139ea565b613942600960008681526020019081526020016000205460036139af565b7f9fb965c6d07b3561442d308d75466609321843ceaf3e97321b29167b9e7d222b60405160405180910390a150505050565b80600b600084815260200190815260200160002060010160146101000a81548160ff021916908360078111156139a657fe5b02179055505050565b806008600084815260200190815260200160002060030160006101000a81548160ff021916908360078111156139e157fe5b02179055505050565b806006600084815260200190815260200160002060050160006101000a81548160ff02191690836007811115613a1c57fe5b02179055505050565b604051806080016040528060008019168152602001600073ffffffffffffffffffffffffffffffffffffffff1681526020016000815260200160006007811115613a6b57fe5b81525090565b6040518060c0016040528060008019168152602001600073ffffffffffffffffffffffffffffffffffffffff16815260200160008152602001600081526020016000815260200160006007811115613ac557fe5b81525090565b604051806060016040528060008019168152602001600073ffffffffffffffffffffffffffffffffffffffff16815260200160006007811115613b0a57fe5b8152509056fe596f7520646f206e6f74206861766520656e6f75676820746f6b656e7320746f2067756172616e7465652074686973206c6f616e4572726f72206f636375726564207768696c6520617070726f76696e6720616d6f756e7420746f206265207370656e7420627920636f6e74726163742066726f6d20626f72726f7765724e6f2067756172616e74656520686173206265656e20616363657074656420666f7220746869732072657175657374416e206572726f72206f636375726564207768696c65207472616e73666572696e6720746f6b656e732066726f6d20636f6e747261637420746f2067756172616e746f724572726f72206f636375726564207768696c65207769746864726177696e6720746f6b656e732066726f6d206d6573736167652073656e646572596f7520646f206e6f74206861766520656e6f75676820746f6b656e7320746f20726570617920746865206c6f616e496e7465726573742073686f756c64206265206c657373207468616e20696e746572657374206f66666572656420627920626f72726f7765724572726f72206f636375726564207768696c65207472616e73666572696e672067756172616e74656520746f206c656e646572596f7520646f206e6f74206861766520656e6f75676820746f6b656e7320746f2070726f766964652074686973206c6f616e4572726f72206f636375726564207768696c652073656e64696e6720746f6b656e7320746f206c656e6465724c6f616e20616d6f756e742073686f756c642062652067726561746572207468616e203054696d652073746970756c61746564206279206c6f616e207265717565737420686173206e6f7420706173736564506c65617365207573652074686520636f72726563742066756e6374696f6e206e616d654572726f72206f636375726564207768696c652073656e64696e6720746f6b656e73206261636b20746f2067756172616e746f7244617465206279207768696368206c6f616e2073686f756c642062652070616964206d7573742062652067726561746572207468616e207468652063757272656e7420626c6f636b416e206572726f72206f636375726564207768696c65207472616e73666572696e6720746f6b656e73496e76616c69642073746174757320666f72206c6f616e206d61746368696e67207061737365642049644e6f2067756172616e74656520686173206265656e2070726f766964656420666f7220746869732072657175657374a265627a7a7231582047236684ef49bbcac999d2a2f66e8b933e252102b8142ef9519648cc5f05f95264736f6c634300050c0032",
  "source": "pragma solidity ^0.5.11;\r\n\r\nimport './LoanToken.sol';\r\nimport './GuarantorManager.sol';\r\n\r\ncontract LoanManager{\r\n\r\n    // Contract properties\r\n    address public administrator;\r\n    GuarantorManager public guarantorManager;\r\n    LoanToken public loanToken;\r\n    bytes32[] private requests;\r\n    bytes32[] private guarantees;\r\n    bytes32[] private loans;\r\n\r\n    // Mappings\r\n    mapping(bytes32 => Request) private requestsMappedToId;         // Id => Request\r\n    mapping(address => bytes32[]) private borrowerRequests;         // Borrower => Requests\r\n\r\n    mapping(bytes32 => Guarantee) private guaranteesMappedToId;     // Id => Guarantee\r\n    mapping(bytes32 => bytes32) private guaranteesMappedToRequests; // Request => Guarantee\r\n    mapping(address => bytes32[]) private guarantorGuarantees;      // Guarantor => Guarantees\r\n\r\n    mapping(bytes32 => Loan) private loansMappedToId;               // Id => Loan\r\n    mapping(bytes32 => bytes32) private requestsMappedToLoans;      // Loan => Request\r\n    mapping(address => bytes32[]) private lenderLoans;              // Lender => Loans\r\n\r\n    // Events\r\n    event RequestSubmitted(\r\n        bytes32 indexed _requestId\r\n    );\r\n    event GuaranteeSubmitted(\r\n        bytes32 indexed _guaranteeId\r\n    );\r\n    event GuaranteeAccepted();\r\n    event GuaranteeDeclined();\r\n    event LoanSubmitted(\r\n        bytes32 indexed _loanId\r\n    );\r\n    event LoanRepaid();\r\n    event GuaranteeWithdrawn();\r\n\r\n    // Structures and enums\r\n    struct Request{\r\n        bytes32 id;\r\n        address payable borrower;\r\n        uint256 amount;\r\n        uint256 payUntil;\r\n        uint256 interest;\r\n        States state;\r\n    }\r\n    struct Guarantee{\r\n        bytes32 id;\r\n        address payable guarantor;\r\n        uint256 interest;\r\n        States state;\r\n    }\r\n    struct Loan{\r\n        bytes32 id;\r\n        address payable lender;\r\n        States state;\r\n    }\r\n    enum States{\r\n        AwaitingGuarantee,\r\n        AwaitingGuaranteeApproval,\r\n        AwaitingLoan,\r\n        Cancelled,\r\n        Completed,\r\n        AwaitingPayment,\r\n        GuaranteeWithdrawn,\r\n        Overdue\r\n    }\r\n\r\n    // Contract constructor\r\n    constructor(GuarantorManager _guarantorManager, LoanToken _loanToken) public {\r\n        administrator = msg.sender;\r\n        guarantorManager = _guarantorManager;\r\n        loanToken = _loanToken;\r\n    }\r\n\r\n    /* Function to submit a request for a loan\r\n    Parameters:\r\n        uint256 _amount - amount of tokens needed for the loan\r\n        uint256 _payUntil - unix timestamp of by when the loan is to be paid\r\n        uint256 _interest - interest that will be paid by the borrower\r\n    */\r\n    function submitRequest(uint256 _amount, uint256 _payUntil, uint256 _interest) public {\r\n        // Check request parameters - Loan amount should be more than 0 and date by which loan is to be paid should be greater than current timestamp\r\n        require(_amount > 0, 'Loan amount should be greater than 0');\r\n        require(_payUntil > block.number,\r\n            'Date by which loan should be paid must be greater than the current block');\r\n\r\n        // Create the request object\r\n        bytes32 id = keccak256(abi.encodePacked(msg.sender, _amount, _payUntil, _interest, now));\r\n        Request memory request = Request(id, msg.sender, _amount, _payUntil, _interest, States.AwaitingGuarantee);\r\n\r\n        // Store request\r\n        requestsMappedToId[id] = request;\r\n        borrowerRequests[msg.sender].push(id);\r\n        requests.push(id);\r\n\r\n        // Emit event\r\n        emit RequestSubmitted(id);\r\n    }\r\n\r\n    // Function to get all requests\r\n    function getRequests() public view returns(bytes32[] memory){\r\n        return requests;\r\n    }\r\n\r\n    /* Function to get a request\r\n    Parameters:\r\n        bytes32 _requestId - id of the request to be returned\r\n    */\r\n    function getRequest(bytes32 _requestId) public view returns(bytes32, address, uint256, uint256, uint256, States){\r\n        Request memory request = requestsMappedToId[_requestId];\r\n        return (request.id, request.borrower, request.amount, request.payUntil, request.interest, request.state);\r\n    }\r\n\r\n    /* Function to get a list of requests for a borrower address\r\n    Parameters:\r\n        address _borrower - the address of the borrower's requests that will be returned\r\n    */\r\n    function getBorrowerRequests(address _borrower) public view returns(bytes32[] memory){\r\n        return borrowerRequests[_borrower];\r\n    }\r\n\r\n    /* Function to place guarantee on a loan\r\n    Parameters:\r\n        bytes32 _requestId - id of the request that the guarantor wants to guarantee\r\n        uint256 _interestRequest - the amount of interest the guarantor is expecting\r\n    */\r\n    function submitGuarantee(bytes32 _requestId, uint256 _interestRequest) public RequireGuarantorStatus {\r\n        Request memory request = requestsMappedToId[_requestId];\r\n\r\n        // Check request parameters - Interest should be less than that specified in request and guarantor should have enough tokens\r\n        require(_interestRequest <= request.interest, 'Interest should be less than interest offered by borrower');\r\n        require(loanToken.balanceOf(msg.sender) >= request.amount, 'You do not have enough tokens to guarantee this loan');\r\n\r\n        // Create the guarantee object\r\n        bytes32 id = keccak256(abi.encodePacked(msg.sender, _interestRequest, now));\r\n        Guarantee memory guarantee = Guarantee(id, msg.sender, _interestRequest, States.AwaitingGuaranteeApproval);\r\n\r\n        // Transfer tokens from guarantor to address of this contract\r\n        require(loanToken.transferFrom(msg.sender, address(this), request.amount), 'Error occured while withdrawing tokens from message sender');\r\n\r\n        // Store guarantee\r\n        guaranteesMappedToId[id] = guarantee;\r\n        guarantorGuarantees[msg.sender].push(id);\r\n        guaranteesMappedToRequests[_requestId] = id;\r\n        guarantees.push(id);\r\n        updateRequestState(_requestId, States.AwaitingGuaranteeApproval);\r\n\r\n        // Emit event\r\n        emit GuaranteeSubmitted(id);\r\n    }\r\n\r\n    /* Function to get a request guarantee\r\n    Parameters:\r\n        bytes32 _requestId - id of the guarantee's request to be returned\r\n    */\r\n    function getRequestGuarantee(bytes32 _requestId) public view returns(bytes32, address, uint256, States){\r\n        Guarantee memory guarantee = guaranteesMappedToId[guaranteesMappedToRequests[_requestId]];\r\n        return (guarantee.id, guarantee.guarantor, guarantee.interest, guarantee.state);\r\n    }\r\n\r\n    // Function to get all guarantees\r\n    function getGuarantees() public view returns(bytes32[] memory){\r\n        return guarantees;\r\n    }\r\n\r\n    /* Function to get a guarantee\r\n    Parameters:\r\n        bytes32 _guaranteeId - id of the guarantee to be returned\r\n    */\r\n    function getGuarantee(bytes32 _guaranteeId) public view returns(bytes32, address, uint256, States){\r\n        Guarantee memory guarantee = guaranteesMappedToId[_guaranteeId];\r\n        return (guarantee.id, guarantee.guarantor, guarantee.interest, guarantee.state);\r\n    }\r\n\r\n    /* Function to get a list of guarantees for a guarantor address\r\n    Parameters:\r\n        address _guarantor - address of the guarantor whose guarantees need to be returned\r\n    */\r\n    function getGuarantorGuarantees(address _guarantor) public view returns(bytes32[] memory){\r\n        return guarantorGuarantees[_guarantor];\r\n    }\r\n\r\n    /* Function to accept guarantee\r\n    Parameters:\r\n        bytes32 _requestId - id of request whose guarantee needs to be accepted\r\n    */\r\n    function acceptGuarantee(bytes32 _requestId) public RequireRequestBorrowerStatus(_requestId) {\r\n        // Check request parameters - A guarantee needs to be provided for a request\r\n        require(requestsMappedToId[_requestId].state == States.AwaitingGuaranteeApproval, 'No guarantee has been provided for this request');\r\n\r\n        // Update request and guarantee state\r\n        updateRequestState(_requestId, States.AwaitingLoan);\r\n        updateGuaranteeState(guaranteesMappedToRequests[_requestId], States.AwaitingPayment);\r\n\r\n        // Emit event\r\n        emit GuaranteeAccepted();\r\n    }\r\n\r\n    /* Function to decline guarantee\r\n    Parameters:\r\n        bytes32 _requestId - id of request whose guarantee needs to be declined\r\n    */\r\n    function declineGuarantee(bytes32 _requestId) public RequireRequestBorrowerStatus(_requestId) payable{\r\n        // Check request parameters - A guarantee needs to be provided for a request\r\n        require(requestsMappedToId[_requestId].state == States.AwaitingGuaranteeApproval, 'No guarantee has been provided for this request');\r\n\r\n        Request memory request = requestsMappedToId[_requestId];\r\n        Guarantee memory guarantee = guaranteesMappedToId[guaranteesMappedToRequests[_requestId]];\r\n\r\n        // Send money back to guarantor\r\n        require(loanToken.transfer(guarantee.guarantor, request.amount),\r\n            'An error occured while transfering tokens from contract to guarantor');\r\n\r\n        // Update request and guarantee state\r\n        updateRequestState(_requestId, States.Cancelled);\r\n        updateGuaranteeState(guaranteesMappedToRequests[_requestId], States.Cancelled);\r\n\r\n        // Emit event\r\n        emit GuaranteeDeclined();\r\n    }\r\n\r\n    /* Function to accept loan request\r\n    Parameters:\r\n        bytes32 _requestId - The id of the request to approve\r\n    */\r\n    function submitLoan(bytes32 _requestId) public RequireLenderNotToBeGuarantor(_requestId) payable {\r\n        Request memory request = requestsMappedToId[_requestId];\r\n\r\n        // Check request paramaters - guarantee needs to be accepted and lender needs to have enough tokens\r\n        require(request.state == States.AwaitingLoan, 'No guarantee has been accepted for this request');\r\n        require(loanToken.balanceOf(msg.sender) >= request.amount, 'You do not have enough tokens to provide this loan');\r\n\r\n        // Send tokens to borrower\r\n        require(loanToken.transferFrom(msg.sender, request.borrower, request.amount), 'An error occured while transfering tokens');\r\n        updateRequestState(_requestId, States.Completed);\r\n\r\n        // Create the loan object\r\n        bytes32 id = keccak256(abi.encodePacked(msg.sender, now));\r\n        Loan memory loan = Loan(id, msg.sender, States.AwaitingPayment);\r\n\r\n        // Store request\r\n        loansMappedToId[id] = loan;\r\n        lenderLoans[msg.sender].push(id);\r\n        requestsMappedToLoans[id] = _requestId;\r\n        loans.push(id);\r\n\r\n        // Emit event\r\n        emit LoanSubmitted(id);\r\n    }\r\n\r\n    /* Function to get a request loan\r\n    Parameters:\r\n        bytes32 _loanId - id of the loan whose request is to be returned\r\n    */\r\n    function getLoanRequest(bytes32 _loanId) public view returns(bytes32, address, uint256, uint256, uint256, States){\r\n        Request memory request = requestsMappedToId[requestsMappedToLoans[_loanId]];\r\n        return (request.id, request.borrower, request.amount, request.payUntil, request.interest, request.state);\r\n    }\r\n\r\n    // Function to get all loans\r\n    function getLoans() public view returns(bytes32[] memory){\r\n        return loans;\r\n    }\r\n\r\n    /* Function to get a loan\r\n    Parameters:\r\n        bytes32 _loanId - id of the loan to be returned\r\n    */\r\n    function getLoan(bytes32 _loanId) public view returns(bytes32, address, States){\r\n        Loan memory loan = loansMappedToId[_loanId];\r\n        return (loan.id, loan.lender, loan.state);\r\n    }\r\n\r\n    /* Function to get a list of loans for a lender address\r\n    Parameters:\r\n        address _lender - address of the lender whose loans are to be returned\r\n    */\r\n    function getLenderLoans(address _lender) public view returns(bytes32[] memory){\r\n        return lenderLoans[_lender];\r\n    }\r\n\r\n    /* Function to repay loan\r\n    Parameters:\r\n        bytes32 _loanId - id of the loan the borrower is going to be paying back\r\n    */\r\n    function repayLoan(bytes32 _loanId) public RequireLoanBorrowerStatus(_loanId) payable {\r\n        Request memory request = requestsMappedToId[requestsMappedToLoans[_loanId]];\r\n        Guarantee memory guarantee = guaranteesMappedToId[guaranteesMappedToRequests[request.id]];\r\n        Loan memory loan = loansMappedToId[_loanId];\r\n        uint256 totalAmount = request.amount + request.interest;\r\n\r\n        // Check request parameters - Loean needs to be provided for the request and borrower needs to have enough tokens to cover payment\r\n        require(loan.state == States.AwaitingPayment, 'Invalid status for loan matching passed Id');\r\n        require(loanToken.balanceOf(msg.sender) >= totalAmount, 'You do not have enough tokens to repay the loan');\r\n\r\n        // Send money back to Lender and guarantor\r\n        uint256 amountToGuarantor = request.amount + guarantee.interest;\r\n        uint256 amountToLender = request.amount + (request.interest - guarantee.interest);\r\n        require(loanToken.transferFrom(request.borrower, address(this), totalAmount),\r\n            'Error occured while withdrawing tokens from message sender');\r\n        require(loanToken.approve(address(this), totalAmount),\r\n            'Error occured while approving amount to be spent by contract from borrower');\r\n        require(loanToken.transfer(loan.lender, amountToLender), 'Error occured while sending tokens to lender');\r\n        require(loanToken.transfer(guarantee.guarantor, amountToGuarantor), 'Error occured while sending tokens back to guarantor');\r\n\r\n        updateLoanState(_loanId, States.Completed);\r\n        updateGuaranteeState(guarantee.id, States.Completed);\r\n\r\n        // Emit event\r\n        emit LoanRepaid();\r\n    }\r\n\r\n    /* Function to withdraw guarantee\r\n    Paramaters:\r\n        bytes32 _loanId - id of the loan whose guarantee needs to be withdrawn\r\n    */\r\n    function withdrawGuarantee(bytes32 _loanId) public RequireLoanLenderStatus(_loanId) payable {\r\n        Request memory request = requestsMappedToId[requestsMappedToLoans[_loanId]];\r\n        Loan memory loan = loansMappedToId[_loanId];\r\n\r\n        // Check request parameters\r\n        require(loan.state == States.AwaitingPayment, 'Invalid status for loan matching passed Id');\r\n        require(request.payUntil < block.number, 'Time stipulated by loan request has not passed');\r\n\r\n        // Withdraw guarantee\r\n        require(loanToken.transfer(loan.lender, request.amount), 'Error occured while transfering guarantee to lender');\r\n\r\n        updateLoanState(_loanId, States.Cancelled);\r\n        updateGuaranteeState(guaranteesMappedToId[guaranteesMappedToRequests[request.id]].id, States.Cancelled);\r\n\r\n        // Emit event\r\n        emit GuaranteeWithdrawn();\r\n    }\r\n\r\n    // Function to update request state\r\n    function updateRequestState(bytes32 _requestId, States _state) internal {\r\n        requestsMappedToId[_requestId].state = _state;\r\n    }\r\n\r\n    // Function to update guarantee state\r\n    function updateGuaranteeState(bytes32 _guaranteeId, States _state) internal {\r\n        guaranteesMappedToId[_guaranteeId].state = _state;\r\n    }\r\n\r\n    // Function to update loan state\r\n    function updateLoanState(bytes32 _loanId, States _state) internal {\r\n        loansMappedToId[_loanId].state = _state;\r\n    }\r\n\r\n    // Fallback function\r\n    function() external {\r\n        revert(\"Please use the correct function name\");\r\n    }\r\n\r\n    // Modifier to check if message sender is request borrower\r\n    modifier RequireRequestBorrowerStatus(bytes32 _requestId){\r\n        require(requestsMappedToId[_requestId].borrower == msg.sender, \"Request borrower status required\");\r\n        _;\r\n    }\r\n\r\n    // Modifier to check if message sender is loan borrower\r\n    modifier RequireLoanBorrowerStatus(bytes32 _loanId){\r\n        require(requestsMappedToId[requestsMappedToLoans[_loanId]].borrower == msg.sender, \"Loan borrower status required\");\r\n        _;\r\n    }\r\n\r\n    // Modifier to check if message sender is loan lender\r\n    modifier RequireLoanLenderStatus(bytes32 _loanId){\r\n        require(loansMappedToId[_loanId].lender == msg.sender, \"Loan lender status required\");\r\n        _;\r\n    }\r\n\r\n    // Modifier to check if message sneder is a guarantor\r\n    modifier RequireGuarantorStatus(){\r\n        require(msg.sender == msg.sender, \"Guarantor status required\");\r\n        _;\r\n    }\r\n\r\n    // Modifier to check if loan approver is a guarantor\r\n    modifier RequireLenderNotToBeGuarantor(bytes32 _requestId){\r\n        require(guaranteesMappedToId[guaranteesMappedToRequests[_requestId]].guarantor != msg.sender, \"Lender cannot be guarantor\");\r\n        _;\r\n    }\r\n}",
  "sourcePath": "C:/Users/music/OneDrive/University/Masters/DLT5401 - Smart Contract and dAppProgramming/Assignment/Part 1/loandapp/Application/contracts/LoanManager.sol",
  "compiler": {
    "name": "solc",
    "version": "0.5.12+commit.7709ece9.Emscripten.clang"
  },
  "schemaVersion": "3.0.19",
  "updatedAt": "2020-01-11T20:00:40.311Z",
  "networkType": "ethereum",
  "devdoc": {
    "methods": {}
  },
  "userdoc": {
    "methods": {}
  }
}