{
  "contractName": "LoanManager",
  "abi": [
    {
      "inputs": [
        {
          "internalType": "contract GuarantorManager",
          "name": "_guarantorManager",
          "type": "address"
        },
        {
          "internalType": "contract LoanToken",
          "name": "_loanToken",
          "type": "address"
        }
      ],
      "payable": false,
      "stateMutability": "nonpayable",
      "type": "constructor"
    },
    {
      "anonymous": false,
      "inputs": [],
      "name": "GuaranteeAccepted",
      "type": "event"
    },
    {
      "anonymous": false,
      "inputs": [],
      "name": "GuaranteeDeclined",
      "type": "event"
    },
    {
      "anonymous": false,
      "inputs": [
        {
          "indexed": true,
          "internalType": "bytes32",
          "name": "_guaranteeId",
          "type": "bytes32"
        }
      ],
      "name": "GuaranteeSubmitted",
      "type": "event"
    },
    {
      "anonymous": false,
      "inputs": [],
      "name": "GuaranteeWithdrawn",
      "type": "event"
    },
    {
      "anonymous": false,
      "inputs": [],
      "name": "LoanRepaid",
      "type": "event"
    },
    {
      "anonymous": false,
      "inputs": [
        {
          "indexed": true,
          "internalType": "bytes32",
          "name": "_loanId",
          "type": "bytes32"
        }
      ],
      "name": "RequestAccepted",
      "type": "event"
    },
    {
      "anonymous": false,
      "inputs": [
        {
          "indexed": true,
          "internalType": "bytes32",
          "name": "_requestId",
          "type": "bytes32"
        }
      ],
      "name": "RequestSubmitted",
      "type": "event"
    },
    {
      "payable": false,
      "stateMutability": "nonpayable",
      "type": "fallback"
    },
    {
      "constant": true,
      "inputs": [],
      "name": "administrator",
      "outputs": [
        {
          "internalType": "address",
          "name": "",
          "type": "address"
        }
      ],
      "payable": false,
      "stateMutability": "view",
      "type": "function"
    },
    {
      "constant": true,
      "inputs": [
        {
          "internalType": "uint256",
          "name": "",
          "type": "uint256"
        }
      ],
      "name": "guarantees",
      "outputs": [
        {
          "internalType": "bytes32",
          "name": "",
          "type": "bytes32"
        }
      ],
      "payable": false,
      "stateMutability": "view",
      "type": "function"
    },
    {
      "constant": true,
      "inputs": [],
      "name": "guarantorManager",
      "outputs": [
        {
          "internalType": "contract GuarantorManager",
          "name": "",
          "type": "address"
        }
      ],
      "payable": false,
      "stateMutability": "view",
      "type": "function"
    },
    {
      "constant": true,
      "inputs": [],
      "name": "loanToken",
      "outputs": [
        {
          "internalType": "contract LoanToken",
          "name": "",
          "type": "address"
        }
      ],
      "payable": false,
      "stateMutability": "view",
      "type": "function"
    },
    {
      "constant": true,
      "inputs": [
        {
          "internalType": "uint256",
          "name": "",
          "type": "uint256"
        }
      ],
      "name": "loans",
      "outputs": [
        {
          "internalType": "bytes32",
          "name": "",
          "type": "bytes32"
        }
      ],
      "payable": false,
      "stateMutability": "view",
      "type": "function"
    },
    {
      "constant": false,
      "inputs": [
        {
          "internalType": "uint256",
          "name": "_amount",
          "type": "uint256"
        },
        {
          "internalType": "uint256",
          "name": "_payUntil",
          "type": "uint256"
        },
        {
          "internalType": "uint256",
          "name": "_interest",
          "type": "uint256"
        }
      ],
      "name": "submitRequest",
      "outputs": [],
      "payable": false,
      "stateMutability": "nonpayable",
      "type": "function"
    },
    {
      "constant": true,
      "inputs": [],
      "name": "getRequests",
      "outputs": [
        {
          "internalType": "bytes32[]",
          "name": "",
          "type": "bytes32[]"
        }
      ],
      "payable": false,
      "stateMutability": "view",
      "type": "function"
    },
    {
      "constant": true,
      "inputs": [
        {
          "internalType": "bytes32",
          "name": "_requestId",
          "type": "bytes32"
        }
      ],
      "name": "getRequest",
      "outputs": [
        {
          "internalType": "bytes32",
          "name": "",
          "type": "bytes32"
        },
        {
          "internalType": "address",
          "name": "",
          "type": "address"
        },
        {
          "internalType": "uint256",
          "name": "",
          "type": "uint256"
        },
        {
          "internalType": "uint256",
          "name": "",
          "type": "uint256"
        },
        {
          "internalType": "uint256",
          "name": "",
          "type": "uint256"
        },
        {
          "internalType": "enum LoanManager.States",
          "name": "",
          "type": "uint8"
        }
      ],
      "payable": false,
      "stateMutability": "view",
      "type": "function"
    },
    {
      "constant": true,
      "inputs": [
        {
          "internalType": "address",
          "name": "_borrower",
          "type": "address"
        }
      ],
      "name": "getBorrowerRequests",
      "outputs": [
        {
          "internalType": "bytes32[]",
          "name": "",
          "type": "bytes32[]"
        }
      ],
      "payable": false,
      "stateMutability": "view",
      "type": "function"
    },
    {
      "constant": false,
      "inputs": [
        {
          "internalType": "bytes32",
          "name": "_requestId",
          "type": "bytes32"
        },
        {
          "internalType": "uint256",
          "name": "_interestRequest",
          "type": "uint256"
        }
      ],
      "name": "submitGuarantee",
      "outputs": [],
      "payable": false,
      "stateMutability": "nonpayable",
      "type": "function"
    },
    {
      "constant": true,
      "inputs": [
        {
          "internalType": "bytes32",
          "name": "_requestId",
          "type": "bytes32"
        }
      ],
      "name": "getRequestGuarantee",
      "outputs": [
        {
          "internalType": "bytes32",
          "name": "",
          "type": "bytes32"
        },
        {
          "internalType": "address",
          "name": "",
          "type": "address"
        },
        {
          "internalType": "uint256",
          "name": "",
          "type": "uint256"
        },
        {
          "internalType": "enum LoanManager.States",
          "name": "",
          "type": "uint8"
        }
      ],
      "payable": false,
      "stateMutability": "view",
      "type": "function"
    },
    {
      "constant": true,
      "inputs": [
        {
          "internalType": "bytes32",
          "name": "_guaranteeId",
          "type": "bytes32"
        }
      ],
      "name": "getGuarantee",
      "outputs": [
        {
          "internalType": "bytes32",
          "name": "",
          "type": "bytes32"
        },
        {
          "internalType": "address",
          "name": "",
          "type": "address"
        },
        {
          "internalType": "uint256",
          "name": "",
          "type": "uint256"
        },
        {
          "internalType": "enum LoanManager.States",
          "name": "",
          "type": "uint8"
        }
      ],
      "payable": false,
      "stateMutability": "view",
      "type": "function"
    },
    {
      "constant": true,
      "inputs": [
        {
          "internalType": "address",
          "name": "_guarantor",
          "type": "address"
        }
      ],
      "name": "getGuarantorGuarantees",
      "outputs": [
        {
          "internalType": "bytes32[]",
          "name": "",
          "type": "bytes32[]"
        }
      ],
      "payable": false,
      "stateMutability": "view",
      "type": "function"
    },
    {
      "constant": false,
      "inputs": [
        {
          "internalType": "bytes32",
          "name": "_requestId",
          "type": "bytes32"
        }
      ],
      "name": "acceptGuarantee",
      "outputs": [],
      "payable": false,
      "stateMutability": "nonpayable",
      "type": "function"
    },
    {
      "constant": false,
      "inputs": [
        {
          "internalType": "bytes32",
          "name": "_requestId",
          "type": "bytes32"
        }
      ],
      "name": "declineGuarantee",
      "outputs": [],
      "payable": true,
      "stateMutability": "payable",
      "type": "function"
    },
    {
      "constant": false,
      "inputs": [
        {
          "internalType": "bytes32",
          "name": "_requestId",
          "type": "bytes32"
        }
      ],
      "name": "acceptLoanRequest",
      "outputs": [],
      "payable": true,
      "stateMutability": "payable",
      "type": "function"
    },
    {
      "constant": true,
      "inputs": [
        {
          "internalType": "bytes32",
          "name": "loanId",
          "type": "bytes32"
        }
      ],
      "name": "getLoanRequest",
      "outputs": [
        {
          "internalType": "bytes32",
          "name": "",
          "type": "bytes32"
        },
        {
          "internalType": "address",
          "name": "",
          "type": "address"
        },
        {
          "internalType": "uint256",
          "name": "",
          "type": "uint256"
        },
        {
          "internalType": "uint256",
          "name": "",
          "type": "uint256"
        },
        {
          "internalType": "uint256",
          "name": "",
          "type": "uint256"
        },
        {
          "internalType": "enum LoanManager.States",
          "name": "",
          "type": "uint8"
        }
      ],
      "payable": false,
      "stateMutability": "view",
      "type": "function"
    },
    {
      "constant": true,
      "inputs": [
        {
          "internalType": "bytes32",
          "name": "loanId",
          "type": "bytes32"
        }
      ],
      "name": "getLoan",
      "outputs": [
        {
          "internalType": "bytes32",
          "name": "",
          "type": "bytes32"
        },
        {
          "internalType": "address",
          "name": "",
          "type": "address"
        },
        {
          "internalType": "enum LoanManager.States",
          "name": "",
          "type": "uint8"
        }
      ],
      "payable": false,
      "stateMutability": "view",
      "type": "function"
    },
    {
      "constant": true,
      "inputs": [
        {
          "internalType": "address",
          "name": "lender",
          "type": "address"
        }
      ],
      "name": "getLenderLoans",
      "outputs": [
        {
          "internalType": "bytes32[]",
          "name": "",
          "type": "bytes32[]"
        }
      ],
      "payable": false,
      "stateMutability": "view",
      "type": "function"
    },
    {
      "constant": false,
      "inputs": [
        {
          "internalType": "bytes32",
          "name": "_loanId",
          "type": "bytes32"
        }
      ],
      "name": "repayLoan",
      "outputs": [],
      "payable": true,
      "stateMutability": "payable",
      "type": "function"
    },
    {
      "constant": false,
      "inputs": [
        {
          "internalType": "bytes32",
          "name": "loanId",
          "type": "bytes32"
        }
      ],
      "name": "withdrawGuarantee",
      "outputs": [],
      "payable": true,
      "stateMutability": "payable",
      "type": "function"
    }
  ],
  "bytecode": "0x608060405234801561001057600080fd5b506040516137d03803806137d08339818101604052604081101561003357600080fd5b810190808051906020019092919080519060200190929190505050336000806101000a81548173ffffffffffffffffffffffffffffffffffffffff021916908373ffffffffffffffffffffffffffffffffffffffff16021790555081600160006101000a81548173ffffffffffffffffffffffffffffffffffffffff021916908373ffffffffffffffffffffffffffffffffffffffff16021790555080600260006101000a81548173ffffffffffffffffffffffffffffffffffffffff021916908373ffffffffffffffffffffffffffffffffffffffff16021790555050506136af806101216000396000f3fe60806040526004361061012a5760003560e01c80639896ae71116100ab578063df754f111161006f578063df754f11146107c6578063e1ec3c6814610815578063eeeb0c1714610864578063f53d0a8e1461090a578063fb1e61ca14610961578063fbe3b3fe14610a0d5761012a565b80639896ae71146105c6578063c3be5e8b14610672578063cffa647c146106ad578063d0e922b9146106f2578063d75f3e80146107205761012a565b806341dcd028116100f257806341dcd028146103985780635e46bc8c146103ef5780637fecc9a11461041d5780638813ce12146104c35780638932f5f71461052f5761012a565b806305820ec11461018857806306d37817146102265780631455b1361461027d5780633c19eb0a146102cc5780633f84210f1461036a575b34801561013657600080fd5b506040517f08c379a00000000000000000000000000000000000000000000000000000000081526004018080602001828103825260248152602001806135d56024913960400191505060405180910390fd5b34801561019457600080fd5b506101c1600480360360208110156101ab57600080fd5b8101908080359060200190929190505050610a3b565b604051808581526020018473ffffffffffffffffffffffffffffffffffffffff1673ffffffffffffffffffffffffffffffffffffffff16815260200183815260200182600781111561020f57fe5b60ff16815260200194505050505060405180910390f35b34801561023257600080fd5b5061023b610b3a565b604051808273ffffffffffffffffffffffffffffffffffffffff1673ffffffffffffffffffffffffffffffffffffffff16815260200191505060405180910390f35b34801561028957600080fd5b506102ca600480360360608110156102a057600080fd5b81019080803590602001909291908035906020019092919080359060200190929190505050610b60565b005b3480156102d857600080fd5b50610305600480360360208110156102ef57600080fd5b8101908080359060200190929190505050610e5c565b604051808581526020018473ffffffffffffffffffffffffffffffffffffffff1673ffffffffffffffffffffffffffffffffffffffff16815260200183815260200182600781111561035357fe5b60ff16815260200194505050505060405180910390f35b6103966004803603602081101561038057600080fd5b8101908080359060200190929190505050610f48565b005b3480156103a457600080fd5b506103ad611679565b604051808273ffffffffffffffffffffffffffffffffffffffff1673ffffffffffffffffffffffffffffffffffffffff16815260200191505060405180910390f35b61041b6004803603602081101561040557600080fd5b810190808035906020019092919050505061169f565b005b34801561042957600080fd5b5061046c6004803603602081101561044057600080fd5b81019080803573ffffffffffffffffffffffffffffffffffffffff169060200190929190505050611b73565b6040518080602001828103825283818151815260200191508051906020019060200280838360005b838110156104af578082015181840152602081019050610494565b505050509050019250505060405180910390f35b3480156104cf57600080fd5b506104d8611c0a565b6040518080602001828103825283818151815260200191508051906020019060200280838360005b8381101561051b578082015181840152602081019050610500565b505050509050019250505060405180910390f35b34801561053b57600080fd5b506105686004803603602081101561055257600080fd5b8101908080359060200190929190505050611c62565b604051808481526020018373ffffffffffffffffffffffffffffffffffffffff1673ffffffffffffffffffffffffffffffffffffffff1681526020018260078111156105b057fe5b60ff168152602001935050505060405180910390f35b3480156105d257600080fd5b506105ff600480360360208110156105e957600080fd5b8101908080359060200190929190505050611d3c565b604051808781526020018673ffffffffffffffffffffffffffffffffffffffff1673ffffffffffffffffffffffffffffffffffffffff16815260200185815260200184815260200183815260200182600781111561065957fe5b60ff168152602001965050505050505060405180910390f35b34801561067e57600080fd5b506106ab6004803603602081101561069557600080fd5b8101908080359060200190929190505050611e62565b005b3480156106b957600080fd5b506106f0600480360360408110156106d057600080fd5b810190808035906020019092919080359060200190929190505050612025565b005b61071e6004803603602081101561070857600080fd5b810190808035906020019092919050505061264a565b005b34801561072c57600080fd5b5061076f6004803603602081101561074357600080fd5b81019080803573ffffffffffffffffffffffffffffffffffffffff169060200190929190505050612be3565b6040518080602001828103825283818151815260200191508051906020019060200280838360005b838110156107b2578082015181840152602081019050610797565b505050509050019250505060405180910390f35b3480156107d257600080fd5b506107ff600480360360208110156107e957600080fd5b8101908080359060200190929190505050612c7a565b6040518082815260200191505060405180910390f35b34801561082157600080fd5b5061084e6004803603602081101561083857600080fd5b8101908080359060200190929190505050612c9b565b6040518082815260200191505060405180910390f35b34801561087057600080fd5b506108b36004803603602081101561088757600080fd5b81019080803573ffffffffffffffffffffffffffffffffffffffff169060200190929190505050612cbc565b6040518080602001828103825283818151815260200191508051906020019060200280838360005b838110156108f65780820151818401526020810190506108db565b505050509050019250505060405180910390f35b34801561091657600080fd5b5061091f612d53565b604051808273ffffffffffffffffffffffffffffffffffffffff1673ffffffffffffffffffffffffffffffffffffffff16815260200191505060405180910390f35b34801561096d57600080fd5b5061099a6004803603602081101561098457600080fd5b8101908080359060200190929190505050612d78565b604051808781526020018673ffffffffffffffffffffffffffffffffffffffff1673ffffffffffffffffffffffffffffffffffffffff1681526020018581526020018481526020018381526020018260078111156109f457fe5b60ff168152602001965050505050505060405180910390f35b610a3960048036036020811015610a2357600080fd5b8101908080359060200190929190505050612e8b565b005b600080600080610a496133e3565b6008600060096000898152602001908152602001600020548152602001908152602001600020604051806080016040529081600082015481526020016001820160009054906101000a900473ffffffffffffffffffffffffffffffffffffffff1673ffffffffffffffffffffffffffffffffffffffff1673ffffffffffffffffffffffffffffffffffffffff168152602001600282015481526020016003820160009054906101000a900460ff166007811115610b0257fe5b6007811115610b0d57fe5b81525050905080600001518160200151826040015183606001518292509450945094509450509193509193565b600260009054906101000a900473ffffffffffffffffffffffffffffffffffffffff1681565b60008311610bb9576040517f08c379a00000000000000000000000000000000000000000000000000000000081526004018080602001828103825260248152602001806135836024913960400191505060405180910390fd5b438211610c11576040517f08c379a000000000000000000000000000000000000000000000000000000000815260040180806020018281038252604c8152602001806134cf604c913960600191505060405180910390fd5b60003384848442604051602001808673ffffffffffffffffffffffffffffffffffffffff1673ffffffffffffffffffffffffffffffffffffffff1660601b815260140185815260200184815260200183815260200182815260200195505050505050604051602081830303815290604052805190602001209050610c9361342f565b6040518060c001604052808381526020013373ffffffffffffffffffffffffffffffffffffffff16815260200186815260200185815260200184815260200160006007811115610cdf57fe5b815250905080600660008481526020019081526020016000206000820151816000015560208201518160010160006101000a81548173ffffffffffffffffffffffffffffffffffffffff021916908373ffffffffffffffffffffffffffffffffffffffff16021790555060408201518160020155606082015181600301556080820151816004015560a08201518160050160006101000a81548160ff02191690836007811115610d8b57fe5b0217905550905050600760003373ffffffffffffffffffffffffffffffffffffffff1673ffffffffffffffffffffffffffffffffffffffff1681526020019081526020016000208290806001815401808255809150509060018203906000526020600020016000909192909190915055506003829080600181540180825580915050906001820390600052602060002001600090919290919091505550817fcc32355f12fcebc315497d46481fdeb72167df0310c874b95828a27665ea38c160405160405180910390a25050505050565b600080600080610e6a6133e3565b60086000878152602001908152602001600020604051806080016040529081600082015481526020016001820160009054906101000a900473ffffffffffffffffffffffffffffffffffffffff1673ffffffffffffffffffffffffffffffffffffffff1673ffffffffffffffffffffffffffffffffffffffff168152602001600282015481526020016003820160009054906101000a900460ff166007811115610f1057fe5b6007811115610f1b57fe5b81525050905080600001518160200151826040015183606001518292509450945094509450509193509193565b803373ffffffffffffffffffffffffffffffffffffffff1660066000600c600085815260200190815260200160002054815260200190815260200160002060010160009054906101000a900473ffffffffffffffffffffffffffffffffffffffff1673ffffffffffffffffffffffffffffffffffffffff1614611033576040517f08c379a000000000000000000000000000000000000000000000000000000000815260040180806020018281038252601d8152602001807f4c6f616e20626f72726f7765722073746174757320726571756972656400000081525060200191505060405180910390fd5b61103b61342f565b60066000600c60008681526020019081526020016000205481526020019081526020016000206040518060c0016040529081600082015481526020016001820160009054906101000a900473ffffffffffffffffffffffffffffffffffffffff1673ffffffffffffffffffffffffffffffffffffffff1673ffffffffffffffffffffffffffffffffffffffff1681526020016002820154815260200160038201548152602001600482015481526020016005820160009054906101000a900460ff16600781111561110857fe5b600781111561111357fe5b8152505090506111216133e3565b600860006009600085600001518152602001908152602001600020548152602001908152602001600020604051806080016040529081600082015481526020016001820160009054906101000a900473ffffffffffffffffffffffffffffffffffffffff1673ffffffffffffffffffffffffffffffffffffffff1673ffffffffffffffffffffffffffffffffffffffff168152602001600282015481526020016003820160009054906101000a900460ff1660078111156111de57fe5b60078111156111e957fe5b8152505090506111f7613489565b600b6000868152602001908152602001600020604051806060016040529081600082015481526020016001820160009054906101000a900473ffffffffffffffffffffffffffffffffffffffff1673ffffffffffffffffffffffffffffffffffffffff1673ffffffffffffffffffffffffffffffffffffffff1681526020016001820160149054906101000a900460ff16600781111561129357fe5b600781111561129e57fe5b815250509050600560078111156112b157fe5b816040015160078111156112c157fe5b14611317576040517f08c379a000000000000000000000000000000000000000000000000000000000815260040180806020018281038252602a815260200180613622602a913960400191505060405180910390fd5b600082604001518460400151019050600083604001518560800151038560400151019050600260009054906101000a900473ffffffffffffffffffffffffffffffffffffffff1673ffffffffffffffffffffffffffffffffffffffff1663a9059cbb8460200151836040518363ffffffff1660e01b8152600401808373ffffffffffffffffffffffffffffffffffffffff1673ffffffffffffffffffffffffffffffffffffffff16815260200182815260200192505050602060405180830381600087803b1580156113e857600080fd5b505af11580156113fc573d6000803e3d6000fd5b505050506040513d602081101561141257600080fd5b810190808051906020019092919050505050600260009054906101000a900473ffffffffffffffffffffffffffffffffffffffff1673ffffffffffffffffffffffffffffffffffffffff1663095ea7b38560200151846040518363ffffffff1660e01b8152600401808373ffffffffffffffffffffffffffffffffffffffff1673ffffffffffffffffffffffffffffffffffffffff16815260200182815260200192505050602060405180830381600087803b1580156114d157600080fd5b505af11580156114e5573d6000803e3d6000fd5b505050506040513d60208110156114fb57600080fd5b810190808051906020019092919050505050600260009054906101000a900473ffffffffffffffffffffffffffffffffffffffff1673ffffffffffffffffffffffffffffffffffffffff166323b872dd308660200151856040518463ffffffff1660e01b8152600401808473ffffffffffffffffffffffffffffffffffffffff1673ffffffffffffffffffffffffffffffffffffffff1681526020018373ffffffffffffffffffffffffffffffffffffffff1673ffffffffffffffffffffffffffffffffffffffff1681526020018281526020019350505050602060405180830381600087803b1580156115ee57600080fd5b505af1158015611602573d6000803e3d6000fd5b505050506040513d602081101561161857600080fd5b810190808051906020019092919050505050611635876004613332565b6116448460000151600461336d565b7f1062e18f9d21decf38f145fc9b437cd2c70e09252a729f9830b75ffdaaf3789460405160405180910390a150505050505050565b600160009054906101000a900473ffffffffffffffffffffffffffffffffffffffff1681565b803373ffffffffffffffffffffffffffffffffffffffff16600b600083815260200190815260200160002060010160009054906101000a900473ffffffffffffffffffffffffffffffffffffffff1673ffffffffffffffffffffffffffffffffffffffff1614611777576040517f08c379a000000000000000000000000000000000000000000000000000000000815260040180806020018281038252601b8152602001807f4c6f616e206c656e64657220737461747573207265717569726564000000000081525060200191505060405180910390fd5b61177f61342f565b60066000600c60008681526020019081526020016000205481526020019081526020016000206040518060c0016040529081600082015481526020016001820160009054906101000a900473ffffffffffffffffffffffffffffffffffffffff1673ffffffffffffffffffffffffffffffffffffffff1673ffffffffffffffffffffffffffffffffffffffff1681526020016002820154815260200160038201548152602001600482015481526020016005820160009054906101000a900460ff16600781111561184c57fe5b600781111561185757fe5b815250509050611865613489565b600b6000858152602001908152602001600020604051806060016040529081600082015481526020016001820160009054906101000a900473ffffffffffffffffffffffffffffffffffffffff1673ffffffffffffffffffffffffffffffffffffffff1673ffffffffffffffffffffffffffffffffffffffff1681526020016001820160149054906101000a900460ff16600781111561190157fe5b600781111561190c57fe5b8152505090506005600781111561191f57fe5b8160400151600781111561192f57fe5b14611985576040517f08c379a000000000000000000000000000000000000000000000000000000000815260040180806020018281038252602a815260200180613622602a913960400191505060405180910390fd5b428260600151106119e1576040517f08c379a000000000000000000000000000000000000000000000000000000000815260040180806020018281038252602e8152602001806135a7602e913960400191505060405180910390fd5b600260009054906101000a900473ffffffffffffffffffffffffffffffffffffffff1673ffffffffffffffffffffffffffffffffffffffff166323b872dd303385604001516040518463ffffffff1660e01b8152600401808473ffffffffffffffffffffffffffffffffffffffff1673ffffffffffffffffffffffffffffffffffffffff1681526020018373ffffffffffffffffffffffffffffffffffffffff1673ffffffffffffffffffffffffffffffffffffffff1681526020018281526020019350505050602060405180830381600087803b158015611ac257600080fd5b505af1158015611ad6573d6000803e3d6000fd5b505050506040513d6020811015611aec57600080fd5b810190808051906020019092919050505050611b09846003613332565b611b4160086000600960008660000151815260200190815260200160002054815260200190815260200160002060000154600361336d565b7f32201d53463db138c2850d650e23284c15f4ad63a8574e3061ab18252adf622060405160405180910390a150505050565b6060600a60008373ffffffffffffffffffffffffffffffffffffffff1673ffffffffffffffffffffffffffffffffffffffff168152602001908152602001600020805480602002602001604051908101604052809291908181526020018280548015611bfe57602002820191906000526020600020905b815481526020019060010190808311611bea575b50505050509050919050565b60606003805480602002602001604051908101604052809291908181526020018280548015611c5857602002820191906000526020600020905b815481526020019060010190808311611c44575b5050505050905090565b6000806000611c6f613489565b600b6000868152602001908152602001600020604051806060016040529081600082015481526020016001820160009054906101000a900473ffffffffffffffffffffffffffffffffffffffff1673ffffffffffffffffffffffffffffffffffffffff1673ffffffffffffffffffffffffffffffffffffffff1681526020016001820160149054906101000a900460ff166007811115611d0b57fe5b6007811115611d1657fe5b815250509050806000015181602001518260400151819150935093509350509193909250565b600080600080600080611d4d61342f565b60066000600c60008b81526020019081526020016000205481526020019081526020016000206040518060c0016040529081600082015481526020016001820160009054906101000a900473ffffffffffffffffffffffffffffffffffffffff1673ffffffffffffffffffffffffffffffffffffffff1673ffffffffffffffffffffffffffffffffffffffff1681526020016002820154815260200160038201548152602001600482015481526020016005820160009054906101000a900460ff166007811115611e1a57fe5b6007811115611e2557fe5b815250509050806000015181602001518260400151836060015184608001518560a001518494509650965096509650965096505091939550919395565b803373ffffffffffffffffffffffffffffffffffffffff166006600083815260200190815260200160002060010160009054906101000a900473ffffffffffffffffffffffffffffffffffffffff1673ffffffffffffffffffffffffffffffffffffffff1614611f3a576040517f08c379a00000000000000000000000000000000000000000000000000000000081526004018080602001828103825260208152602001807f5265717565737420626f72726f7765722073746174757320726571756972656481525060200191505060405180910390fd5b60016007811115611f4757fe5b6006600084815260200190815260200160002060050160009054906101000a900460ff166007811115611f7657fe5b14611fcc576040517f08c379a000000000000000000000000000000000000000000000000000000000815260040180806020018281038252602f81526020018061364c602f913960400191505060405180910390fd5b611fd78260026133a8565b611ff56009600084815260200190815260200160002054600561336d565b7fa3a0394209f1dedfaaf7d898958a2c5c9c72846f285f0695bf592e822bb2495d60405160405180910390a15050565b3373ffffffffffffffffffffffffffffffffffffffff163373ffffffffffffffffffffffffffffffffffffffff16146120c6576040517f08c379a00000000000000000000000000000000000000000000000000000000081526004018080602001828103825260198152602001807f47756172616e746f72207374617475732072657175697265640000000000000081525060200191505060405180910390fd5b6120ce61342f565b600660008481526020019081526020016000206040518060c0016040529081600082015481526020016001820160009054906101000a900473ffffffffffffffffffffffffffffffffffffffff1673ffffffffffffffffffffffffffffffffffffffff1673ffffffffffffffffffffffffffffffffffffffff1681526020016002820154815260200160038201548152602001600482015481526020016005820160009054906101000a900460ff16600781111561218857fe5b600781111561219357fe5b81525050905080608001518211156121f6576040517f08c379a000000000000000000000000000000000000000000000000000000000815260040180806020018281038252603981526020018061354a6039913960400191505060405180910390fd5b6000338342604051602001808473ffffffffffffffffffffffffffffffffffffffff1673ffffffffffffffffffffffffffffffffffffffff1660601b815260140183815260200182815260200193505050506040516020818303038152906040528051906020012090506122686133e3565b60405180608001604052808381526020013373ffffffffffffffffffffffffffffffffffffffff168152602001858152602001600160078111156122a857fe5b8152509050600260009054906101000a900473ffffffffffffffffffffffffffffffffffffffff1673ffffffffffffffffffffffffffffffffffffffff1663095ea7b33085604001516040518363ffffffff1660e01b8152600401808373ffffffffffffffffffffffffffffffffffffffff1673ffffffffffffffffffffffffffffffffffffffff16815260200182815260200192505050602060405180830381600087803b15801561235a57600080fd5b505af115801561236e573d6000803e3d6000fd5b505050506040513d602081101561238457600080fd5b810190808051906020019092919050505061239e57600080fd5b600260009054906101000a900473ffffffffffffffffffffffffffffffffffffffff1673ffffffffffffffffffffffffffffffffffffffff166323b872dd333086604001516040518463ffffffff1660e01b8152600401808473ffffffffffffffffffffffffffffffffffffffff1673ffffffffffffffffffffffffffffffffffffffff1681526020018373ffffffffffffffffffffffffffffffffffffffff1673ffffffffffffffffffffffffffffffffffffffff1681526020018281526020019350505050602060405180830381600087803b15801561247f57600080fd5b505af1158015612493573d6000803e3d6000fd5b505050506040513d60208110156124a957600080fd5b81019080805190602001909291905050506124c357600080fd5b80600860008481526020019081526020016000206000820151816000015560208201518160010160006101000a81548173ffffffffffffffffffffffffffffffffffffffff021916908373ffffffffffffffffffffffffffffffffffffffff1602179055506040820151816002015560608201518160030160006101000a81548160ff0219169083600781111561255657fe5b0217905550905050600a60003373ffffffffffffffffffffffffffffffffffffffff1673ffffffffffffffffffffffffffffffffffffffff16815260200190815260200160002082908060018154018082558091505090600182039060005260206000200160009091929091909150555081600960008781526020019081526020016000208190555060048290806001815401808255809150509060018203906000526020600020016000909192909190915055506126168560016133a8565b817ffdf7e48822fdd4183cf5aec6e7720de81fe8a0a5173f24f8fbd58777bbcf277060405160405180910390a25050505050565b803373ffffffffffffffffffffffffffffffffffffffff16600860006009600085815260200190815260200160002054815260200190815260200160002060010160009054906101000a900473ffffffffffffffffffffffffffffffffffffffff1673ffffffffffffffffffffffffffffffffffffffff161415612736576040517f08c379a000000000000000000000000000000000000000000000000000000000815260040180806020018281038252601a8152602001807f4c656e6465722063616e6e6f742062652067756172616e746f7200000000000081525060200191505060405180910390fd5b61273e61342f565b600660008481526020019081526020016000206040518060c0016040529081600082015481526020016001820160009054906101000a900473ffffffffffffffffffffffffffffffffffffffff1673ffffffffffffffffffffffffffffffffffffffff1673ffffffffffffffffffffffffffffffffffffffff1681526020016002820154815260200160038201548152602001600482015481526020016005820160009054906101000a900460ff1660078111156127f857fe5b600781111561280357fe5b8152505090506002600781111561281657fe5b8160a00151600781111561282657fe5b1461287c576040517f08c379a000000000000000000000000000000000000000000000000000000000815260040180806020018281038252602f81526020018061351b602f913960400191505060405180910390fd5b600260009054906101000a900473ffffffffffffffffffffffffffffffffffffffff1673ffffffffffffffffffffffffffffffffffffffff1663a9059cbb826020015183604001516040518363ffffffff1660e01b8152600401808373ffffffffffffffffffffffffffffffffffffffff1673ffffffffffffffffffffffffffffffffffffffff16815260200182815260200192505050602060405180830381600087803b15801561292d57600080fd5b505af1158015612941573d6000803e3d6000fd5b505050506040513d602081101561295757600080fd5b81019080805190602001909291905050506129bd576040517f08c379a00000000000000000000000000000000000000000000000000000000081526004018080602001828103825260298152602001806135f96029913960400191505060405180910390fd5b6129c88360046133a8565b60003342604051602001808373ffffffffffffffffffffffffffffffffffffffff1673ffffffffffffffffffffffffffffffffffffffff1660601b815260140182815260200192505050604051602081830303815290604052805190602001209050612a32613489565b60405180606001604052808381526020013373ffffffffffffffffffffffffffffffffffffffff16815260200160056007811115612a6c57fe5b815250905080600b60008481526020019081526020016000206000820151816000015560208201518160010160006101000a81548173ffffffffffffffffffffffffffffffffffffffff021916908373ffffffffffffffffffffffffffffffffffffffff16021790555060408201518160010160146101000a81548160ff02191690836007811115612afa57fe5b0217905550905050600d60003373ffffffffffffffffffffffffffffffffffffffff1673ffffffffffffffffffffffffffffffffffffffff16815260200190815260200160002082908060018154018082558091505090600182039060005260206000200160009091929091909150555084600c6000848152602001908152602001600020819055506005829080600181540180825580915050906001820390600052602060002001600090919290919091505550817fb9f62f3177a4856e14a2ef5a7b002a5962e6c63bb315660ac6af231b05306b3a60405160405180910390a25050505050565b6060600760008373ffffffffffffffffffffffffffffffffffffffff1673ffffffffffffffffffffffffffffffffffffffff168152602001908152602001600020805480602002602001604051908101604052809291908181526020018280548015612c6e57602002820191906000526020600020905b815481526020019060010190808311612c5a575b50505050509050919050565b60048181548110612c8757fe5b906000526020600020016000915090505481565b60058181548110612ca857fe5b906000526020600020016000915090505481565b6060600d60008373ffffffffffffffffffffffffffffffffffffffff1673ffffffffffffffffffffffffffffffffffffffff168152602001908152602001600020805480602002602001604051908101604052809291908181526020018280548015612d4757602002820191906000526020600020905b815481526020019060010190808311612d33575b50505050509050919050565b6000809054906101000a900473ffffffffffffffffffffffffffffffffffffffff1681565b600080600080600080612d8961342f565b600660008981526020019081526020016000206040518060c0016040529081600082015481526020016001820160009054906101000a900473ffffffffffffffffffffffffffffffffffffffff1673ffffffffffffffffffffffffffffffffffffffff1673ffffffffffffffffffffffffffffffffffffffff1681526020016002820154815260200160038201548152602001600482015481526020016005820160009054906101000a900460ff166007811115612e4357fe5b6007811115612e4e57fe5b815250509050806000015181602001518260400151836060015184608001518560a001518494509650965096509650965096505091939550919395565b803373ffffffffffffffffffffffffffffffffffffffff166006600083815260200190815260200160002060010160009054906101000a900473ffffffffffffffffffffffffffffffffffffffff1673ffffffffffffffffffffffffffffffffffffffff1614612f63576040517f08c379a00000000000000000000000000000000000000000000000000000000081526004018080602001828103825260208152602001807f5265717565737420626f72726f7765722073746174757320726571756972656481525060200191505060405180910390fd5b60016007811115612f7057fe5b6006600084815260200190815260200160002060050160009054906101000a900460ff166007811115612f9f57fe5b14612ff5576040517f08c379a000000000000000000000000000000000000000000000000000000000815260040180806020018281038252602f81526020018061364c602f913960400191505060405180910390fd5b612ffd61342f565b600660008481526020019081526020016000206040518060c0016040529081600082015481526020016001820160009054906101000a900473ffffffffffffffffffffffffffffffffffffffff1673ffffffffffffffffffffffffffffffffffffffff1673ffffffffffffffffffffffffffffffffffffffff1681526020016002820154815260200160038201548152602001600482015481526020016005820160009054906101000a900460ff1660078111156130b757fe5b60078111156130c257fe5b8152505090506130d06133e3565b6008600060096000878152602001908152602001600020548152602001908152602001600020604051806080016040529081600082015481526020016001820160009054906101000a900473ffffffffffffffffffffffffffffffffffffffff1673ffffffffffffffffffffffffffffffffffffffff1673ffffffffffffffffffffffffffffffffffffffff168152602001600282015481526020016003820160009054906101000a900460ff16600781111561318957fe5b600781111561319457fe5b815250509050600260009054906101000a900473ffffffffffffffffffffffffffffffffffffffff1673ffffffffffffffffffffffffffffffffffffffff1663a9059cbb3384604001516040518363ffffffff1660e01b8152600401808373ffffffffffffffffffffffffffffffffffffffff1673ffffffffffffffffffffffffffffffffffffffff16815260200182815260200192505050602060405180830381600087803b15801561324757600080fd5b505af115801561325b573d6000803e3d6000fd5b505050506040513d602081101561327157600080fd5b81019080805190602001909291905050506132d7576040517f08c379a00000000000000000000000000000000000000000000000000000000081526004018080602001828103825260298152602001806135f96029913960400191505060405180910390fd5b6132e28460036133a8565b6133006009600086815260200190815260200160002054600361336d565b7f9fb965c6d07b3561442d308d75466609321843ceaf3e97321b29167b9e7d222b60405160405180910390a150505050565b80600b600084815260200190815260200160002060010160146101000a81548160ff0219169083600781111561336457fe5b02179055505050565b806008600084815260200190815260200160002060030160006101000a81548160ff0219169083600781111561339f57fe5b02179055505050565b806006600084815260200190815260200160002060050160006101000a81548160ff021916908360078111156133da57fe5b02179055505050565b604051806080016040528060008019168152602001600073ffffffffffffffffffffffffffffffffffffffff168152602001600081526020016000600781111561342957fe5b81525090565b6040518060c0016040528060008019168152602001600073ffffffffffffffffffffffffffffffffffffffff1681526020016000815260200160008152602001600081526020016000600781111561348357fe5b81525090565b604051806060016040528060008019168152602001600073ffffffffffffffffffffffffffffffffffffffff168152602001600060078111156134c857fe5b8152509056fe44617465206279207768696368206c6f616e2073686f756c642062652070616964206d7573742062652067726561746572207468616e207468652063757272656e742074696d657374616d704e6f2067756172616e74656520686173206265656e20616363657074656420666f7220746869732072657175657374496e7465726573742073686f756c64206265206c657373207468616e20696e746572657374206f66666572656420627920626f72726f7765724c6f616e20616d6f756e742073686f756c642062652067726561746572207468616e203054696d652073746970756c61746564206279206c6f616e207265717565737420686173206e6f7420706173736564506c65617365207573652074686520636f72726563742066756e6374696f6e206e616d65416e206572726f72206f636375726564207768696c65207472616e73666572696e6720746f6b656e73496e76616c69642073746174757320666f72206c6f616e206d61746368696e67207061737365642049644e6f2067756172616e74656520686173206265656e2070726f766964656420666f7220746869732072657175657374a265627a7a72315820cdb28dbd12933e56c884e9c41af1082a42f5cbf714d5cb410f585469c8a8caa764736f6c634300050c0032",
  "source": "pragma solidity ^0.5.11;\r\n\r\nimport './LoanToken.sol';\r\nimport './GuarantorManager.sol';\r\n\r\ncontract LoanManager{\r\n\r\n    // Contract properties\r\n    address public administrator;\r\n    GuarantorManager public guarantorManager;\r\n    LoanToken public loanToken;\r\n    bytes32[] private requests;\r\n    bytes32[] public guarantees;\r\n    bytes32[] public loans;\r\n\r\n    // Mappings\r\n    mapping(bytes32 => Request) private requestsMappedToId;         // Id => Request\r\n    mapping(address => bytes32[]) private borrowerRequests;         // Borrower => Requests\r\n\r\n    mapping(bytes32 => Guarantee) private guaranteesMappedToId;     // Id => Guarantee\r\n    mapping(bytes32 => bytes32) private guaranteesMappedToRequests; // Request => Guarantee\r\n    mapping(address => bytes32[]) private guarantorGuarantees;      // Guarantor => Guarantees\r\n\r\n    mapping(bytes32 => Loan) private loansMappedToId;               // Id => Loan\r\n    mapping(bytes32 => bytes32) private requestsMappedToLoans;      // Loan => Request\r\n    mapping(address => bytes32[]) private lenderLoans;              // Lender => Loans\r\n\r\n    // Events\r\n    event RequestSubmitted(\r\n        bytes32 indexed _requestId\r\n    );\r\n    event GuaranteeSubmitted(\r\n        bytes32 indexed _guaranteeId\r\n    );\r\n    event GuaranteeAccepted();\r\n    event GuaranteeDeclined();\r\n    event RequestAccepted(\r\n        bytes32 indexed _loanId\r\n    );\r\n    event LoanRepaid();\r\n    event GuaranteeWithdrawn();\r\n\r\n    // Structures and enums\r\n    struct Request{\r\n        bytes32 id;\r\n        address payable borrower;\r\n        uint256 amount;\r\n        uint256 payUntil;\r\n        uint256 interest;\r\n        States state;\r\n    }\r\n    struct Guarantee{\r\n        bytes32 id;\r\n        address payable guarantor;\r\n        uint256 interest;\r\n        States state;\r\n    }\r\n    struct Loan{\r\n        bytes32 id;\r\n        address payable lender;\r\n        States state;\r\n    }\r\n    enum States{\r\n        AwaitingGuarantee,\r\n        AwaitingGuaranteeApproval,\r\n        AwaitingLoan,\r\n        Cancelled,\r\n        Completed,\r\n        AwaitingPayment,\r\n        GuaranteeWithdrawn,\r\n        Overdue\r\n    }\r\n\r\n    // Contract constructor\r\n    constructor(GuarantorManager _guarantorManager, LoanToken _loanToken) public {\r\n        administrator = msg.sender;\r\n        guarantorManager = _guarantorManager;\r\n        loanToken = _loanToken;\r\n    }\r\n\r\n    /* Function to submit a request for a loan\r\n    Parameters:\r\n        uint256 _amount - amount of tokens needed for the loan\r\n        uint256 _payUntil - unix timestamp of by when the loan is to be paid\r\n        uint256 _interest - interest that will be paid by the borrower\r\n    */\r\n    function submitRequest(uint256 _amount, uint256 _payUntil, uint256 _interest) public {\r\n\r\n        // Check request parameters - Loan amount should be more than 0 and date by which loan is to be paid should be greater than current timestamp\r\n        require(_amount > 0, 'Loan amount should be greater than 0');\r\n        require(_payUntil > block.number, 'Date by which loan should be paid must be greater than the current timestamp');\r\n\r\n        // Create the request object\r\n        bytes32 id = keccak256(abi.encodePacked(msg.sender, _amount, _payUntil, _interest, now));\r\n        Request memory request = Request(id, msg.sender, _amount, _payUntil, _interest, States.AwaitingGuarantee);\r\n\r\n        // Store request\r\n        requestsMappedToId[id] = request;\r\n        borrowerRequests[msg.sender].push(id);\r\n        requests.push(id);\r\n\r\n        // Emit event\r\n        emit RequestSubmitted(id);\r\n    }\r\n\r\n    // Function to get all requests\r\n    function getRequests() public view returns(bytes32[] memory){\r\n        return requests;\r\n    }\r\n\r\n    /* Function to get a request\r\n    Parameters:\r\n        bytes32 _requestId - id of the request to be returned\r\n    */\r\n    function getRequest(bytes32 _requestId) public view returns(bytes32, address, uint256, uint256, uint256, States){\r\n        Request memory request = requestsMappedToId[_requestId];\r\n        return (request.id, request.borrower, request.amount, request.payUntil, request.interest, request.state);\r\n    }\r\n\r\n    /* Function to get a list of requests for a borrower address\r\n    Parameters:\r\n        address _borrower - the address of the borrower's requests that will be returned\r\n    */\r\n    function getBorrowerRequests(address _borrower) public view returns(bytes32[] memory){\r\n        return borrowerRequests[_borrower];\r\n    }\r\n\r\n    /* Function to place guarantee on a loan\r\n    Parameters:\r\n        bytes32 _requestId - id of the request that the guarantor wants to guarantee\r\n        uint256 _interestRequest - the amount of interest the guarantor is expecting\r\n    */\r\n    function submitGuarantee(bytes32 _requestId, uint256 _interestRequest) public RequireGuarantorStatus {\r\n        Request memory request = requestsMappedToId[_requestId];\r\n\r\n        // Check request parameters - Interest should be less than that specified in request\r\n        require(_interestRequest <= request.interest, 'Interest should be less than interest offered by borrower');\r\n\r\n        // Create the guarantee object\r\n        bytes32 id = keccak256(abi.encodePacked(msg.sender, _interestRequest, now));\r\n        Guarantee memory guarantee = Guarantee(id, msg.sender, _interestRequest, States.AwaitingGuaranteeApproval);\r\n\r\n        // Transfer tokens from guarantor to address of this contract\r\n        require(loanToken.approve(address(this), request.amount));\r\n        require(loanToken.transferFrom(msg.sender, address(this), request.amount));\r\n\r\n        // Store guarantee\r\n        guaranteesMappedToId[id] = guarantee;\r\n        guarantorGuarantees[msg.sender].push(id);\r\n        guaranteesMappedToRequests[_requestId] = id;\r\n        guarantees.push(id);\r\n        updateRequestState(_requestId, States.AwaitingGuaranteeApproval);\r\n\r\n        // Emit event\r\n        emit GuaranteeSubmitted(id);\r\n    }\r\n\r\n    /* Function to get a request guarantee\r\n    Parameters:\r\n        bytes32 _requestId - id of the guarantee's request to be returned\r\n    */\r\n    function getRequestGuarantee(bytes32 _requestId) public view returns(bytes32, address, uint256, States){\r\n        Guarantee memory guarantee = guaranteesMappedToId[guaranteesMappedToRequests[_requestId]];\r\n        return (guarantee.id, guarantee.guarantor, guarantee.interest, guarantee.state);\r\n    }\r\n\r\n    /* Function to get a guarantee\r\n    Parameters:\r\n        bytes32 _guaranteeId - id of the guarantee to be returned\r\n    */\r\n    function getGuarantee(bytes32 _guaranteeId) public view returns(bytes32, address, uint256, States){\r\n        Guarantee memory guarantee = guaranteesMappedToId[_guaranteeId];\r\n        return (guarantee.id, guarantee.guarantor, guarantee.interest, guarantee.state);\r\n    }\r\n\r\n    /* Function to get a list of guarantees for a guarantor address\r\n    Parameters:\r\n        address _guarantor - address of the guarantor whose guarantees need to be returned\r\n    */\r\n    function getGuarantorGuarantees(address _guarantor) public view returns(bytes32[] memory){\r\n        return guarantorGuarantees[_guarantor];\r\n    }\r\n\r\n    /* Function to accept guarantee\r\n    Parameters:\r\n        bytes32 _requestId - id of request whose guarantee needs to be accepted\r\n    */\r\n    function acceptGuarantee(bytes32 _requestId) public RequireRequestBorrowerStatus(_requestId) {\r\n\r\n        // Check request parameters - A guarantee needs to be provided for a request\r\n        require(requestsMappedToId[_requestId].state == States.AwaitingGuaranteeApproval, 'No guarantee has been provided for this request');\r\n\r\n        // Update request and guarantee state\r\n        updateRequestState(_requestId, States.AwaitingLoan);\r\n        updateGuaranteeState(guaranteesMappedToRequests[_requestId], States.AwaitingPayment);\r\n\r\n        // Emit event\r\n        emit GuaranteeAccepted();\r\n    }\r\n\r\n    /* Function to decline guarantee\r\n    Parameters:\r\n        bytes32 _requestId - id of request whose guarantee needs to be declined\r\n    */\r\n    function declineGuarantee(bytes32 _requestId) public RequireRequestBorrowerStatus(_requestId) payable{\r\n\r\n        // Check request parameters - A guarantee needs to be provided for a request\r\n        require(requestsMappedToId[_requestId].state == States.AwaitingGuaranteeApproval, 'No guarantee has been provided for this request');\r\n\r\n        Request memory request = requestsMappedToId[_requestId];\r\n        Guarantee memory guarantee = guaranteesMappedToId[guaranteesMappedToRequests[_requestId]];\r\n\r\n        // Send money back to guarantor\r\n        require(loanToken.transfer(msg.sender, request.amount), 'An error occured while transfering tokens');\r\n\r\n        // Update request and guarantee state\r\n        updateRequestState(_requestId, States.Cancelled);\r\n        updateGuaranteeState(guaranteesMappedToRequests[_requestId], States.Cancelled);\r\n\r\n        // Emit event\r\n        emit GuaranteeDeclined();\r\n    }\r\n\r\n    /* Function to accept loan request\r\n    Parameters:\r\n        bytes32 _requestId - The id of the request to approve\r\n    */\r\n    function acceptLoanRequest(bytes32 _requestId) public RequireLenderNotToBeGuarantor(_requestId) payable {\r\n        Request memory request = requestsMappedToId[_requestId];\r\n\r\n        // Check request paramaters\r\n        require(request.state == States.AwaitingLoan, 'No guarantee has been accepted for this request');\r\n\r\n        // Send tokens to borrower\r\n        require(loanToken.transfer(request.borrower, request.amount), 'An error occured while transfering tokens');\r\n        updateRequestState(_requestId, States.Completed);\r\n\r\n        // Create the request object\r\n        bytes32 id = keccak256(abi.encodePacked(msg.sender, now));\r\n        Loan memory loan = Loan(id, msg.sender, States.AwaitingPayment);\r\n\r\n        // Store request\r\n        loansMappedToId[id] = loan;\r\n        lenderLoans[msg.sender].push(id);\r\n        requestsMappedToLoans[id] = _requestId;\r\n        loans.push(id);\r\n\r\n        // Emit event\r\n        emit RequestAccepted(id);\r\n    }\r\n\r\n    // Function to get a request loan\r\n    function getLoanRequest(bytes32 loanId) public view returns(bytes32, address, uint256, uint256, uint256, States){\r\n        Request memory request = requestsMappedToId[requestsMappedToLoans[loanId]];\r\n        return (request.id, request.borrower, request.amount, request.payUntil, request.interest, request.state);\r\n    }\r\n\r\n    // Function to get a loan\r\n    function getLoan(bytes32 loanId) public view returns(bytes32, address, States){\r\n        Loan memory loan = loansMappedToId[loanId];\r\n        return (loan.id, loan.lender, loan.state);\r\n    }\r\n\r\n    // Function to get a list of loans for a lender address\r\n    function getLenderLoans(address lender) public view returns(bytes32[] memory){\r\n        return lenderLoans[lender];\r\n    }\r\n\r\n    // Function to repay loan\r\n    function repayLoan(bytes32 _loanId) public RequireLoanBorrowerStatus(_loanId) payable {\r\n        Request memory request = requestsMappedToId[requestsMappedToLoans[_loanId]];\r\n        Guarantee memory guarantee = guaranteesMappedToId[guaranteesMappedToRequests[request.id]];\r\n        Loan memory loan = loansMappedToId[_loanId];\r\n\r\n        // Check request parameters\r\n        require(loan.state == States.AwaitingPayment, 'Invalid status for loan matching passed Id');\r\n\r\n        // Send money back to Lender and guarantor\r\n        uint256 amountToGuarantor = request.amount + guarantee.interest;\r\n        uint256 amountToLender = request.amount + (request.interest - guarantee.interest);\r\n        loanToken.transfer(loan.lender, amountToLender);\r\n        loanToken.approve(guarantee.guarantor, amountToGuarantor);\r\n        loanToken.transferFrom(address(this), guarantee.guarantor, amountToGuarantor);\r\n\r\n        updateLoanState(_loanId, States.Completed);\r\n        updateGuaranteeState(guarantee.id, States.Completed);\r\n\r\n        // Emit event\r\n        emit LoanRepaid();\r\n    }\r\n\r\n    /* Function to withdraw guarantee\r\n    Paramaters:\r\n        bytes32 _loanId - id of the loan whose guarantee needs to be withdrawn\r\n    */\r\n    function withdrawGuarantee(bytes32 loanId) public RequireLoanLenderStatus(loanId) payable {\r\n        Request memory request = requestsMappedToId[requestsMappedToLoans[loanId]];\r\n        Loan memory loan = loansMappedToId[loanId];\r\n\r\n        // Check request parameters\r\n        require(loan.state == States.AwaitingPayment, 'Invalid status for loan matching passed Id');\r\n        require(request.payUntil < now, 'Time stipulated by loan request has not passed');\r\n\r\n        // Withdraw guarantee\r\n        loanToken.transferFrom(address(this), msg.sender, request.amount);\r\n\r\n        updateLoanState(loanId, States.Cancelled);\r\n        updateGuaranteeState(guaranteesMappedToId[guaranteesMappedToRequests[request.id]].id, States.Cancelled);\r\n\r\n        // Emit event\r\n        emit GuaranteeWithdrawn();\r\n    }\r\n\r\n    // Function to update request state\r\n    function updateRequestState(bytes32 requestId, States state) internal {\r\n        requestsMappedToId[requestId].state = state;\r\n    }\r\n\r\n    // Function to update guarantee state\r\n    function updateGuaranteeState(bytes32 guaranteeId, States state) internal {\r\n        guaranteesMappedToId[guaranteeId].state = state;\r\n    }\r\n\r\n    // Function to update loan state\r\n    function updateLoanState(bytes32 loanId, States state) internal {\r\n        loansMappedToId[loanId].state = state;\r\n    }\r\n\r\n    // Fallback function\r\n    function() external {\r\n        revert(\"Please use the correct function name\");\r\n    }\r\n\r\n    // Modifier to check if message sender is request borrower\r\n    modifier RequireRequestBorrowerStatus(bytes32 requestId){\r\n        require(requestsMappedToId[requestId].borrower == msg.sender, \"Request borrower status required\");\r\n        _;\r\n    }\r\n\r\n    // Modifier to check if message sender is loan borrower\r\n    modifier RequireLoanBorrowerStatus(bytes32 loanId){\r\n        require(requestsMappedToId[requestsMappedToLoans[loanId]].borrower == msg.sender, \"Loan borrower status required\");\r\n        _;\r\n    }\r\n\r\n    // Modifier to check if message sender is loan lender\r\n    modifier RequireLoanLenderStatus(bytes32 loanId){\r\n        require(loansMappedToId[loanId].lender == msg.sender, \"Loan lender status required\");\r\n        _;\r\n    }\r\n\r\n    // Modifier to check if message sneder is a guarantor\r\n    modifier RequireGuarantorStatus(){\r\n        require(msg.sender == msg.sender, \"Guarantor status required\");\r\n        _;\r\n    }\r\n\r\n    // Modifier to check if loan approver is a guarantor\r\n    modifier RequireLenderNotToBeGuarantor(bytes32 requestId){\r\n        require(guaranteesMappedToId[guaranteesMappedToRequests[requestId]].guarantor != msg.sender, \"Lender cannot be guarantor\");\r\n        _;\r\n    }\r\n}",
  "sourcePath": "C:/Users/music/OneDrive/University/Masters/DLT5401 - Smart Contract and dAppProgramming/Assignment/Part 1/loandapp/Application/contracts/LoanManager.sol",
  "compiler": {
    "name": "solc",
    "version": "0.5.12+commit.7709ece9.Emscripten.clang"
  },
  "schemaVersion": "3.0.19",
  "updatedAt": "2020-01-09T20:58:23.038Z",
  "networkType": "ethereum",
  "devdoc": {
    "methods": {}
  },
  "userdoc": {
    "methods": {}
  }
}