{
  "contractName": "LoanTokenSale",
  "abi": [
    {
      "inputs": [
        {
          "internalType": "contract ContractRegistry",
          "name": "_registry",
          "type": "address"
        },
        {
          "internalType": "uint256",
          "name": "_tokenPrice",
          "type": "uint256"
        }
      ],
      "payable": false,
      "stateMutability": "nonpayable",
      "type": "constructor"
    },
    {
      "anonymous": false,
      "inputs": [
        {
          "indexed": true,
          "internalType": "address",
          "name": "_buyerAddress",
          "type": "address"
        },
        {
          "indexed": true,
          "internalType": "uint256",
          "name": "_amount",
          "type": "uint256"
        }
      ],
      "name": "TokensSold",
      "type": "event"
    },
    {
      "constant": true,
      "inputs": [],
      "name": "administrator",
      "outputs": [
        {
          "internalType": "address payable",
          "name": "",
          "type": "address"
        }
      ],
      "payable": false,
      "stateMutability": "view",
      "type": "function"
    },
    {
      "constant": true,
      "inputs": [],
      "name": "registry",
      "outputs": [
        {
          "internalType": "contract ContractRegistry",
          "name": "",
          "type": "address"
        }
      ],
      "payable": false,
      "stateMutability": "view",
      "type": "function"
    },
    {
      "constant": true,
      "inputs": [],
      "name": "tokenPrice",
      "outputs": [
        {
          "internalType": "uint256",
          "name": "",
          "type": "uint256"
        }
      ],
      "payable": false,
      "stateMutability": "view",
      "type": "function"
    },
    {
      "constant": true,
      "inputs": [],
      "name": "tokensSold",
      "outputs": [
        {
          "internalType": "uint256",
          "name": "",
          "type": "uint256"
        }
      ],
      "payable": false,
      "stateMutability": "view",
      "type": "function"
    },
    {
      "constant": false,
      "inputs": [
        {
          "internalType": "uint256",
          "name": "_amount",
          "type": "uint256"
        }
      ],
      "name": "buy",
      "outputs": [],
      "payable": true,
      "stateMutability": "payable",
      "type": "function"
    },
    {
      "constant": false,
      "inputs": [],
      "name": "destroyContract",
      "outputs": [],
      "payable": false,
      "stateMutability": "nonpayable",
      "type": "function"
    }
  ],
  "bytecode": "0x608060405234801561001057600080fd5b50604051610da7380380610da78339818101604052604081101561003357600080fd5b810190808051906020019092919080519060200190929190505050336000806101000a81548173ffffffffffffffffffffffffffffffffffffffff021916908373ffffffffffffffffffffffffffffffffffffffff16021790555081600160006101000a81548173ffffffffffffffffffffffffffffffffffffffff021916908373ffffffffffffffffffffffffffffffffffffffff160217905550806002819055505050610cc0806100e76000396000f3fe6080604052600436106100555760003560e01c8063092a5cce1461005a578063518ab2a8146100715780637b1039991461009c5780637ff9b596146100f3578063d96a094a1461011e578063f53d0a8e1461014c575b600080fd5b34801561006657600080fd5b5061006f6101a3565b005b34801561007d57600080fd5b5061008661062d565b6040518082815260200191505060405180910390f35b3480156100a857600080fd5b506100b1610633565b604051808273ffffffffffffffffffffffffffffffffffffffff1673ffffffffffffffffffffffffffffffffffffffff16815260200191505060405180910390f35b3480156100ff57600080fd5b50610108610659565b6040518082815260200191505060405180910390f35b61014a6004803603602081101561013457600080fd5b810190808035906020019092919050505061065f565b005b34801561015857600080fd5b50610161610b05565b604051808273ffffffffffffffffffffffffffffffffffffffff1673ffffffffffffffffffffffffffffffffffffffff16815260200191505060405180910390f35b3373ffffffffffffffffffffffffffffffffffffffff166000809054906101000a900473ffffffffffffffffffffffffffffffffffffffff1673ffffffffffffffffffffffffffffffffffffffff1614610248576040517f08c379a0000000000000000000000000000000000000000000000000000000008152600401808060200182810382526031815260200180610c116031913960400191505060405180910390fd5b600160009054906101000a900473ffffffffffffffffffffffffffffffffffffffff1673ffffffffffffffffffffffffffffffffffffffff1663358177736040518163ffffffff1660e01b81526004018080602001828103825260098152602001807f4c6f616e546f6b656e000000000000000000000000000000000000000000000081525060200191505060206040518083038186803b1580156102ec57600080fd5b505afa158015610300573d6000803e3d6000fd5b505050506040513d602081101561031657600080fd5b810190808051906020019092919050505073ffffffffffffffffffffffffffffffffffffffff1663a9059cbb6000809054906101000a900473ffffffffffffffffffffffffffffffffffffffff16600160009054906101000a900473ffffffffffffffffffffffffffffffffffffffff1673ffffffffffffffffffffffffffffffffffffffff1663358177736040518163ffffffff1660e01b81526004018080602001828103825260098152602001807f4c6f616e546f6b656e000000000000000000000000000000000000000000000081525060200191505060206040518083038186803b15801561040857600080fd5b505afa15801561041c573d6000803e3d6000fd5b505050506040513d602081101561043257600080fd5b810190808051906020019092919050505073ffffffffffffffffffffffffffffffffffffffff166370a08231306040518263ffffffff1660e01b8152600401808273ffffffffffffffffffffffffffffffffffffffff1673ffffffffffffffffffffffffffffffffffffffff16815260200191505060206040518083038186803b1580156104bf57600080fd5b505afa1580156104d3573d6000803e3d6000fd5b505050506040513d60208110156104e957600080fd5b81019080805190602001909291905050506040518363ffffffff1660e01b8152600401808373ffffffffffffffffffffffffffffffffffffffff1673ffffffffffffffffffffffffffffffffffffffff16815260200182815260200192505050602060405180830381600087803b15801561056357600080fd5b505af1158015610577573d6000803e3d6000fd5b505050506040513d602081101561058d57600080fd5b81019080805190602001909291905050506105f3576040517f08c379a0000000000000000000000000000000000000000000000000000000008152600401808060200182810382526038815260200180610bd96038913960400191505060405180910390fd5b6000809054906101000a900473ffffffffffffffffffffffffffffffffffffffff1673ffffffffffffffffffffffffffffffffffffffff16ff5b60035481565b600160009054906101000a900473ffffffffffffffffffffffffffffffffffffffff1681565b60025481565b61067481600254610b2a90919063ffffffff16565b34146106cb576040517f08c379a0000000000000000000000000000000000000000000000000000000008152600401808060200182810382526028815260200180610bb16028913960400191505060405180910390fd5b80600160009054906101000a900473ffffffffffffffffffffffffffffffffffffffff1673ffffffffffffffffffffffffffffffffffffffff1663358177736040518163ffffffff1660e01b81526004018080602001828103825260098152602001807f4c6f616e546f6b656e000000000000000000000000000000000000000000000081525060200191505060206040518083038186803b15801561077057600080fd5b505afa158015610784573d6000803e3d6000fd5b505050506040513d602081101561079a57600080fd5b810190808051906020019092919050505073ffffffffffffffffffffffffffffffffffffffff166370a08231306040518263ffffffff1660e01b8152600401808273ffffffffffffffffffffffffffffffffffffffff1673ffffffffffffffffffffffffffffffffffffffff16815260200191505060206040518083038186803b15801561082757600080fd5b505afa15801561083b573d6000803e3d6000fd5b505050506040513d602081101561085157600080fd5b810190808051906020019092919050505010156108b9576040517f08c379a0000000000000000000000000000000000000000000000000000000008152600401808060200182810382526029815260200180610c636029913960400191505060405180910390fd5b600160009054906101000a900473ffffffffffffffffffffffffffffffffffffffff1673ffffffffffffffffffffffffffffffffffffffff1663358177736040518163ffffffff1660e01b81526004018080602001828103825260098152602001807f4c6f616e546f6b656e000000000000000000000000000000000000000000000081525060200191505060206040518083038186803b15801561095d57600080fd5b505afa158015610971573d6000803e3d6000fd5b505050506040513d602081101561098757600080fd5b810190808051906020019092919050505073ffffffffffffffffffffffffffffffffffffffff1663a9059cbb33836040518363ffffffff1660e01b8152600401808373ffffffffffffffffffffffffffffffffffffffff1673ffffffffffffffffffffffffffffffffffffffff16815260200182815260200192505050602060405180830381600087803b158015610a1e57600080fd5b505af1158015610a32573d6000803e3d6000fd5b505050506040513d6020811015610a4857600080fd5b8101908080519060200190929190505050610aae576040517f08c379a0000000000000000000000000000000000000000000000000000000008152600401808060200182810382526038815260200180610bd96038913960400191505060405180910390fd5b80600360008282540192505081905550803373ffffffffffffffffffffffffffffffffffffffff167f57d61f3ccd4ccd25ec5d234d6049553a586fac134c85c98d0b0d9d5724f4e43e60405160405180910390a350565b6000809054906101000a900473ffffffffffffffffffffffffffffffffffffffff1681565b600080831415610b3d5760009050610baa565b6000828402905082848281610b4e57fe5b0414610ba5576040517f08c379a0000000000000000000000000000000000000000000000000000000008152600401808060200182810382526021815260200180610c426021913960400191505060405180910390fd5b809150505b9291505056fe496e73756666696369656e74207765692076616c75652073656e742077697468206d6573736167654572726f72206f636375726564207768696c65206c6f616e207472616e736665722066756e6374696f6e2077617320657865637574696e674f6e6c792041646d696e6973747261746f7273204172652041626c6520546f2052756e20546869732046756e6374696f6e536166654d6174683a206d756c7469706c69636174696f6e206f766572666c6f77496e73756666696369656e7420746f6b656e7320617661696c61626c6520696e20636f6e7472616374a265627a7a72315820827a788c83646ab4dcd79976bfab4d9fbac8ca4661eae673383d21ae50c82baf64736f6c634300050c0032",
  "source": "pragma solidity ^0.5.11;\r\n\r\nimport './ContractRegistry.sol';\r\nimport './LoanToken.sol';\r\nimport './SafeMath.sol';\r\n\r\ncontract LoanTokenSale {\r\n    using SafeMath for uint256;\r\n\r\n    // Contract properties\r\n    address payable public administrator;\r\n    ContractRegistry public registry;\r\n    uint256 public tokenPrice;\r\n    uint256 public tokensSold;\r\n\r\n    // Events\r\n    event TokensSold(\r\n        address indexed _buyerAddress,\r\n        uint256 indexed _amount\r\n    );\r\n\r\n    /* Contract constructor\r\n    Params:\r\n        LoanToken _loanToken - address of LoanToken contract\r\n        uint256 _tokenPrice - Price in wei of 1 loan token\r\n    */\r\n    constructor (ContractRegistry _registry, uint256 _tokenPrice) public {\r\n        administrator = msg.sender;\r\n        registry = _registry;\r\n        tokenPrice = _tokenPrice;\r\n    }\r\n\r\n    /* Function to buy tokens\r\n    Params:\r\n        uint256 _amount - amount of tokens to buy\r\n    */\r\n    function buy(uint256 _amount) public payable {\r\n        /*  Check request parameters - amount of ether sent must equal to the amount of tokens needed multiplied by the token price\r\n            token balance of the contract must be greater than the amount of tokens being requested\r\n        */\r\n        require(msg.value == tokenPrice.mul(_amount), 'Insufficient wei value sent with message');\r\n        require(LoanToken(registry.getContract('LoanToken')).balanceOf(address(this)) >= _amount, 'Insufficient tokens available in contract');\r\n\r\n        // Transfer funds and update number of tokens sold\r\n        require(LoanToken(registry.getContract('LoanToken')).transfer(msg.sender, _amount),\r\n            'Error occured while loan transfer function was executing');\r\n        tokensSold += _amount;\r\n\r\n        // Emit event\r\n        emit TokensSold(msg.sender, _amount);\r\n    }\r\n\r\n    // Function to end the token sale\r\n    function destroyContract() public IsAdministrator {\r\n        // Transfer all tokens owned by the contract to the administrator\r\n        require(LoanToken(registry.getContract('LoanToken'))\r\n            .transfer(administrator, LoanToken(registry.getContract('LoanToken')).balanceOf(address(this))), 'Error occured while loan transfer function was executing');\r\n\r\n        // Destroy contract and send ether balance of this contract to the administrator\r\n        selfdestruct(administrator);\r\n    }\r\n\r\n    // Function to check of message sender is the administrator\r\n    modifier IsAdministrator(){\r\n        require((administrator == msg.sender), \"Only Administrators Are Able To Run This Function\");\r\n        _;\r\n    }\r\n}",
  "sourcePath": "C:/Users/music/OneDrive/University/Masters/DLT5401 - Smart Contract and dAppProgramming/Assignment/Part 1/loandapp/Application/contracts/LoanTokenSale.sol",
  "compiler": {
    "name": "solc",
    "version": "0.5.12+commit.7709ece9.Emscripten.clang"
  },
  "schemaVersion": "3.0.19",
  "updatedAt": "2020-01-22T15:34:10.962Z",
  "networkType": "ethereum",
  "devdoc": {
    "methods": {}
  },
  "userdoc": {
    "methods": {}
  }
}