{
  "contractName": "ContractRegistry",
  "abi": [
    {
      "constant": false,
      "inputs": [
        {
          "internalType": "string",
          "name": "_name",
          "type": "string"
        },
        {
          "internalType": "address",
          "name": "_address",
          "type": "address"
        },
        {
          "internalType": "uint16",
          "name": "_version",
          "type": "uint16"
        }
      ],
      "name": "registerName",
      "outputs": [
        {
          "internalType": "bool",
          "name": "",
          "type": "bool"
        }
      ],
      "payable": false,
      "stateMutability": "nonpayable",
      "type": "function"
    },
    {
      "constant": true,
      "inputs": [
        {
          "internalType": "string",
          "name": "_name",
          "type": "string"
        }
      ],
      "name": "getContract",
      "outputs": [
        {
          "internalType": "address",
          "name": "",
          "type": "address"
        }
      ],
      "payable": false,
      "stateMutability": "view",
      "type": "function"
    }
  ],
  "bytecode": "0x608060405234801561001057600080fd5b506108fc806100206000396000f3fe608060405234801561001057600080fd5b50600436106100365760003560e01c8063358177731461003b578063be3f4a5b14610136575b600080fd5b6100f46004803603602081101561005157600080fd5b810190808035906020019064010000000081111561006e57600080fd5b82018360208201111561008057600080fd5b803590602001918460018302840111640100000000831117156100a257600080fd5b91908080601f016020809104026020016040519081016040528093929190818152602001838380828437600081840152601f19601f820116905080830192505050505050509192919290505050610237565b604051808273ffffffffffffffffffffffffffffffffffffffff1673ffffffffffffffffffffffffffffffffffffffff16815260200191505060405180910390f35b61021d6004803603606081101561014c57600080fd5b810190808035906020019064010000000081111561016957600080fd5b82018360208201111561017b57600080fd5b8035906020019184600183028401116401000000008311171561019d57600080fd5b91908080601f016020809104026020016040519081016040528093929190818152602001838380828437600081840152601f19601f820116905080830192505050505050509192919290803573ffffffffffffffffffffffffffffffffffffffff169060200190929190803561ffff169060200190929190505050610390565b604051808215151515815260200191505060405180910390f35b6000610241610820565b6000836040518082805190602001908083835b602083106102775780518252602082019150602081019050602083039250610254565b6001836020036101000a03801982511681845116808217855250505050505090500191505090815260200160405180910390206040518060600160405290816000820160009054906101000a900473ffffffffffffffffffffffffffffffffffffffff1673ffffffffffffffffffffffffffffffffffffffff1673ffffffffffffffffffffffffffffffffffffffff1681526020016001820160009054906101000a900473ffffffffffffffffffffffffffffffffffffffff1673ffffffffffffffffffffffffffffffffffffffff1673ffffffffffffffffffffffffffffffffffffffff1681526020016001820160149054906101000a900461ffff1661ffff1661ffff168152505090508060200151915050919050565b600060018261ffff1610156103f0576040517f08c379a000000000000000000000000000000000000000000000000000000000815260040180806020018281038252602d815260200180610872602d913960400191505060405180910390fd5b6103f8610820565b6000856040518082805190602001908083835b6020831061042e578051825260208201915060208101905060208303925061040b565b6001836020036101000a03801982511681845116808217855250505050505090500191505090815260200160405180910390206040518060600160405290816000820160009054906101000a900473ffffffffffffffffffffffffffffffffffffffff1673ffffffffffffffffffffffffffffffffffffffff1673ffffffffffffffffffffffffffffffffffffffff1681526020016001820160009054906101000a900473ffffffffffffffffffffffffffffffffffffffff1673ffffffffffffffffffffffffffffffffffffffff1673ffffffffffffffffffffffffffffffffffffffff1681526020016001820160149054906101000a900461ffff1661ffff1661ffff168152505090503373ffffffffffffffffffffffffffffffffffffffff16816000015173ffffffffffffffffffffffffffffffffffffffff16146105ba576040517f08c379a0000000000000000000000000000000000000000000000000000000008152600401808060200182810382526000815260200160200191505060405180910390fd5b600073ffffffffffffffffffffffffffffffffffffffff16816020015173ffffffffffffffffffffffffffffffffffffffff1614156106a9578261ffff16816040015161ffff1610610657576040517f08c379a000000000000000000000000000000000000000000000000000000000815260040180806020018281038252602981526020018061089f6029913960400191505060405180910390fd5b60405180606001604052803373ffffffffffffffffffffffffffffffffffffffff1681526020018573ffffffffffffffffffffffffffffffffffffffff1681526020018461ffff1681525090506106f6565b82816040019061ffff16908161ffff168152505083816020019073ffffffffffffffffffffffffffffffffffffffff16908173ffffffffffffffffffffffffffffffffffffffff16815250505b806000866040518082805190602001908083835b6020831061072d578051825260208201915060208101905060208303925061070a565b6001836020036101000a038019825116818451168082178552505050505050905001915050908152602001604051809103902060008201518160000160006101000a81548173ffffffffffffffffffffffffffffffffffffffff021916908373ffffffffffffffffffffffffffffffffffffffff16021790555060208201518160010160006101000a81548173ffffffffffffffffffffffffffffffffffffffff021916908373ffffffffffffffffffffffffffffffffffffffff16021790555060408201518160010160146101000a81548161ffff021916908361ffff16021790555090505060019150509392505050565b6040518060600160405280600073ffffffffffffffffffffffffffffffffffffffff168152602001600073ffffffffffffffffffffffffffffffffffffffff168152602001600061ffff168152509056fe496e76616c69642076657273696f6e2e2056657273696f6e732073686f756c642073746172742066726f6d20314e65772076657273696f6e206d7573742062652067726561746572207468616e2070726576696f7573a265627a7a72315820fc075bf6e1a968e5957b0b892b9bacbd2caf4dae8eae993e9ab21ab599e5699464736f6c634300050c0032",
  "source": "pragma solidity ^0.5.11;\r\n\r\ncontract ContractRegistry {\r\n\r\n    // Contract Properties\r\n    mapping(string => ContractDetails) registry;\r\n\r\n    // Structures\r\n    struct ContractDetails {\r\n        address owner;\r\n        address contractAddress;\r\n        uint16 version;\r\n    }\r\n\r\n    /* Function to register a new contract\r\n    Parameters:\r\n        string _name - The name label of the contract\r\n        address _address - The address of the contract\r\n        uint16 _version - The version of the contract\r\n    */\r\n    function registerName(string memory _name, address _address, uint16 _version) public returns(bool) {\r\n\r\n        // Check parameters - Versions must be greater than 1\r\n        require(_version >= 1, 'Invalid version. Versions should start from 1');\r\n\r\n        // Get contract details\r\n        ContractDetails memory contractDetails = registry[_name];\r\n        require(contractDetails.owner == msg.sender, '');\r\n\r\n        // Check if contract details already exists\r\n        if(contractDetails.contractAddress == address(0)){\r\n\r\n            // New version must be greater than previous\r\n            require(contractDetails.version < _version, 'New version must be greater than previous');\r\n            contractDetails = ContractDetails(msg.sender, _address, _version);\r\n        }\r\n        else{\r\n            contractDetails.version = _version;\r\n            contractDetails.contractAddress = _address;\r\n        }\r\n\r\n        // Store contract details\r\n        registry[_name] = contractDetails;\r\n        return true;\r\n    }\r\n\r\n    /* Function to get the details of a contract\r\n    Parameters:\r\n        string _name - The name of the contract whose details are to be returned\r\n    */\r\n    function getContract(string memory _name) public view returns(address) {\r\n        ContractDetails memory contractDetails = registry[_name];\r\n        return (contractDetails.contractAddress);\r\n    }\r\n}",
  "sourcePath": "C:\\Users\\RyanFalzon\\Documents\\loandapp\\Application\\contracts\\ContractRegistry.sol",
  "compiler": {
    "name": "solc",
    "version": "0.5.12+commit.7709ece9.Emscripten.clang"
  },
  "schemaVersion": "3.0.20",
  "updatedAt": "2020-01-19T15:39:00.259Z",
  "networkType": "ethereum",
  "devdoc": {
    "methods": {}
  },
  "userdoc": {
    "methods": {}
  }
}