{
  "contractName": "NameRegistry",
  "abi": [
    {
      "constant": false,
      "inputs": [
        {
          "internalType": "string",
          "name": "_name",
          "type": "string"
        },
        {
          "internalType": "address",
          "name": "_address",
          "type": "address"
        },
        {
          "internalType": "uint16",
          "name": "_version",
          "type": "uint16"
        }
      ],
      "name": "registerName",
      "outputs": [
        {
          "internalType": "bool",
          "name": "",
          "type": "bool"
        }
      ],
      "payable": false,
      "stateMutability": "nonpayable",
      "type": "function"
    },
    {
      "constant": true,
      "inputs": [
        {
          "internalType": "string",
          "name": "_name",
          "type": "string"
        }
      ],
      "name": "getContractDetails",
      "outputs": [
        {
          "internalType": "address",
          "name": "",
          "type": "address"
        },
        {
          "internalType": "uint16",
          "name": "",
          "type": "uint16"
        }
      ],
      "payable": false,
      "stateMutability": "view",
      "type": "function"
    }
  ],
  "bytecode": "0x608060405234801561001057600080fd5b50610913806100206000396000f3fe608060405234801561001057600080fd5b50600436106100365760003560e01c8063be3f4a5b1461003b578063bfafff5b1461013c575b600080fd5b6101226004803603606081101561005157600080fd5b810190808035906020019064010000000081111561006e57600080fd5b82018360208201111561008057600080fd5b803590602001918460018302840111640100000000831117156100a257600080fd5b91908080601f016020809104026020016040519081016040528093929190818152602001838380828437600081840152601f19601f820116905080830192505050505050509192919290803573ffffffffffffffffffffffffffffffffffffffff169060200190929190803561ffff169060200190929190505050610246565b604051808215151515815260200191505060405180910390f35b6101f56004803603602081101561015257600080fd5b810190808035906020019064010000000081111561016f57600080fd5b82018360208201111561018157600080fd5b803590602001918460018302840111640100000000831117156101a357600080fd5b91908080601f016020809104026020016040519081016040528093929190818152602001838380828437600081840152601f19601f8201169050808301925050505050505091929192905050506106d6565b604051808373ffffffffffffffffffffffffffffffffffffffff1673ffffffffffffffffffffffffffffffffffffffff1681526020018261ffff1661ffff1681526020019250505060405180910390f35b600060018261ffff1610156102a6576040517f08c379a000000000000000000000000000000000000000000000000000000000815260040180806020018281038252602d815260200180610889602d913960400191505060405180910390fd5b6102ae610837565b6000856040518082805190602001908083835b602083106102e457805182526020820191506020810190506020830392506102c1565b6001836020036101000a03801982511681845116808217855250505050505090500191505090815260200160405180910390206040518060600160405290816000820160009054906101000a900473ffffffffffffffffffffffffffffffffffffffff1673ffffffffffffffffffffffffffffffffffffffff1673ffffffffffffffffffffffffffffffffffffffff1681526020016001820160009054906101000a900473ffffffffffffffffffffffffffffffffffffffff1673ffffffffffffffffffffffffffffffffffffffff1673ffffffffffffffffffffffffffffffffffffffff1681526020016001820160149054906101000a900461ffff1661ffff1661ffff168152505090503373ffffffffffffffffffffffffffffffffffffffff16816000015173ffffffffffffffffffffffffffffffffffffffff1614610470576040517f08c379a0000000000000000000000000000000000000000000000000000000008152600401808060200182810382526000815260200160200191505060405180910390fd5b600073ffffffffffffffffffffffffffffffffffffffff16816020015173ffffffffffffffffffffffffffffffffffffffff16141561055f578261ffff16816040015161ffff161061050d576040517f08c379a00000000000000000000000000000000000000000000000000000000081526004018080602001828103825260298152602001806108b66029913960400191505060405180910390fd5b60405180606001604052803373ffffffffffffffffffffffffffffffffffffffff1681526020018573ffffffffffffffffffffffffffffffffffffffff1681526020018461ffff1681525090506105ac565b82816040019061ffff16908161ffff168152505083816020019073ffffffffffffffffffffffffffffffffffffffff16908173ffffffffffffffffffffffffffffffffffffffff16815250505b806000866040518082805190602001908083835b602083106105e357805182526020820191506020810190506020830392506105c0565b6001836020036101000a038019825116818451168082178552505050505050905001915050908152602001604051809103902060008201518160000160006101000a81548173ffffffffffffffffffffffffffffffffffffffff021916908373ffffffffffffffffffffffffffffffffffffffff16021790555060208201518160010160006101000a81548173ffffffffffffffffffffffffffffffffffffffff021916908373ffffffffffffffffffffffffffffffffffffffff16021790555060408201518160010160146101000a81548161ffff021916908361ffff16021790555090505060019150509392505050565b6000806106e1610837565b6000846040518082805190602001908083835b6020831061071757805182526020820191506020810190506020830392506106f4565b6001836020036101000a03801982511681845116808217855250505050505090500191505090815260200160405180910390206040518060600160405290816000820160009054906101000a900473ffffffffffffffffffffffffffffffffffffffff1673ffffffffffffffffffffffffffffffffffffffff1673ffffffffffffffffffffffffffffffffffffffff1681526020016001820160009054906101000a900473ffffffffffffffffffffffffffffffffffffffff1673ffffffffffffffffffffffffffffffffffffffff1673ffffffffffffffffffffffffffffffffffffffff1681526020016001820160149054906101000a900461ffff1661ffff1661ffff16815250509050806020015181604001519250925050915091565b6040518060600160405280600073ffffffffffffffffffffffffffffffffffffffff168152602001600073ffffffffffffffffffffffffffffffffffffffff168152602001600061ffff168152509056fe496e76616c69642076657273696f6e2e2056657273696f6e732073686f756c642073746172742066726f6d20314e65772076657273696f6e206d7573742062652067726561746572207468616e2070726576696f7573a265627a7a7231582031648409f855b77e916f6c4a93e76bda047da3126e9d1d9cc7191375303e8bb564736f6c634300050c0032",
  "source": "pragma solidity ^0.5.11;\r\n\r\ncontract NameRegistry {\r\n\r\n    // Contract Properties\r\n    mapping(string => ContractDetails) registry;\r\n\r\n    // Structures\r\n    struct ContractDetails {\r\n        address owner;\r\n        address contractAddress;\r\n        uint16 version;\r\n    }\r\n\r\n    /* Function to register a new contract\r\n    Parameters:\r\n        string _name - The name label of the contract\r\n        address _address - The address of the contract\r\n        uint16 _version - The version of the contract\r\n    */\r\n    function registerName(string memory _name, address _address, uint16 _version) public returns(bool) {\r\n\r\n        // Check parameters - Versions must be greater than 1\r\n        require(_version >= 1, 'Invalid version. Versions should start from 1');\r\n\r\n        // Get contract details\r\n        ContractDetails memory contractDetails = registry[_name];\r\n        require(contractDetails.owner == msg.sender, '');\r\n\r\n        // Check if contract details already exists\r\n        if(contractDetails.contractAddress == address(0)){\r\n\r\n            // New version must be greater than previous\r\n            require(contractDetails.version < _version, 'New version must be greater than previous');\r\n            contractDetails = ContractDetails(msg.sender, _address, _version);\r\n        }\r\n        else{\r\n            contractDetails.version = _version;\r\n            contractDetails.contractAddress = _address;\r\n        }\r\n\r\n        // Store contract details\r\n        registry[_name] = contractDetails;\r\n        return true;\r\n    }\r\n\r\n    /* Function to get the details of a contract\r\n    Parameters:\r\n        string _name - The name of the contract whose details are to be returned\r\n    */\r\n    function getContractDetails(string memory _name) public view returns(address, uint16) {\r\n        ContractDetails memory contractDetails = registry[_name];\r\n        return (contractDetails.contractAddress, contractDetails.version);\r\n    }\r\n}",
  "sourcePath": "C:/Users/music/OneDrive/University/Masters/DLT5401 - Smart Contract and dAppProgramming/Assignment/Part 1/loandapp/Application/contracts/ContractRegistry.sol",
  "compiler": {
    "name": "solc",
    "version": "0.5.12+commit.7709ece9.Emscripten.clang"
  },
  "schemaVersion": "3.0.19",
  "updatedAt": "2020-01-18T21:20:49.390Z",
  "devdoc": {
    "methods": {}
  },
  "userdoc": {
    "methods": {}
  }
}